:0400000093EF06F084
:08000800046ED8CF05F0E0CF33
:1000100006F00001E9CF0CF0EACF07F0E1CF08F0DD
:10002000E2CF09F0D9CF0AF0DACF0BF0F3CF12F01C
:10003000F4CF13F0FACF14F0F5CF15F0F6CF16F099
:10004000F7CF17F000C00EF001C00FF002C010F0A3
:1000500003C011F0F2AA30EF00F0F2B4AFEF00F0FD
:100060009DA036EF00F09EB0D8EF04F0F0A63CEF74
:1000700000F0F0B06FEF00F0F0A842EF00F0F0B247
:100080008FEF00F0A3A048EF00F0A4B0EBEF04F076
:100090000EC000F00FC001F010C002F011C003F05C
:1000A0000CC0E9FF07C0EAFF078E08C0E1FF09C0E6
:1000B000E2FF0AC0D9FF0BC0DAFF12C0F3FF13C082
:1000C000F4FF14C0FAFF15C0F5FF16C0F6FF17C005
:1000D000F7FF045006C0E0FF05C0D8FF1000000E77
:1000E000F1AA010EF19AE8B0F18AF1AA0BD082AA26
:1000F00005D01F50D8B420061F0603D01F2AD8B43D
:10010000202A0AD082AA04D01F2AD8B4202A04D0D8
:100110001F50D8B420061F06F09048EF00F0000EE4
:10012000F1A8010EF198E8B0F188F1A80BD082A8EF
:1001300004D01F2AD8B4202A04D01F50D8B42006D7
:100140001F060AD082A805D01F50D8B420061F066B
:1001500003D01F2AD8B4202AF09248EF00F0D76AC3
:10016000050ED66E572A5750C70802E2576A8C848C
:100170005850575CD8B08C94F29448EF00F08E0E33
:10018000006E66C001F065C002F0036A66AF05D07C
:10019000011E021E022A01E1012A015209E102C0E8
:1001A00001F0026A080E005E015202E1006A0AD004
:1001B000D89001BE04D0023601360006F9D766BFDA
:1001C00001D0019E000C6551D8B471D0006E695108
:1001D000D8B46DD0002604E3810E002668E204D076
:1001E0007F0E005E64E363E066C06DF06A516D1BD4
:1001F000668F6A8F68516C03F4CF6FF067516B03A1
:10020000F4CF03F0F3CF6EF06C03F3506F27F4508C
:100210006E23000E032268516B03F3506F27F450D6
:100220006E23000E026A0322022266516C03F35011
:100230006E27F4500322000E022266516B03F35026
:100240000326F4500222000E016A012268516A035B
:10025000F3506E27F4500322000E02220122675150
:100260006A03F3500326F4500222000E0122665165
:100270006A03F3500226F4500122002A01BE05D081
:100280006E370336023601360006000E6EAF0AD016
:10029000032A02220122015005E1025003E103502A
:1002A00001E1002A6DBF018E6DAF019E04D0006A8E
:1002B000016A026A036A000C800ED8B26A1B6F6B77
:1002C000706B66C06EF06A516E1B6551D8B4DCD09D
:1002D0006D6F006E6951D8B4E0D06D5FD8B481D035
:1002E0003DE36AC073F0738F6BC072F06CC071F045
:1002F000706BD89073337233713370336D2FF8D7BE
:100300006EAF03D06F81DDD06F916D916F89EA6A16
:10031000680EE96EE9D06F996EBF0AD06DA113D057
:100320007333723371337033002AD8B4C5D00BD015
:1003300073BF0CD0D890703771377237733700069F
:10034000D8B4BAD0F5D76F8D6BD06F9D66C06EF004
:1003500066AF02D0738FA9D0739FA7D069C06DF02C
:1003600069C000F065516D5F66C073F0738F67C040
:1003700072F068C071F0706BD89073337233713360
:1003800070336D2FF8D76EAF03D06F839AD06F9311
:100390006D916F8BEA6A6C0EE96EA6D06F9B6EBF93
:1003A0000AD06DA113D07333723371337033002AC6
:1003B000D8B482D00BD073BF0CD0D89070377137BF
:1003C000723773370006D8B477D0F5D76F8F28D03F
:1003D0006F9F6AC06EF06AAF02D0738F66D0739F52
:1003E00064D06AC073F0738F6BC072F06CC071F030
:1003F0006EAF04D0739F6F8564D06F95706B6D91F5
:10040000EA6A680EE96E70D06EBF1CD066C06EF0EE
:100410006DA106D07333723371337033002A4CE010
:1004200070AF0BD0712B09E1722B07E1732B05E143
:10043000733372337133002A3FE06FBD86D76FBFCD
:10044000C7D71CD0800E731B73AF04D03AD06AC0DC
:100450006EF00AD066C06EF0735306E1725304E189
:10046000715302E1006A21D073BF08D0D890703771
:10047000713772377337002EF7D71ED06EAF02D0A8
:10048000738F13D0739F11D069C000F06AC073F0EE
:100490006BC072F06CC071F008D065C000F066C02F
:1004A00073F067C072F068C071F073C001F072C081
:1004B00002F071C003F034D0006A016A026A036A74
:1004C0002FD0706B711F721F731F701F702B05E18F
:1004D000712B03E1722B01E1732B6FB115D76FB351
:1004E00056D76FB58AD7B3D7EF50712705E3722B74
:1004F00003E1732BD8B46D81ED52EF50722703E303
:10050000732BD8B46D81ED52EF50EFBE01D0800A4D
:100510007327D8B06D816FB9FED66FBB3FD774D744
:10052000000C8E0E006E6151005E62C002F063C06E
:1005300001F0028E005209E0D890025202E101520D
:1005400004E002320132002EF7D762AF05D0011E5F
:10055000021E012AD8B4022A000C839866CF31F01B
:1005600067CF32F031505F5C356E32506059366E75
:100570003D50010830E23950355C376E3A503658FC
:10058000386E3D6A38AE08D03850FE0809E2FF0ADE
:1005900003E13750F60804E2355033263650342252
:1005A00034BE08D0345203E13350C80803E2346A41
:1005B000C80E336E34AE0BD03450FF0808E303E1AD
:1005C0003350370804E3FF0E346E380E336E36C0F6
:1005D0003AF035C039F036C066F035C065F0CFDD91
:1005E00024C068F023C067F022C066F021C065F027
:1005F00003C06CF002C06BF001C06AF000C069F08B
:10060000E2DD00C061F001C062F002C063F003C02F
:1006100064F034C066F033C065F0B1DD28C068F026
:1006200027C067F026C066F025C065F003C06CF0F7
:1006300002C06BF001C06AF000C069F0C4DDD8925E
:1006400064C068F063C067F062C066F061C065F0C6
:1006500003C06CF002C06BF001C06AF000C069F02A
:100660002BDE00C061F001C062F002C063F003C085
:1006700064F038C066F037C065F081DD2CC068F0EA
:100680002BC067F02AC066F029C065F003C06CF08B
:1006900002C06BF001C06AF000C069F094DDD8922E
:1006A00064C068F063C067F062C066F061C065F066
:1006B00003C06CF002C06BF001C06AF000C069F0CA
:1006C000FBDD03C030F002C02FF001C02EF000C0EF
:1006D0002DF030C064F02FC063F02EC062F02DC04A
:1006E00061F01FDF02C03CF001C03BF03CBE06D011
:1006F0003C5203E13B500008D8A082963CAE01D0AA
:1007000082863CC003F03B503CAE08D0000ED8803F
:100710003B54006E000E3C54036E00503B6E03C011
:100720003CF03CBE09D03C5203E13B50050804E2DA
:10073000C80E3B26000E3C223CBE0CD03C500008AC
:1007400009E2FF0A03E13B50F40804E2010E3C6EAB
:10075000F40E3B6E3CC002F03BC001F002320132AD
:1007600002320132023201C0BEFF02320230300BCF
:10077000006EBD50CF0B0010BD6EE3EF04F0839A06
:1007800020C044F01FC043F043505F5C476E4450AC
:100790006059486E3E50010837E23E6A48AE08D0C4
:1007A0004850FE0810E2FF0A03E14750EC080BE254
:1007B00048BE05D0485207E14750130804E34750AC
:1007C00045264850462246BE08D0465203E14550D1
:1007D000C80803E2466AC80E456E46AE0BD04650C6
:1007E000FF0808E303E14550370804E3FF0E466EB7
:1007F000380E456E4B50475C496E4C5048584A6E17
:1008000048C04CF047C04BF048C066F047C065F0A8
:10081000B6DC24C068F023C067F022C066F021C0B7
:1008200065F003C06CF002C06BF001C06AF000C05C
:1008300069F0C9DC00C061F001C062F002C063F081
:1008400003C064F046C066F045C065F098DC28C07F
:1008500068F027C067F026C066F025C065F003C0C9
:100860006CF002C06BF001C06AF000C069F0ABDC54
:10087000D89264C068F063C067F062C066F061C07F
:1008800065F003C06CF002C06BF001C06AF000C0FC
:1008900069F012DD00C061F001C062F002C063F0D7
:1008A00003C064F04AC066F049C065F068DC2CC043
:1008B00068F02BC067F02AC066F029C065F003C05D
:1008C0006CF002C06BF001C06AF000C069F07BDC24
:1008D000D89264C068F063C067F062C066F061C01F
:1008E00065F003C06CF002C06BF001C06AF000C09C
:1008F00069F0E2DC03C052F002C051F001C050F0D8
:1009000000C04FF052C064F051C063F050C062F0BC
:100910004FC061F006DE02C04EF001C04DF04EBE89
:1009200006D04E5203E14D500008D8A082804EAE52
:1009300001D082904EC003F04D504EAE08D0000E54
:10094000D8804D54006E000E4E54036E00504D6E14
:1009500003C04EF04EBE09D04E5203E14D50050883
:1009600004E2C80E4D26000E4E224EBE0CD04E5054
:10097000000809E2FF0A03E14D50900804E2010E6D
:100980004E6E900E4D6E4EC002F04DC001F0023220
:10099000013202320132023201C0BBFF02320230A8
:1009A000300B006EBA50CF0B0010BA6EE8EF04F0B7
:1009B000E70ECF6E960ECE6E3D2A3E2A40C060F006
:1009C0003FC05FF0CAD542C060F041C05FF0D7D6EB
:1009D0009E9048EF00F0E70E886E960E876E532AC1
:1009E000D8B4542AA49048EF00F0180E926EFF0E6F
:1009F000936EF19E816E300E946E826A956A836A60
:100A0000966AF086F088A380C00EF212F18AF1880F
:100A1000F090F0929E90A490140EB66E310E606E1F
:100A2000FF0E656E646E676A666A676A666AC10E03
:100A3000D56ED76A050ED66EB50ECD6EE70ECF6EAB
:100A4000960ECE6E190EB76EE70E886E960E876EF6
:100A5000000E0409CA6EF90ECB6E8B940C0EBD6E9F
:100A6000C4EF06F095989496949482868398000E2D
:100A70000409CA6EF90ECB6E8B940C0EBD6E5BC072
:100A800002F05AC001F00232013202320132023267
:100A900001C0BEFF02320230300B006EBD50CF0BE2
:100AA0000010BD6EC5EF05F0959894969494000ED5
:100AB0000409CA6EF90ECB6E8B940C0EBD6EBE6A25
:100AC00083888296000CEA6A5E0EE96EEF500EE0B3
:100AD0000C0E016E006A002EFED7012EFBD7F70E1A
:100AE000006E002EFED700D0EF2EF2D7000C5C6A0D
:100AF0005A505C5C0DE2959E839E1E0E5E6EE3DF97
:100B0000838E1E0E5B5C5D6E5E6EDDDF5C2AF0D751
:100B1000000C959A94909492839A8290000E040906
:100B2000CA6EF90ECB6E8B920C0EBA6E5BC002F0E1
:100B30005AC001F00232013202320132023201C0E7
:100B4000BBFF02320230300B006EBA50CF0B0010E8
:100B5000BA6ED3EF05F0959A94909492838A82901E
:100B6000000E0409CA6EF90ECB6E8B920C0EBA6E93
:100B7000BB6A000C9D90A3903D6A3E6A81A006D09E
:100B8000010E5B6E720E5A6E6DD7F8D78DDF010EB7
:100B90005A6E640E5B6EABDF81A406D0010E5B6EF5
:100BA000720E5A6EB6D7F8D7D6DF010E5A6E640EA3
:100BB0005B6E9DDF676A666A206A1F6A406A3F6AE9
:100BC000426A416A808A80808082808484808482B4
:100BD000A380A490E70E886E960E876E000C9D9001
:100BE000A390020E5A6E640E5B6E81DF566A556AE0
:100BF00081AC04D0320E5E6E66DFFAD781BC06D0BF
:100C0000140E5E6E60DF81BC01D0809A81BC04D07E
:100C1000320E5E6E58DFFAD7A380A490E70E886E7E
:100C2000960E876EF0EF06F0A3909D80030E5A6E2D
:100C3000640E5B6E5CDF566A556A676A666A206A94
:100C40001F6A3D6A3E6AA380A490E70E886E960EE6
:100C5000876EF6EF06F09D90A390040E5A6E640E18
:100C60005B6E45DF21DF77DF566A556A81AC04D0C1
:100C7000320E5E6E28DFFAD78092809A080E5A6E86
:100C8000FA0E5E6E20DF5A2EFBD78082080E5A6E57
:100C9000FA0E5E6E18DF5A2EFBD78092080E5A6E3F
:100CA000FA0E5E6E10DF5A2EFBD78082080E5A6E47
:100CB000FA0E5E6E08DF5A2EFBD78092080E5A6E2F
:100CC000FA0E5E6E00DF5A2EFBD78082080E5A6E37
:100CD000FA0E5E6EF8DE5A2EFBD78092080E5A6E20
:100CE000FA0E5E6EF0DE5A2EFBD78082080E5A6E28
:100CF000FA0E5E6EE8DE5A2EFBD78092080E5A6E10
:100D0000FA0E5E6EE0DE5A2EFBD78082080E5A6E17
:100D1000FA0E5E6ED8DE5A2EFBD7F28AF2940A0ED5
:100D2000586EFCEF06F0F86AD09E078EEA6AE96A10
:100D3000246A236A226A800E216ECD0E286ECC0EA4
:100D4000276E4C0E266E7C0E256E330E2C6E2B6E8F
:100D50002A6E7E0E296E346A336A386A376A3A6AB6
:100D6000396A466A456A4A6A496A4C6A4B6A546AF1
:100D7000536A566A556A596AB990C19CC19E000E61
:100D8000B86E196A1A6A31D6F5DE566A556A010ECE
:100D90005A6E640E5B6EABDE81BE3ED0546A536AFF
:100DA000596A010E5A6E640E5B6EA1DE595208E15B
:100DB00081AE05D0320E5E6E86DE010E596EF6D71C
:100DC000545203E15350320818E2552C03D05652C6
:100DD00001E1D0DE5550020803E1565201E1FFD691
:100DE0005550030803E1565201E11ED7555004083F
:100DF00003E1565201E12FD70FD0552AD8B4562A15
:100E0000565203E15550040807E2566A556A0A0E25
:0C0E10005A6E640E5B6E6BDEBFD70300F1
:020000040030CA
:0E00000000C60C3E3C9D81000FC00FE00F407B
:00000001FF
;PIC18F4431
;CRC=AB6D  CREATED="18-Mar-14 13:54"
