:0400000056EF0AF0BD
:08000800046ED8CF05F0E0CF33
:1000100006F00001E9CF0CF0EACF07F0E1CF08F0DD
:10002000E2CF09F0D9CF0AF0DACF0BF0F3CF12F01C
:10003000F4CF13F0FACF14F000C00EF001C00FF0AF
:1000400002C010F003C011F0F2AA2AEF00F0F2B4DF
:10005000ABEF00F09DA030EF00F09EB018EF05F080
:10006000F0A636EF00F0F0B063EF00F0F0A83CEF40
:1000700000F0F0B287EF00F0A3A042EF00F0A4B0D0
:100080008EEF05F00EC000F00FC001F010C002F0BE
:1000900011C003F00CC0E9FF07C0EAFF078E08C0DB
:1000A000E1FF09C0E2FF0AC0D9FF0BC0DAFF12C0AE
:1000B000F3FF13C0F4FF14C0FAFF045006C0E0FFC2
:1000C00005C0D8FF1000006AF1BA002A010E001A1C
:1000D000F19A00B0F18AF1AA0CD0948A82AA05D0D4
:1000E0001750D8B41806170603D0172AD8B4182A00
:1000F0000BD0948A82AA04D0172AD8B4182A04D024
:100100001750D8B418061706F09042EF00F0006AB6
:10011000F1B8002A010E001AF19800B0F188F1A898
:100120000CD0948882A804D0172AD8B4182A04D0F6
:100130001750D8B4180617060BD0948882A805D09B
:100140001750D8B41806170603D0172AD8B4182A9F
:10015000F09242EF00F0532AD8B4542A52A00ED0A5
:10016000D76A050ED66E502A5050640802E2506AD3
:10017000839C5150505C01E3838C0FD0D76A050EED
:10018000D66E502A5050C70803E2506A949E8B8E58
:100190005150505C02E3949E8B9EF29442EF00F02B
:1001A000969494969494000E0609CA6EFA0ECB6E3D
:1001B00094948B940C0EBD6EBE6A84848296120059
:1001C00096929490949284828290000E0609CA6E50
:1001D000FA0ECB6E94928B920C0EBA6EBB6A120022
:1001E0008E0E006E68C001F067C002F0036A68AF4F
:1001F00005D0011E021E022A01E1012A015209E175
:1002000002C001F0026A080E005E015202E1006ABB
:100210000AD0D89001BE04D0023601360006F9D7C4
:1002200068BF01D0019E12006751D8B471D0006E32
:100230006B51D8B46DD0002604E3810E002668E22D
:1002400004D07F0E005E64E363E068C06FF06C5121
:100250006F1B688F6C8F6A516E03F4CF71F0695118
:100260006D03F4CF03F0F3CF70F06E03F3507127FA
:10027000F4507023000E03226A516D03F35071276E
:10028000F4507023000E026A0322022268516E03AA
:10029000F3507027F4500322000E022268516D03C0
:1002A000F3500326F4500222000E016A01226A5123
:1002B0006C03F3507027F4500322000E0222012237
:1002C00069516C03F3500326F4500222000E012200
:1002D00068516C03F3500226F4500122002A01BE3B
:1002E00005D070370336023601360006000E70AFB7
:1002F0000AD0032A02220122015005E1025003E143
:10030000035001E1002A6FBF018E6FAF019E04D040
:10031000006A016A026A036A1200800ED8B26C1B7E
:10032000716B726B68C070F06C51701B6751D8B400
:10033000DCD06F6F006E6B51D8B4E0D06F5FD8B473
:1003400081D03DE36CC075F0758F6DC074F06EC0E8
:1003500073F0726BD89075337433733372336F2FBD
:10036000F8D770AF03D07181DDD071916F91718931
:10037000EA6A6A0EE96EE9D0719970BF0AD06FA17E
:1003800013D07533743373337233002AD8B4C5D0A5
:100390000BD075BF0CD0D890723773377437753760
:1003A0000006D8B4BAD0F5D7718D6BD0719D68C0F6
:1003B00070F068AF02D0758FA9D0759FA7D06BC0C1
:1003C0006FF06BC000F067516F5F68C075F0758F9C
:1003D00069C074F06AC073F0726BD890753374336F
:1003E000733372336F2FF8D770AF03D071839AD005
:1003F00071936F91718BEA6A6E0EE96EA6D0719B54
:1004000070BF0AD06FA113D0753374337333723356
:10041000002AD8B482D00BD075BF0CD0D8907237D8
:100420007337743775370006D8B477D0F5D7718F26
:1004300028D0719F6CC070F06CAF02D0758F66D001
:10044000759F64D06CC075F0758F6DC074F06EC010
:1004500073F070AF04D0759F718564D07195726B25
:100460006F91EA6A6A0EE96E70D070BF1CD068C0E6
:1004700070F06FA106D07533743373337233002A72
:100480004CE072AF0BD0732B09E1742B07E1752B95
:1004900005E1753374337333002A3FE071BD86D7AD
:1004A00071BFC7D71CD0800E751B75AF04D03AD072
:1004B0006CC070F00AD068C070F0755306E17453D8
:1004C00004E1735302E1006A21D075BF08D0D890CF
:1004D0007237733774377537002EF7D71ED070AF69
:1004E00002D0758F13D0759F11D06BC000F06CC017
:1004F00075F06DC074F06EC073F008D067C000F086
:1005000068C075F069C074F06AC073F075C001F01E
:1005100074C002F073C003F034D0006A016A026A4A
:10052000036A2FD0726B731F741F751F721F722B9B
:1005300005E1732B03E1742B01E1752B71B115D724
:1005400071B356D771B58AD7B3D7EF50732705E388
:10055000742B03E1752BD8B46F81ED52EF507427E3
:1005600003E3752BD8B46F81ED52EF50EFBE01D08D
:10057000800A7527D8B06F8171B9FED671BB3FD79D
:1005800074D712008E0E006E6351005E64C002F0DC
:1005900065C001F0028E005209E0D890025202E1DB
:1005A000015204E002320132002EF7D764AF05D0C9
:1005B000011E021E012AD8B4022A1200849467CFB9
:1005C00001F066CF00F067CF03F00350015C02E05A
:1005D00066CF00F000502D6E03C02EF02D505F5CF2
:1005E000316E2E506059326E395001082FE235506D
:1005F000315C336E36503258346E396A34AE08D0BE
:100600003450FE0809E2FF0A03E13350F60804E221
:1006100031502F263250302230BE08D0305203E104
:100620002F50C80803E2306AC80E2F6E30AE0AD0D1
:100630003050FF0807E303E12F50370803E3306829
:10064000380E2F6E32C036F031C035F032C068F04F
:1006500031C067F0C5DD1CC06AF01BC069F01AC06C
:1006600068F019C067F003C06EF002C06DF001C001
:100670006CF000C06BF0D8DD03C066F002C065F01E
:1006800001C064F000C063F030C068F02FC067F0B4
:10069000A7DD20C06AF01FC069F01EC068F01DC051
:1006A00067F003C06EF002C06DF001C06CF000C0D6
:1006B0006BF0BADDD89266C06AF065C069F064C0BC
:1006C00068F063C067F003C06EF002C06DF001C057
:1006D0006CF000C06BF021DE03C066F002C065F074
:1006E00001C064F000C063F034C068F033C067F04C
:1006F00077DD24C06AF023C069F022C068F021C011
:1007000067F003C06EF002C06DF001C06CF000C075
:100710006BF08ADDD89266C06AF065C069F064C08B
:1007200068F063C067F003C06EF002C06DF001C0F6
:100730006CF000C06BF0F1DD03C028F002C027F0C0
:1007400001C026F000C025F028C066F027C065F083
:1007500026C064F025C063F015DF02C038F001C088
:1007600037F038BE06D0385203E13750000801E2B6
:10077000829638AE01D0828638C003F0375038AE4A
:1007800008D0000ED8803754006E000E3854036E27
:100790000050376E03C038F038BE09D0385203E13C
:1007A0003750050804E2C80E3726000E382262AF23
:1007B00003D038AE0AD002D038BE0BD06251385CBC
:1007C00008E303E13750615D04E262C038F061C0C4
:1007D00037F038C002F037C001F002320132023285
:1007E0000132023201C0BEFF02320230300B006E15
:1007F000BD50CF0B0010BD6E1200849218C044F0A3
:1008000017C043F043505F5C476E44506059486ED8
:100810003A50010836E23A6A48AE08D04850FE081D
:1008200010E2FF0A03E14750EC080BE248BE05D096
:10083000485207E14750130804E347504526485003
:10084000462246BE08D0465203E14550C80803E29E
:10085000466AC80E456E46AE0AD04650FF0807E30A
:1008600003E14550370803E34668380E456E4B50A8
:10087000475C496E4C5048584A6E48C04CF047C0DF
:100880004BF048C068F047C067F0AADC1CC06AF0B3
:100890001BC069F01AC068F019C067F003C06EF0A1
:1008A00002C06DF001C06CF000C06BF0BDDC03C095
:1008B00066F002C065F001C064F000C063F046C09D
:1008C00068F045C067F08CDC20C06AF01FC069F09A
:1008D0001EC068F01DC067F003C06EF002C06DF06E
:1008E00001C06CF000C06BF09FDCD89266C06AF06B
:1008F00065C069F064C068F063C067F003C06EF063
:1009000002C06DF001C06CF000C06BF006DD03C0EA
:1009100066F002C065F001C064F000C063F04AC038
:1009200068F049C067F05CDC24C06AF023C069F05D
:1009300022C068F021C067F003C06EF002C06DF005
:1009400001C06CF000C06BF06FDCD89266C06AF03A
:1009500065C069F064C068F063C067F003C06EF002
:1009600002C06DF001C06CF000C06BF0D6DC03C0BB
:100970002CF002C02BF001C02AF000C029F02CC0DE
:1009800066F02BC065F02AC064F029C063F0FADD80
:1009900002C04EF001C04DF04EBE06D04E5203E1F3
:1009A0004D50000801E282804EAE01D082904EC0D0
:1009B00003F04D504EAE08D0000ED8804D54006E5E
:1009C000000E4E54036E00504D6E03C04EF04EBEEE
:1009D00009D04E5203E14D50050804E2C80E4D26E1
:1009E000000E4E2262AF03D04EAE0AD002D04EBEF1
:1009F0000BD062514E5C08E303E14D50615D04E2AF
:100A000062C04EF061C04DF04EC002F04DC001F02A
:100A10000232013202320132023201C0BBFF023225
:100A20000230300B006EBA50CF0B0010BA6E1200BD
:100A3000E30ECF6EAE0ECE6E392A3A2A5550FC0F19
:100A400033E2040F57EF05F09D90D0EC00F0E0EC9E
:100A500000F02AD0E0EC00F03CC060F03BC05FF05A
:100A600040C062F03FC061F0A9DD1ED0D0EC00F0C4
:100A70003EC060F03DC05FF042C062F041C061F036
:100A8000BCDE12D03CC060F03BC05FF040C062F002
:100A90003FC061F093DD3EC060F03DC05FF042C0FA
:100AA00062F041C061F0A9DE9E9042EF00F0E824C0
:100AB000F76AF736C90FF66E0A0EF7220A00F550EC
:100AC000FA6E0800F550F96E480A540A6C0A840A56
:100AD000EA6A630EE96EEF500EE00C0E016E006ADA
:100AE000002EFED7012EFBD7F70E006E002EFED78C
:100AF00000D0EF2EF2D71200616B5F50615D0DE206
:100B0000959E839E140E636FE3DF838E140E605DEB
:100B1000626F636FDDDF612BF0D71200CF0E886E3E
:100B20002B0E876E4F2A4F50020805E1010E5F6EB3
:100B3000320E606FE1DF4F50320805E1010E5F6E4B
:100B4000320E606FD9DF4F50640805E1010E5F6E11
:100B5000320E606FD1DF4F50960805E1010E5F6ED7
:100B6000320E606FC9DF4F50C80802E24F6AA3908F
:100B7000A49042EF00F0180E926EE70E806E93681C
:100B8000F19E8168300E946E826A956AF00E836ED3
:100B9000966A8468F086F088C00EF212F18AF188B5
:100BA000F090F092F2949E90A490140EB66E310ED6
:100BB000606E65686468676A666A676A666AC10EBD
:100BC000D56ED76A050ED66EB50ECD6EE70ECF6E1A
:100BD000960ECE6E190EB76ECF0E886E2B0E876EE8
:100BE00090EF0AF096949496949482868494000EE2
:100BF0000609CA6EFA0ECB6E94948B940C0EBD6EE1
:100C00005BC002F05AC001F00232013202320132FE
:100C1000023201C0BEFF02320230300B006EBD5006
:100C2000CF0B0010BD6E1200969294909492849215
:100C30008290000E0609CA6EFA0ECB6E94928B92C9
:100C40000C0EBA6E5BC002F05AC001F002320132E3
:100C500002320132023201C0BBFF02320230300BDD
:100C6000006EBA50CF0B0010BA6E1200A3909D9088
:100C7000F29A596A040E5A6E166AF2BE168EF29EE7
:100C8000FA0E636F25DF16BEF28E5A2EF5D7166A5E
:100C9000F2BE168EF29E010E5F6E640E606F2CDF48
:100CA00016BEF28E596A59504F0820E381BE13D008
:100CB00080908092040E5A6E166AF2BE168EF29ED4
:100CC000FA0E636F05DF16BEF28E5A2EF5D78490AA
:100CD000809A640E596E166AF2BE168EF29E0A0E45
:100CE000636FF6DE16BEF28E592ADDD7020E5A6EFB
:100CF000166AF2BE168EF29EFA0E636FE9DE16BE1B
:100D0000F28E5A2EF5D781A606D0010E5B6EAE0E7E
:100D10005A6E68DFF8D7D0EC00F081A206D0010E41
:100D20005B6EC20E5A6E80DFF8D7E0EC00F0166AF8
:100D3000F2BE168EF29E010E5F6E640E606FDCDEF8
:100D400016BEF28E8084808080828480808A959A0C
:100D5000959C838A838CF28A528081AA04D0838AEC
:100D60001E0E516EFAD7516A020E5A6E166AF2BE04
:100D7000168EF29E960E636FABDE16BEF28E5A2E64
:100D8000F5D781BA04D0839A320E516EFAD7516AE0
:100D9000166AF2BE168EF29E010E5F6E640E606FD2
:100DA000ABDE16BEF28EF29A838C838A166AF2BE8E
:100DB000168EF29E010E5F6E640E606F9DDE16BE93
:100DC000F28E676A666A186A176A396A3A6A3C6A12
:100DD0003B6A3E6A3D6A556AC80E4F6EA380120098
:100DE000A390040E586E166AF2BE168EF29EFA0E8C
:100DF000636F6EDE16BEF28E582EF5D7166AF2BEFF
:100E0000168EF29E020E5F6E640E606F75DE16BE69
:100E1000F28E81BCFED7166AF2BE168EF29E640E6A
:100E2000636F56DE16BEF28E81BC01D08094166AC6
:100E3000F2BE168EF29E640E636F4ADE16BEF28E0E
:100E400081ACFED7080E586E166AF2BE168EF29E60
:100E5000FA0E636F3DDE16BEF28E582EF5D781BCBA
:100E6000FED781BC01D08084C80E4F6EA380D3EF23
:100E70000AF096929490949282808492000E0609D1
:100E8000CA6EFA0ECB6E94928B920C0EBA6E5AC04A
:100E900002F059C001F00232013202320132023254
:100EA00001C0BBFF02320230300B006EBA50CF0BD4
:100EB0000010BA6E1200969494969494829684943C
:100EC000000E0609CA6EFA0ECB6E94948B940C0E2B
:100ED000BD6E5AC002F059C001F002320132023236
:100EE0000132023201C0BEFF02320230300B006E0E
:100EF000BD50CF0B0010BD6E8EEF08F0586AA39066
:100F0000F29A040E596E166AF2BE168EF29EFA0E10
:100F1000636FDEDD16BEF28E592EF5D7166AF2BE6D
:100F2000168EF29E030E5F6E640E606FE5DD16BED8
:100F3000F28E000E0609CA6EFA0ECB6E94948B9454
:100F40000C0EBD6E94928B92BA6E808480808082EB
:100F50008480808A80908092030E556E9D803E6AC8
:100F6000F00E3D6E010E3C6E180E3B6E8490809A22
:100F700081BEFED78480166AF2BE168EF29E010EE6
:100F80005F6E640E606FB8DD16BEF28E81BCFED758
:100F9000020E556E010E3E6E0E0E3D6E18BE07D04F
:100FA0001850010805E303E117500D08D8B0F6D733
:100FB000556A020E5A6EBC0E596E5BDF586A585065
:100FC000030837E381B4FED781B40ED0808AE0EC09
:100FD00000F0166AF2BE168EF29E010E5F6E640E6F
:100FE000606F8ADD16BEF28E166AF2BE168EF29E13
:100FF0001E0E636F6DDD16BEF28E81A418D0809A2E
:10100000010E5B6EF40E5A6E0FDE040E596E166AF8
:10101000F2BE168EF29EC80E636F5ADD16BEF28EB9
:10102000592EF5D7030E5A6E840E596E22DF582AB8
:10103000C6D7808AE0EC00F0040E596E166AF2BE44
:10104000168EF29EFA0E636F43DD16BEF28E592E97
:10105000F5D78490010E556E3C6AFA0E3B6E9D806A
:1010600067CF01F066CF00F067CF03F00350015C5B
:1010700002E066CF00F00050596E03C05AF05A5299
:1010800003E15950FA0801E2EBD73C6A0A0E3B6EC5
:101090003E6A3D6A030E556E67CF01F066CF00F0E1
:1010A00067CF03F00350015C02E066CF00F0005010
:1010B000596E03C05AF05A5203E159500A0801E22E
:1010C000EBD7556A020E5B6EBC0E5A6E8BDD586A0A
:1010D0005850030837E381B0FED781B00ED084802A
:1010E000D0EC00F0166AF2BE168EF29E010E5F6E14
:1010F000640E606F01DD16BEF28E166AF2BE168EA9
:10110000F29E1E0E636FE4DC16BEF28E81A018D034
:101110008490010E5A6EF40E596ECDD6040E596E9F
:10112000166AF2BE168EF29EC80E636FD1DC16BE32
:10113000F28E592EF5D7030E5B6E840E5A6E52DD79
:10114000582AC6D78480D0EC00F0040E596E166A77
:10115000F2BE168EF29EFA0E636FBADC16BEF28EE7
:10116000592EF5D7809A020E556E3E6A1E0E3D6EC0
:101170009D8018BE05D0185204E117501D08D8B044
:10118000F8D7010E3C6E180E3B6E010E3E6E0E0E31
:101190003D6E030E556E18BE07D01850010805E3CA
:1011A00003E117500D08D8B0F6D7556A020E5A6EF3
:1011B000BC0E596E5EDE586A5850030837E381B49E
:1011C000FED781B40ED0808AE0EC00F0166AF2BE41
:1011D000168EF29E010E5F6E640E606F8DDC16BE81
:1011E000F28E166AF2BE168EF29E1E0E636F70DCD1
:1011F00016BEF28E81A418D0809A010E5B6EF40E9A
:101200005A6E12DD040E596E166AF2BE168EF29EEA
:10121000C80E636F5DDC16BEF28E592EF5D7030E35
:101220005A6E840E596E25DE582AC6D7808AE0ECA5
:1012300000F0040E596E166AF2BE168EF29EFA0E79
:10124000636F46DC16BEF28E592EF5D78490010EE0
:10125000556E3C6AFA0E3B6E9D8067CF01F066CFFB
:1012600000F067CF03F00350015C02E066CF00F0AE
:101270000050596E03C05AF05A5203E15950FA080F
:1012800001E2EBD7556A81BCFED781BEFED781BE95
:101290000ED0809A020E596E166AF2BE168EF29E1B
:1012A000C80E636F15DC16BEF28E592EF5D781BEBF
:1012B000FED781BE0ED0020E596E166AF2BE168E91
:1012C000F29EC80E636F04DC16BEF28E592EF5D75F
:1012D000CDDCC80E4F6EA380E6EF0AF0A3909D9080
:1012E000040E596E166AF2BE168EF29EFA0E636FE7
:1012F00068EC05F016BEF28E592EF4D7166AF2BECF
:10130000168EF29E040E5F6E640E606F7CEC05F02C
:1013100016BEF28E959A959C838A838C81BCFED7EB
:10132000166AF2BE168EF29E640E636F68EC05F0CC
:1013300016BEF28E5280F28A809481A804D0839ADD
:10134000500E516EFAD7838A516A166AF2BE168E13
:10135000F29E010E5F6E640E606F7CEC05F016BEAF
:10136000F28E586A585002082AE381AA04D0838A70
:10137000500E516EFAD7839A516A166AF2BE168ED3
:10138000F29E010E5F6E640E606F7CEC05F016BE7F
:10139000F28E81A804D0839A550E516EFAD7838AB3
:1013A000516A166AF2BE168EF29E010E5F6E640ED0
:1013B000606F7CEC05F016BEF28E582AD3D7040E6F
:1013C000596E166AF2BE168EF29EC80E636F68ECF6
:1013D00005F016BEF28E592EF4D781AA04D0838A66
:1013E000500E516EFAD7839A516A166AF2BE168E63
:1013F000F29E010E5F6E640E606F7CEC05F016BE0F
:10140000F28E81A804D0839A550E516EFAD7838A42
:10141000516A166AF2BE168EF29E010E5F6E640E5F
:10142000606F7CEC05F016BEF28E81AA04D0838A30
:10143000500E516EFAD7839A516A166AF2BE168E12
:10144000F29E010E5F6E640E606F7CEC05F016BEBE
:10145000F28E81BA04D0839A3C0E516EFAD7516A4B
:10146000166AF2BE168EF29E010E5F6E640E606FFB
:101470007CEC05F016BEF28E8084838C838A5290B9
:101480000A0E516E166AF2BE168EF29E030E5F6E43
:10149000640E606F7CEC05F016BEF28E81BCFED748
:1014A000F29AC80E4F6EA380F9EF0AF0F86AD09E48
:1014B000078E1C6A1B6A1A6A800E196ECD0E206E8A
:1014C000CC0E1F6E4C0E1E6E7C0E1D6E330E246EE7
:1014D000236E226E7E0E216E306A2F6A346A336A62
:1014E000366A356A020E406E580E3F6E020E426E2C
:1014F000760E416E466A456A4A6A496A4C6A4B6A88
:101500004F6A506A640E516E5290546A536A566A1A
:10151000576AB990C19CC19E000EB86EBBEF05F032
:10152000186A176A396A3A6A3C6A3B6A3E6A3D6AD7
:10153000166AF2BE168EF29E020E5F6E640E606F29
:101540007CEC05F016BEF28E81BE10D0A3804F6AEF
:10155000010E576E166AF2BE168EF29E0A0E636F69
:1015600068EC05F016BEF28E81AEFED7572C42D045
:101570004F50310805E3A390576A4F6A36EC06F0E6
:101580004F50320802E3000E01D0010E586E4F504A
:10159000630802E2000E01D0010E581404E0A3908B
:1015A000576A4F6A1DD44F50640802E3000E01D001
:1015B000010E586E4F50950802E2000E01D0010E48
:1015C000581404E0A390576A4F6A98D44F50960875
:1015D00002E3000E01D0010E586E4F50C70802E220
:1015E000000E01D0010E581404E0A390576A4F6A10
:0815F00075D6BCD7A9D7030092
:020000040030CA
:0E00000000C60D3E3C9D81000FC00FE00F407A
:00000001FF
;PIC18F4431
;CRC=0EFA  CREATED="29-Mar-14 22:59"
