:0400000083EF00F09A
:08000800046ED8CF05F0E0CF33
:1000100006F00001E9CF0CF0EACF07F0E1CF08F0DD
:10002000E2CF09F0D9CF0AF0DACF0BF0F3CF12F01C
:10003000F4CF13F0FACF14F000C00EF001C00FF0AF
:1000400002C010F003C011F0F2AA2AEF00F0F2B4DF
:100050004BEF00F00EC000F00FC001F010C002F036
:1000600011C003F00CC0E9FF07C0EAFF078E08C00B
:10007000E1FF09C0E2FF0AC0D9FF0BC0DAFF12C0DE
:10008000F3FF13C0F4FF14C0FAFF045006C0E0FFF2
:1000900005C0D8FF1000D76A050ED66E162A165076
:1000A000C70803E2166A949E8B8E1750165C02E313
:1000B000949E8B9EF2942AEF00F0EA6A1C0EE96E81
:1000C000EF500EE00C0E016E006A002EFED7012EDE
:1000D000FBD7F70E006E002EFED700D0EF2EF2D722
:1000E00012001A6A18501A5C0DE2959E839E1E0E2D
:1000F0001C6EE3DF838E1E0E195C1B6E1C6EDDDF33
:100100001A2AF0D71200F86AD09E078EB990C19CC7
:10011000C19E000EB86EF28AC00EF212F294C10EA9
:10012000D56ED76A050ED66E0A0E176E0C0E186EB7
:10013000FA0E1C6EC2DF182EFBD7010E186E640E6D
:10014000196ECFDF0F0E176E0C0E186EFA0E1C6EA6
:10015000B4DF182EFBD7010E186E640E196EC1DFC6
:10016000140E176E0C0E186EFA0E1C6EA6DF182EEB
:10017000FBD7010E186E640E196EB3DFD5D70300DE
:020000040030CA
:0E00000000C20C3E3C9D81000FC00FE00F407F
:00000001FF
;PIC18F4431
;CRC=241A  CREATED="26-Mar-14 13:13"
