:040000007CEF00F0A1
:08000800046ED8CF05F0E0CF33
:1000100006F00001E9CF0CF0EACF07F0E1CF08F0DD
:10002000E2CF09F0D9CF0AF0DACF0BF0F3CF12F01C
:10003000F4CF13F0FACF14F0F5CF15F0F6CF16F099
:10004000F7CF17F000C00EF001C00FF002C010F0A3
:1000500003C011F0F2AA30EF00F0F2B457EF00F055
:100060000EC000F00FC001F010C002F011C003F08C
:100070000CC0E9FF07C0EAFF078E08C0E1FF09C016
:10008000E2FF0AC0D9FF0BC0DAFF12C0F3FF13C0B2
:10009000F4FF14C0FAFF15C0F5FF16C0F6FF17C035
:1000A000F7FF045006C0E0FF05C0D8FF1000D76A74
:1000B000050ED66E192A1950C70803E2196A959ED3
:1000C0008C8E1A50195C02E3959E8C9EF29430EF50
:1000D00000F0EA6A1C0EE96EEF500DE0060E016EAC
:1000E000006A002EFED7012EFBD77B0E006E002E7D
:1000F000FED7EF2EF3D7000CF86AD09E078EEA6A7F
:10010000E96AB990C19CC19E000EB86E956A836A77
:10011000F28AF294C00EF212D56ED76A050ED66E30
:100120000A0E1A6E080E1B6EFA0E1C6ED2DF1B2E04
:10013000FBD70F0E1A6E080E1B6EFA0E1C6EC9DF6F
:100140001B2EFBD7140E1A6E080E1B6EFA0E1C6EB9
:0A015000C0DF1B2EFBD7E4D703002D
:020000040030CA
:0E00000000C20E3E3C9D81000FC00FE00F407D
:00000001FF
;PIC18F4431
;CRC=68F3  CREATED="17-Mar-14 19:29"
