:10000000ABEF01F0EA6A230EE96EEF500EE00C0E42
:10001000016E006A002EFED7012EFBD7F70E006E90
:10002000002EFED700D0EF2EF2D7000C959E839EB7
:100030001E0E236EE7DF838E460E236EE3DF000C79
:10004000246A0A6A8386246A2450070842E323C08C
:1000500000F02450016E04E0D8900032012EFCD74D
:1000600000A002D0838201D08392210E006E002E68
:10007000FED78396210E006E002EFED783A426D0D5
:10008000245202E1010E0A6E242C02D0020E0A262E
:100090002450020802E1040E0A262450030802E15B
:1000A000080E0A262450040802E1100E0A262450E5
:1000B000050802E1200E0A262450060802E1400E3F
:1000C0000A262450070802E1800E0A268386242A85
:1000D000BBD7000C8380838683828384958495902C
:1000E000959695928390010E236EAADF420E236EA1
:1000F000A7DF0AC00BF0236AA3DF236AA1DF0AC0CF
:100100000CF0236A9DDF0AC00DF0236A99DF0AC054
:100110000EF0236A95DF0AC00FF0236A91DF0AC050
:1001200010F0236A8DDF0AC011F083800C50010BA0
:10013000126E0C50020B006ED8900030186E0C50EE
:10014000040B006E0030196E19323F0E19160C5058
:10015000080B006E0030136E133213321F0E13168D
:100160000C50100B006E0038146E0F0E14160C504D
:10017000200B006E0038176E1732070E17160C5042
:10018000400B006E0038156E15321532030E151631
:100190000C50800B166AE8BE16800D50010B1C6EC9
:1001A0000D50020B006ED89000301D6E0D50040BE8
:1001B000006E00301A6E1A323F0E1A160D50080BE0
:1001C000006E00301B6E1B321B321F0E1B160D50B3
:1001D000100B006E00381E6E0F0E1E160D50200BF9
:1001E000006E00381F6E1F32070E1F160D50400B99
:1001F000006E0038206E20322032030E20160D5083
:10020000800B216AE8BE2180000C959A949094920C
:10021000839A8290000E0409CA6EF90ECB6E8B92FF
:100220000C0EBA6E24C002F023C001F0023201327B
:1002300002320132023201C0BBFF02320230300B07
:10024000006EBA50CF0B0010BA6E16EF02F0959AFE
:1002500094909492838A8290000E0409CA6EF90EDB
:10026000CB6E8B920C0EBA6EBB6A000C959A949072
:1002700094928280839A000E0409CA6EF90ECB6EA6
:100280008B920C0EBA6E24C002F023C001F0023231
:10029000013202320132023201C0BBFF02320230AF
:1002A000300B006EBA50CF0B0010BA6E2CEF02F07C
:1002B00095989496949482868398000E0409CA6E49
:1002C000F90ECB6E8B940C0EBD6E24C002F023C0D1
:1002D00001F00232013202320132023201C0BEFFAD
:1002E00002320230300B006EBD50CF0B0010BD6EDD
:1002F00042EF02F0959894969494000E0409CA6E09
:10030000F90ECB6E8B940C0EBD6EBE6A83888296FE
:10031000000C95989496949482968398000E040904
:10032000CA6EF90ECB6E8B940C0EBD6E24C002F01B
:1003300023C001F00232013202320132023201C026
:10034000BEFF02320230300B006EBD50CF0B0010EA
:10035000BD6E58EF02F0F86AD09EEA6AE96AB99079
:10036000C19CC19E000EB86E046A056A5FDE226AF7
:10037000926AFF0E936EF19E946A040E956E966AD1
:10038000838A8388808A808080828084848084823B
:1003900082968294829082929DDE1E520DE146DE0C
:1003A000000E84B2010E010A016EE8A08492E8B04A
:1003B0008482C80E236E26DE1F520DE137DE000E4A
:1003C00084B0010E010A016EE8A08490E8B0848038
:1003D000C80E236E17DE20520DE128DE000E80B01D
:1003E000010E010A016EE8A08090E8B08080C80E7E
:1003F000236E08DE21520DE119DE000E80B4010EDD
:10040000010A016EE8A08094E8B08084C80E236ED3
:10041000F9DD145214E10ADE010E226E146E222C54
:100420000AD0010E246E900E236EEFD653DE142CEC
:1004300001D0226AF4D70BDF640E236EE3DD155280
:1004400014E1F4DD010E226E156E222C0AD0010E8D
:10045000246E900E236E0AD73DDE152C01D0226A41
:10046000F4D7F5DE640E236ECDDD165214E1DEDD29
:10047000010E226E166E222C0AD0010E246E900EF2
:10048000236E16D727DE162C01D0226AF4D732DF6E
:10049000640E236EB7DD175214E1C8DD010E226E23
:1004A000176E222C0AD0010E246E900E236E31D7C7
:1004B00011DE172C01D0226AF4D71CDF640E236EE4
:0604C000A1DD6AD7030074
:020000040030CA
:0E00000000C60E3E3C9D81000FC00FE00F4079
:00000001FF
;PIC18F4431
;CRC=0262  CREATED="14-Mar-14 11:03"
