:0400000008EF02F013
:08000800046ED8CF05F0E0CF33
:1000100006F00001E9CF0CF0EACF07F0E1CF08F0DD
:10002000E2CF09F0D9CF0AF0DACF0BF0F3CF12F01C
:10003000F4CF13F0FACF14F000C00EF001C00FF0AF
:1000400002C010F003C011F09DA62AEF00F09EB68A
:100050004BEF00F00EC000F00FC001F010C002F036
:1000600011C003F00CC0E9FF07C0EAFF078E08C00B
:10007000E1FF09C0E2FF0AC0D9FF0BC0DAFF12C0DE
:10008000F3FF13C0F4FF14C0FAFF045006C0E0FFF2
:1000900005C0D8FF1000C730FEE3C950036A166ED2
:1000A00003C017F09E962AEF00F00C78756E67205B
:1000B00025356C640000EA6A220EE96EEF500DE00F
:1000C000060E016E006A002EFED7012EFBD77B0EB6
:1000D000006E002EFED7EF2EF3D7120029B002D00B
:1000E0008A9001D08A80939029B202D08A9201D05E
:1000F0008A82939229B402D08A9401D08A849394FC
:1001000029B602D08A9601D08A86939600008C8EFA
:10011000959E020E006E002EFED700D000008C9E31
:10012000959E12002A6A9380000E81B0010E2A1259
:100130009382000E81B2010E006ED89000360050FE
:100140002A129384000E81B4010E006E0036003630
:10015000FC0E001600502A129386000E81B6010E86
:10016000006E003600360036F80E001600502A12D7
:100170002AC001F0120093809382938493868C8C22
:10018000959C00008C8E959E0000CCDF01C029F06C
:100190008C9E959E00008C8E959E00D000D0000015
:1001A000C1DF01C028F08C9E959E9390939293940A
:1001B00093962938006EF00E001600502810016E3C
:1001C000E8EF00F0959E959A959C8C9A959AD3D7D6
:1001D00001C028F001BEFBD7265202E18C9A01D063
:1001E0008C8A959A00008C9C959C00008C9E959E14
:1001F0002738286E0F0E281628C029F06FDF2750E9
:100200000F0B286E296E6ADF1200280E196E0C0E75
:100210001A6E010E1B6E060E1C6E8C9E959E8C9A9D
:10022000959A8C9C959C9390939293949396959E7B
:10023000959A959C0F0E226E3EDF010E186E185097
:10024000030808E3030E296E49DF050E226E33DF33
:10025000182AF5D7020E296E41DF050E226E2BDF1C
:10026000186A185003080FE3036A1850190FE96E53
:10027000000E0320EA6EEFCF1DF0266A1DC027F0A6
:10028000A1DF182AEED713EF02F0232C01D003D000
:10029000400E246E01D0246A010E225C24262450D4
:1002A0008009256E266A276E8DDF12002150070A0D
:1002B00007E00B0A0AE0060A10E0020A14E018D070
:1002C000010E226E236EE1DF18D0266A010E276E22
:1002D00079DF020E226EEFDE10D0010E226E020ECA
:1002E000236ED3DF0AD0266A100E276E6BDF05D08F
:1002F000010E266E21C027F065DF12000900F6CF3F
:1003000019F0F7CF1AF0F5CF21F0D0DF19C0F6FFC2
:100310001AC0F7FF182EF2D727EF02F0EACF20F02D
:10032000E9CF1FF019AE08D01F8E1FA81F2A181E74
:10033000191E182AD8B4192A1938F0091B6E1B2661
:10034000E20F1C6E320F1E6E19500F0B1C261C265E
:100350001E26E90F1D6E1D261D2618380F0B1D26A3
:100360001E261D361E361E1E1E3618500F0B1E264C
:100370001B36070E1A6E0A0E1D061E26FDE31C060E
:100380001D26FDE31B061C26FDE31A061B26FDE3C6
:10039000EA6A1A0EE96E070E1F141F9CED521F1415
:1003A00007E11FB8EE521FB803D0200E006E20D018
:1003B000E926000EEA22E9501E0803E1EA5201E1B3
:1003C0001F8CEF50006E08E11FBC06D01FB81BD079
:1003D0001FB602D0200E0BD01FAE06D02D0E006E21
:1003E000ED501F9C1F9E04D01F861F98300E0026C4
:1003F000EACF19F0E9CF18F000C021F057DF19C09B
:10040000EAFF18C0E9FFEE501FACD5D72EEF02F07F
:10041000F86AD09E078E176A166AB990C19CC19E71
:10042000000EB86EF2D6C69A949E9488948C948AE4
:10043000240EC66E000EC76E9D869E96C00EF212EA
:10044000AA0EF66E000EF76E060E186E57D7010E46
:10045000E96E17C019F016C018F060D70A0E226EA8
:060460002ADEEED70300C6
:020000040030CA
:0E00000000C20E3E3C9981000FC00FE00F4081
:00000001FF
;PIC18F4431
;CRC=5765  CREATED="01-Apr-14 22:04"
