:04000000A6EF06F071
:08000800046ED8CF05F0E0CF33
:1000100006F00001E9CF0CF0EACF07F0E1CF08F0DD
:10002000E2CF09F0D9CF0AF0DACF0BF0F3CF12F01C
:10003000F4CF13F0FACF14F0F5CF15F0F6CF16F099
:10004000F7CF17F000C00EF001C00FF002C010F0A3
:1000500003C011F0F2AA30EF00F0F2B4AFEF00F0FD
:100060009DA036EF00F09EB0E0EF04F0F0A63CEF6C
:1000700000F0F0B06FEF00F0F0A842EF00F0F0B247
:100080008FEF00F0A3A048EF00F0A4B021EF05F03F
:100090000EC000F00FC001F010C002F011C003F05C
:1000A0000CC0E9FF07C0EAFF078E08C0E1FF09C0E6
:1000B000E2FF0AC0D9FF0BC0DAFF12C0F3FF13C082
:1000C000F4FF14C0FAFF15C0F5FF16C0F6FF17C005
:1000D000F7FF045006C0E0FF05C0D8FF1000000E77
:1000E000F1AA010EF19AE8B0F18AF1AA0BD082AA26
:1000F00005D02050D8B42106200603D0202AD8B439
:10010000212A0AD082AA04D0202AD8B4212A04D0D5
:100110002050D8B421062006F09048EF00F0000EE1
:10012000F1A8010EF198E8B0F188F1A80BD082A8EF
:1001300004D0202AD8B4212A04D02050D8B42106D3
:1001400020060AD082A805D02050D8B42106200667
:1001500003D0202AD8B4212AF09248EF00F0D76AC1
:10016000050ED66E5A2A5A50C70802E25A6A8C8C7B
:100170005B505A5CD8B08C9CF29448EF00F08E0E25
:10018000006E6CC001F06BC002F0036A6CAF05D06A
:10019000011E021E022A01E1012A015209E102C0E8
:1001A00001F0026A080E005E015202E1006A0AD004
:1001B000D89001BE04D0023601360006F9D76CBFD4
:1001C00001D0019E000C6B51D8B471D0006E6F51FC
:1001D000D8B46DD0002604E3810E002668E204D076
:1001E0007F0E005E64E363E06CC073F07051731BBC
:1001F0006C8F708F6E517203F4CF75F06D51710377
:10020000F4CF03F0F3CF74F07203F3507527F4507A
:100210007423000E03226E517103F3507527F450BE
:100220007423000E026A032202226C517203F350FF
:100230007427F4500322000E02226C517103F35014
:100240000326F4500222000E016A01226E5170034F
:10025000F3507427F4500322000E022201226D5144
:100260007003F3500326F4500222000E01226C5159
:100270007003F3500226F4500122002A01BE05D07B
:1002800074370336023601360006000E74AF0AD00A
:10029000032A02220122015005E1025003E103502A
:1002A00001E1002A73BF018E73AF019E04D0006A82
:1002B000016A026A036A000C800ED8B2701B756B6B
:1002C000766B6CC074F07051741B6B51D8B4DCD079
:1002D000736F006E6F51D8B4E0D0735FD8B481D023
:1002E0003DE370C079F0798F71C078F072C077F01B
:1002F000766BD8907933783377337633732FF8D79A
:1003000074AF03D07581DDD0759173917589EA6AF8
:100310006E0EE96EE9D0759974BF0AD073A113D03F
:100320007933783377337633002AD8B4C5D00BD0FD
:1003300079BF0CD0D8907637773778377937000681
:10034000D8B4BAD0F5D7758D6BD0759D6CC074F0EC
:100350006CAF02D0798FA9D0799FA7D06FC073F00E
:100360006FC000F06B51735F6CC079F0798F6DC016
:1003700078F06EC077F0766BD89079337833773336
:100380007633732FF8D774AF03D075839AD07593F3
:100390007391758BEA6A720EE96EA6D0759B74BF75
:1003A0000AD073A113D07933783377337633002AA8
:1003B000D8B482D00BD079BF0CD0D89076377737AD
:1003C000783779370006D8B477D0F5D7758F28D02D
:1003D000759F70C074F070AF02D0798F66D0799F2E
:1003E00064D070C079F0798F71C078F072C077F006
:1003F00074AF04D0799F758564D07595766B7391D1
:10040000EA6A6E0EE96E70D074BF1CD06CC074F0D6
:1004100073A106D07933783377337633002A4CE0F2
:1004200076AF0BD0772B09E1782B07E1792B05E12B
:10043000793378337733002A3FE075BD86D775BFAF
:10044000C7D71CD0800E791B79AF04D03AD070C0CA
:1004500074F00AD06CC074F0795306E1785304E16B
:10046000775302E1006A21D079BF08D0D89076375F
:10047000773778377937002EF7D71ED074AF02D090
:10048000798F13D0799F11D06FC000F070C079F0D0
:1004900071C078F072C077F008D06BC000F06CC00B
:1004A00079F06DC078F06EC077F079C001F078C057
:1004B00002F077C003F034D0006A016A026A036A6E
:1004C0002FD0766B771F781F791F761F762B05E16B
:1004D000772B03E1782B01E1792B75B115D775B333
:1004E00056D775B58AD7B3D7EF50772705E3782B62
:1004F00003E1792BD8B47381ED52EF50782703E3F1
:10050000792BD8B47381ED52EF50EFBE01D0800A41
:100510007927D8B0738175B9FED675BB3FD774D72C
:10052000000C8E0E006E6751005E68C002F069C05C
:1005300001F0028E005209E0D890025202E101520D
:1005400004E002320132002EF7D768AF05D0011E59
:10055000021E012AD8B4022A000C849466CF32F01D
:1005600067CF33F03250635D366E33506459376E67
:100570003E50010830E23A50365C386E3B503758F6
:10058000396E3E6A39AE08D03950FE0809E2FF0ADA
:1005900003E13850F60804E236503426375035224D
:1005A00035BE08D0355203E13450C80803E2356A3D
:1005B000C80E346E35AE0BD03550FF0808E303E1AA
:1005C0003450370804E3FF0E356E380E346E37C0F2
:1005D0003BF036C03AF037C06CF036C06BF0CFDD80
:1005E00025C06EF024C06DF023C06CF022C06BF00B
:1005F00003C072F002C071F001C070F000C06FF073
:10060000E2DD00C067F001C068F002C069F003C01D
:100610006AF035C06CF034C06BF0B1DD29C06EF00B
:1006200028C06DF027C06CF026C06BF003C072F0DC
:1006300002C071F001C070F000C06FF0C4DDD8924C
:100640006AC06EF069C06DF068C06CF067C06BF096
:1006500003C072F002C071F001C070F000C06FF012
:100660002BDE00C067F001C068F002C069F003C073
:100670006AF039C06CF038C06BF081DD2DC06EF0CF
:100680002CC06DF02BC06CF02AC06BF003C072F070
:1006900002C071F001C070F000C06FF094DDD8921C
:1006A0006AC06EF069C06DF068C06CF067C06BF036
:1006B00003C072F002C071F001C070F000C06FF0B2
:1006C000FBDD03C031F002C030F001C02FF000C0EC
:1006D0002EF031C06AF030C069F02FC068F02EC033
:1006E00067F01FDF02C03DF001C03CF03DBE06D008
:1006F0003D5203E13C500008D8A082963DAE01D0A7
:1007000082863DC003F03C503DAE08D0000ED8803C
:100710003C54006E000E3D54036E00503C6E03C00E
:100720003DF03DBE09D03D5203E13C50050804E2D6
:10073000C80E3C26000E3D2266AF03D03DAE0AD067
:1007400002D03DBE0BD066513D5C08E303E13C5056
:10075000655D04E266C03DF065C03CF03DC002F05E
:100760003CC001F00232013202320132023201C0D9
:10077000BEFF02320230300B006EBD50CF0B0010B6
:10078000BD6EEFEF04F0849221C049F020C048F024
:100790004850635D4C6E495064594D6E3F5001089E
:1007A00037E23F6A4DAE08D04D50FE0810E2FF0A16
:1007B00003E14C50EC080BE24DBE05D04D5207E171
:1007C0004C50130804E34C504A264D504B224BBE6C
:1007D00008D04B5203E14A50C80803E24B6AC80EE6
:1007E0004A6E4BAE0BD04B50FF0808E303E14A5072
:1007F000370804E3FF0E4B6E380E4A6E50504C5CC7
:100800004E6E51504D584F6E4DC051F04CC050F08F
:100810004DC06CF04CC06BF0B2DC25C06EF024C053
:100820006DF023C06CF022C06BF003C072F002C008
:1008300071F001C070F000C06FF0C5DC00C067F05F
:1008400001C068F002C069F003C06AF04BC06CF0F0
:100850004AC06BF094DC29C06EF028C06DF027C050
:100860006CF026C06BF003C072F002C071F001C0E2
:1008700070F000C06FF0A7DCD8926AC06EF069C05B
:100880006DF068C06CF067C06BF003C072F002C01E
:1008900071F001C070F000C06FF00EDD00C067F0B5
:1008A00001C068F002C069F003C06AF04FC06CF08C
:1008B0004EC06BF064DC2DC06EF02CC06DF02BC010
:1008C0006CF02AC06BF003C072F002C071F001C07E
:1008D00070F000C06FF077DCD8926AC06EF069C02B
:1008E0006DF068C06CF067C06BF003C072F002C0BE
:1008F00071F001C070F000C06FF0DEDC03C057F093
:1009000002C056F001C055F000C054F057C06AF064
:1009100056C069F055C068F054C067F002DE02C0EE
:1009200053F001C052F053BE06D0535203E152506F
:100930000008D8A0828053AE01D0829053C003F04B
:10094000525053AE08D0000ED8805254006E000EA4
:100950005354036E0050526E03C053F053BE09D07F
:10096000535203E15250050804E2C80E5226000E0D
:10097000532266AF03D053AE0AD002D053BE0BD081
:100980006651535C08E303E15250655D04E266C0C2
:1009900053F065C052F053C002F052C001F0023271
:1009A000013202320132023201C0BBFF0232023098
:1009B000300B006EBA50CF0B0010BA6EF8EF04F097
:1009C000E70ECF6E960ECE6E3E2A3F2A41C064F0EF
:1009D00040C063F045C066F044C065F0BED543C07A
:1009E00064F042C063F047C066F046C065F0CBD605
:1009F0009E9048EF00F0EA6A670EE96EEF500EE055
:100A00000C0E016E006A002EFED7012EFBD7F70EEA
:100A1000006E002EFED700D0EF2EF2D7000C656BD3
:100A20006351655D0DE2959E839E140E676FE3DF53
:100A3000838E140E645D666F676FDDDF652BF0D704
:100A4000000CCF0E886E2B0E876E582A5850020865
:100A500005E1010E636F320E646FE1DF585032081A
:100A600005E1010E636F320E646FD9DF58506408E0
:100A700005E1010E636F320E646FD1DF58509608A6
:100A800005E1010E636F320E646FC9DF5850C8086C
:100A900002E2586AA390A49048EF00F0180E926EFC
:100AA000E70E806EFF0E936EF19E816E300E946E97
:100AB000826A956AF00E836E966AFF0E846EF086E7
:100AC000F088C00EF212F18AF188F090F092F29460
:100AD0009E90A490140EB66E310E606EFF0E656E81
:100AE000646E676A666A676A666AC10ED56ED76A9F
:100AF000050ED66EB50ECD6EE70ECF6E960ECE6E8F
:100B0000190EB76ECF0E886E2B0E876EDEEF06F0D5
:100B100096949496949482868494000E0409CA6EE6
:100B2000F90ECB6E8B940C0EBD6E5FC002F05EC0F2
:100B300001F00232013202320132023201C0BEFF44
:100B400002320230300B006EBD50CF0B0010BD6E74
:100B500021EF06F0969494969494000E0409CA6EC0
:100B6000F90ECB6E8B940C0EBD6EBE6A8484829699
:100B700023EF06F096929490949284928290000EC5
:100B80000409CA6EF90ECB6E8B920C0EBA6E5FC062
:100B900002F05EC001F00232013202320132023252
:100BA00001C0BBFF02320230300B006EBA50CF0BD7
:100BB0000010BA6E35EF06F096929490949284826B
:100BC0008290000E0409CA6EF90ECB6E8B920C0E49
:100BD000BA6EBB6A37EF06F0A390586A080E5E6ED5
:100BE000196AF2BE198EF29EFA0E676F04DF19BE03
:100BF000F28E5E2EF5D7196AF2BE198EF29E010EA4
:100C0000636F640E646F0BDF19BEF28E596A3E6A21
:100C10003F6A809080928490809A080E5E6E196A76
:100C2000F2BE198EF29EFA0E676FE5DE19BEF28EE5
:100C30005E2EF5D781A606D0010E5F6E720E5E6E37
:100C400067D7F8D787D7196AF2BE198EF29E010EC0
:100C5000636F640E646FE3DE19BEF28E81A206D06C
:100C6000010E5F6E900E5E6E85D7F8D7A5D7196A14
:100C7000F2BE198EF29E010E636F640E646FCFDEBA
:100C800019BEF28E676A666A216A206A416A406A02
:100C9000436A426A8084808080828480808A03EFF5
:100CA00007F0A390586A080E5E6E196AF2BE198E9C
:100CB000F29EFA0E676F9FDE19BEF28E5E2EF5D79A
:100CC000196AF2BE198EF29E020E636F640E646F93
:100CD000A6DE19BEF28E14EF07F0A390586A080E34
:100CE0005E6E196AF2BE198EF29EFA0E676F83DE8F
:100CF00019BEF28E5E2EF5D7196AF2BE198EF29EDB
:100D0000030E636F640E646F8ADE19BEF28E9D90CF
:100D100025EF07F0A390586A080E5E6E196AF2BEBE
:100D2000198EF29EFA0E676F66DE19BEF28E5E2E87
:100D3000F5D7196AF2BE198EF29E040E636F640E27
:100D4000646F6DDE19BEF28E36EF07F0F86AD09E42
:100D5000078EEA6AE96A256A246A236A800E226E8F
:100D6000CD0E296ECC0E286E4C0E276E7C0E266E94
:100D7000330E2D6E2C6E2B6E7E0E2A6E356A346A03
:100D8000396A386A3B6A3A6A030E456E840E446ECD
:100D9000030E476E980E466E4B6A4A6A4F6A4E6A59
:100DA000516A506A586A596A5C6A5D6AB990C19C16
:100DB000C19E000EB86E1A6A1B6A70D6596A196A0B
:100DC000F2BE198EF29E020E636F640E646F27DE10
:100DD00019BEF28E81BE10D0A380586A010E5D6EDE
:100DE000196AF2BE198EF29E0A0E676F04DE19BEF2
:100DF000F28E81BE01D0FDD75D2C39D0585031081C
:100E000002E35D6AE9D65850320802E3000E01D0D1
:100E1000010E5E6E5850630802E2000E01D0010E12
:100E20005E1402E05D6A3DD75850640802E3000E8C
:100E300001D0010E5E6E5850950802E2000E01D0FE
:100E4000010E5E1402E05D6A48D75850960802E32E
:100E5000000E01D0010E5E6E5850C70802E2000E6F
:100E600001D0010E5E1402E05D6A54D7C5D7B2D737
:020E700003007D
:020000040030CA
:0E00000000C60C3E3C9D81000FC00FE00F407B
:00000001FF
;PIC18F4431
;CRC=4B0A  CREATED="24-Mar-14 12:01"
