:1000000015EF00F0EA6A0D0EE96EEF500DE0060EF6
:10001000016E006A002EFED7012EFBD77B0E006E0C
:10002000002EFED7EF2EF3D7000CF86AD09EEA6AB6
:10003000E96AB990C19CC19E000EB86E046A056A57
:10004000936A946A966AFF0E816E826A846E0B6A66
:100050000A6A0B524FE10A5008084CE3FE0E816E0B
:10006000020E0C6EFA0E0D6ECDDF0C2EFBD7FD0EC0
:10007000816E020E0C6EFA0E0D6EC4DF0C2EFBD7D5
:10008000FB0E816E020E0C6EFA0E0D6EBBDF0C2E97
:10009000FBD7F70E816E020E0C6EFA0E0D6EB2DFFC
:1000A0000C2EFBD7EF0E816E020E0C6EFA0E0D6E4B
:1000B000A9DF0C2EFBD7DF0E816E020E0C6EFA0E3E
:1000C0000D6EA0DF0C2EFBD7BF0E816E020E0C6EE4
:1000D000FA0E0D6E97DF0C2EFBD77F0E816E020E8F
:1000E0000C6EFA0E0D6E8EDF0C2EFBD70A2AD8B4DA
:0800F0000B2AAFD7ACD70300C7
:020000040030CA
:0E00000000C20E3E3C9D81000FC00FE00F407D
:00000001FF
;PIC18F4431
;CRC=217E  CREATED="04-Mar-14 13:29"
