:0400000010EF02F00B
:08000800046ED8CF05F0E0CF33
:1000100006F00001E9CF0CF0EACF07F0E1CF08F0DD
:10002000E2CF09F0D9CF0AF0DACF0BF0F3CF12F01C
:10003000F4CF13F0FACF14F0F5CF15F0F6CF16F099
:10004000F7CF17F000C00EF001C00FF002C010F0A3
:1000500003C011F0F2AA30EF00F0F2B4A9EF00F003
:100060009DA036EF00F09EB0B0EF00F0F0A63CEFA0
:1000700000F0F0B069EF00F0F0A842EF00F0F0B24D
:1000800089EF00F00EC000F00FC001F010C002F0C8
:1000900011C003F00CC0E9FF07C0EAFF078E08C0DB
:1000A000E1FF09C0E2FF0AC0D9FF0BC0DAFF12C0AE
:1000B000F3FF13C0F4FF14C0FAFF15C0F5FF16C01C
:1000C000F6FF17C0F7FF045006C0E0FF05C0D8FFD9
:1000D0001000000EF1AA010EF19AE8B0F18AF1AA1F
:1000E0000BD082AA04D01F2AD8B4202A04D01F50D3
:1000F000D8B420061F060AD082AA05D01F50D8B453
:1001000020061F0603D01F2AD8B4202AF09042EF01
:1001100000F0000EF1A8010EF198E8B0F188F1A806
:100120000BD082A805D01F50D8B420061F0603D0DC
:100130001F2AD8B4202A0AD082A804D01F2AD8B4F3
:10014000202A04D01F50D8B420061F06F09242EF98
:1001500000F0C30ED76E500ED66EF29442EF00F050
:100160000B0ECF6EDB0ECE6E9E9042EF00F0180E9F
:10017000926EFF0E936EF19E300E946E040E956E8D
:10018000966AF086F088F28A9D80C00EF212F18A9B
:10019000F188F090F092F2949E90140EB66E310EAB
:1001A000606EFF0E656E646E676A666A676A666A8D
:1001B000840ED56EC30ED76E500ED66EB50ECD6EB4
:1001C0000B0ECF6EDB0ECE6EC69A210EC66E000EE3
:1001D000C76E21EF02F0EA6A2A0EE96EEF500EE0D8
:1001E0000C0E016E006A002EFED7012EFBD7F70E13
:1001F000006E002EFED700D0EF2EF2D7000C286A3A
:100200002650285C0DE2959E839E1E0E2A6EE3DF2B
:10021000838E1E0E275C296E2A6EDDDF282AF0D71A
:10022000000C95989496949482868398000E040905
:10023000CA6EF90ECB6E8B940C0EBD6E27C002F009
:1002400026C001F00232013202320132023201C014
:10025000BEFF02320230300B006EBD50CF0B0010DB
:10026000BD6E000C959894969494000E0409CA6E85
:10027000F90ECB6E8B940C0EBD6EBE6A838882968F
:10028000000C959A94909492839A8290000E04099F
:10029000CA6EF90ECB6E8B920C0EBA6E27C002F0AE
:1002A00026C001F00232013202320132023201C0B4
:1002B000BBFF02320230300B006EBA50CF0B001081
:1002C000BA6E000C959A94909492838A8290000E54
:1002D0000409CA6EF90ECB6E8B920C0EBA6EBB6A15
:1002E000000C81A006D0010E276E5E0E266E99DFEF
:1002F000F8D7B8DF81A406D0010E276E5E0E266EF9
:10030000C0DFF8D7DFDF676A666A206A1F6A808A03
:100310008080808280848480848257EF02F081A074
:1003200006D0010E276E5E0E266E7BDFF8D79ADFB1
:1003300081A406D0010E276E5E0E266EA2DFF8D7CE
:10034000C1DF676A666A206A1F6A80808082808453
:1003500084808482809A57EF02F081A006D0010E3B
:10036000276E5E0E266E5DDFF8D77CDF81A406D097
:10037000010E276E5E0E266E84DFF8D7A3DF676A54
:10038000666A206A1F6A808A808284808482809064
:100390008094040E266EAF0E2A6E1DDF262EFBD72C
:1003A00057EF02F081A006D0010E276E5E0E266E7A
:1003B00038DFF8D757DF81A406D0010E276E5E0E16
:1003C000266E5FDFF8D77EDF676A666A206A1F6A7B
:1003D000808A80808082808484808482040E266E5D
:1003E000FA0E2A6EF8DE262EFBD78092040E266EB9
:1003F000FA0E2A6EF0DE262EFBD78082040E266EC1
:10040000FA0E2A6EE8DE262EFBD78092040E266EA8
:10041000FA0E2A6EE0DE262EFBD7808257EF02F01E
:10042000F86AD09E078EEA6AE96A226A216A246A1B
:10043000236AB990C19CC19E000EB86E196A1A6AEF
:1004400096D6838A83888292829082948296808ACA
:1004500080808082808484808482206A1F6A020E69
:10046000266E640E276ECBDE010E255CFC0F1FE2AC
:10047000040F59EF02F0010E266E640E276EBFDEE8
:1004800030D715D0020E266E640E276EB8DE47D721
:100490000ED0030E266E640E276EB1DE5ED707D037
:1004A000040E266E640E276EAADE7CD700D0DCD741
:1004B0000300E824F76AF736CD0FF66E040EF72234
:1004C0000A00F550FA6E0800F550F96E76048404BF
:0404D0009204A004EE
:020000040030CA
:0E00000000C60C3E3C9D81000FC00FE00F407B
:00000001FF
;PIC18F4431
;CRC=BE25  CREATED="15-Mar-14 20:36"
