:0400000025EF0AF0EE
:08000800046ED8CF05F0E0CF33
:1000100006F00001E9CF0CF0EACF07F0E1CF08F0DD
:10002000E2CF09F0D9CF0AF0DACF0BF0F3CF12F01C
:10003000F4CF13F0FACF14F000C00EF001C00FF0AF
:1000400002C010F003C011F0F2AA2AEF00F0F2B4DF
:10005000A7EF00F09DA030EF00F09EB00FEF05F08D
:10006000F0A636EF00F0F0B063EF00F0F0A83CEF40
:1000700000F0F0B285EF00F0A3A042EF00F0A4B0D2
:1000800088EF05F00EC000F00FC001F010C002F0C4
:1000900011C003F00CC0E9FF07C0EAFF078E08C0DB
:1000A000E1FF09C0E2FF0AC0D9FF0BC0DAFF12C0AE
:1000B000F3FF13C0F4FF14C0FAFF045006C0E0FFC2
:1000C00005C0D8FF1000006AF1BA002A010E001A1C
:1000D000F19A00B0F18AF1AA0BD082AA05D01D5086
:1000E000D8B41E061D0603D01D2AD8B41E2A0AD075
:1000F00082AA04D01D2AD8B41E2A04D01D50D8B418
:100100001E061D06F09042EF00F0006AF1B8002ACA
:10011000010E001AF19800B0F188F1A80BD082A866
:1001200004D01D2AD8B41E2A04D01D50D8B41E06EF
:100130001D060AD082A805D01D50D8B41E061D0683
:1001400003D01D2AD8B41E2AF09242EF00F05B2A99
:10015000D8B45C2A5AA00ED0D76A050ED66E582A9B
:100160005850640802E2586A839C5950585C01E375
:10017000838C0DD0D76A050ED66E582A5850C70802
:1001800002E2586A8B8E5950585C01E38B9EF294C0
:1001900042EF00F0969494969494000E0509CA6E6E
:1001A000FA0ECB6E8B940C0EBD6EBE6A8484829662
:1001B000120096929490949284828290000E050987
:1001C000CA6EFA0ECB6E8B920C0EBA6EBB6A120020
:1001D0008E0E006E71C001F070C002F0036A71AF44
:1001E00005D0011E021E022A01E1012A015209E185
:1001F00002C001F0026A080E005E015202E1006ACC
:100200000AD0D89001BE04D0023601360006F9D7D4
:1002100071BF01D0019E12007051D8B471D0006E30
:100220007451D8B46DD0002604E3810E002668E234
:1002300004D07F0E005E64E363E071C078F0755116
:10024000781B718F758F73517703F4CF7AF07251E9
:100250007603F4CF03F0F3CF79F07703F3507A27E6
:10026000F4507923000E032273517603F3507A275A
:10027000F4507923000E026A03220222715177039F
:10028000F3507927F4500322000E022271517603B5
:10029000F3500326F4500222000E016A012273512A
:1002A0007503F3507927F4500322000E0222012235
:1002B00072517503F3500326F4500222000E0122FE
:1002C00071517503F3500226F4500122002A01BE39
:1002D00005D079370336023601360006000E79AFB5
:1002E0000AD0032A02220122015005E1025003E153
:1002F000035001E1002A78BF018E78AF019E04D03F
:10030000006A016A026A036A1200800ED8B2751B85
:100310007A6B7B6B71C079F07551791B7051D8B4D1
:10032000DCD0786F006E7451D8B4E0D0785FD8B468
:1003300081D03DE375C07EF07E8F76C07DF077C0C2
:100340007CF07B6BD8907E337D337C337B33782F8E
:10035000F8D779AF03D07A81DDD07A9178917A8914
:10036000EA6A730EE96EE9D07A9979BF0AD078A16A
:1003700013D07E337D337C337B33002AD8B4C5D091
:100380000BD07EBF0CD0D8907B377C377D377E3743
:100390000006D8B4BAD0F5D77A8D6BD07A9D71C0EB
:1003A00079F071AF02D07E8FA9D07E9FA7D074C0A4
:1003B00078F074C000F07051785F71C07EF07E8F6D
:1003C00072C07DF073C07CF07B6BD8907E337D3340
:1003D0007C337B33782FF8D779AF03D07A839AD0E8
:1003E0007A9378917A8BEA6A770EE96EA6D07A9B37
:1003F00079BF0AD078A113D07E337D337C337B3331
:10040000002AD8B482D00BD07EBF0CD0D8907B37D6
:100410007C377D377E370006D8B477D0F5D77A8F12
:1004200028D07A9F75C079F075AF02D07E8F66D0E4
:100430007E9F64D075C07EF07E8F76C07DF077C0E1
:100440007CF079AF04D07E9F7A8564D07A957B6BFF
:100450007891EA6A730EE96E70D079BF1CD071C0D2
:1004600079F078A106D07E337D337C337B33002A4C
:100470004CE07BAF0BD07C2B09E17D2B07E17E2B81
:1004800005E17E337D337C33002A3FE07ABD86D799
:100490007ABFC7D71CD0800E7E1B7EAF04D03AD067
:1004A00075C079F00AD071C079F07E5306E17D53B2
:1004B00004E17C5302E1006A21D07EBF08D0D890CD
:1004C0007B377C377D377E37002EF7D71ED079AF4C
:1004D00002D07E8F13D07E9F11D074C000F075C003
:1004E0007EF076C07DF077C07CF008D070C000F060
:1004F00071C07EF072C07DF073C07CF07EC001F0F0
:100500007DC002F07CC003F034D0006A016A026A48
:10051000036A2FD07B6B7C1F7D1F7E1F7B1F7B2B75
:1005200005E17C2B03E17D2B01E17E2B7AB115D710
:100530007AB356D77AB58AD7B3D7EF507C2705E37D
:100540007D2B03E17E2BD8B47881ED52EF507D27CF
:1005500003E37E2BD8B47881ED52EF50EFBE01D08B
:10056000800A7E27D8B078817AB9FED67ABB3FD789
:1005700074D712008E0E006E6C51005E6DC002F0DA
:100580006EC001F0028E005209E0D890025202E1E2
:10059000015204E002320132002EF7D76DAF05D0D0
:1005A000011E021E012AD8B4022A1200849467CFC9
:1005B00001F066CF00F067CF03F00350015C02E06A
:1005C00066CF00F00050336E03C034F03350685DE6
:1005D000376E34506959386E4C5203E14B50010864
:1005E00030E23B50375C396E3C5038583A6E4C6ABA
:1005F0004B6A3AAE08D03A50FE0809E2FF0A03E11E
:100600003950F60804E2375035263850362236BEC7
:1006100008D0365203E13550C80803E2366AC80EE6
:10062000356E36AE0AD03650FF0807E303E1355089
:10063000370803E33668380E356E38C03CF037C0F3
:100640003BF038C071F037C070F0C2DD22C073F0EB
:1006500021C072F020C071F01FC070F003C077F0AD
:1006600002C076F001C075F000C074F0D5DD03C0A3
:100670006FF002C06EF001C06DF000C06CF036C0CB
:1006800071F035C070F0A4DD26C073F025C072F0A3
:1006900024C071F023C070F003C077F002C076F080
:1006A00001C075F000C074F0B7DDD8926FC073F070
:1006B0006EC072F06DC071F06CC070F003C077F066
:1006C00002C076F001C075F000C074F01EDE03C0F9
:1006D0006FF002C06EF001C06DF000C06CF03AC067
:1006E00071F039C070F074DD2AC073F029C072F067
:1006F00028C071F027C070F003C077F002C076F018
:1007000001C075F000C074F087DDD8926FC073F03F
:100710006EC072F06DC071F06CC070F003C077F005
:1007200002C076F001C075F000C074F0EEDD03C0C9
:100730002EF002C02DF001C02CF000C02BF02EC016
:100740006FF02DC06EF02CC06DF02BC06CF012DF7E
:1007500002C03EF001C03DF03EBE06D03E5203E175
:100760003D50000801E282963EAE01D082863EC036
:1007700003F03D503EAE08D0000ED8803D54006ED0
:10078000000E3E54036E00503D6E03C03EF03EBE70
:1007900009D03E5203E13D50050804E2E60E3D2635
:1007A000000E3E226BAF03D03EAE0AD002D03EBE5A
:1007B0000BD06B513E5C08E303E13D506A5D04E2FF
:1007C0006BC03EF06AC03DF03EC002F03DC001F09B
:1007D0000232013202320132023201C0BEFF023265
:1007E0000230300B006EBD50CF0B0010BD6E1200FA
:1007F00084921EC040F01DC03FF03F50685D436EC4
:1008000040506959446E4E5203E14D50010830E2A8
:100810004750435C456E48504458466E4E6A4D6A98
:1008200046AE08D04650FE0809E2FF0A03E14550F3
:10083000F60804E2435041264450422242BE08D00A
:10084000425203E14150C80803E2426AC80E416EB9
:1008500042AE0AD04250FF0807E303E14150370897
:1008600003E34268380E416E44C048F043C047F08D
:1008700044C071F043C070F0ABDC22C073F021C003
:1008800072F020C071F01FC070F003C077F002C09A
:1008900076F001C075F000C074F0BEDC03C06FF0EC
:1008A00002C06EF001C06DF000C06CF042C071F08B
:1008B00041C070F08DDC26C073F025C072F024C0FA
:1008C00071F023C070F003C077F002C076F001C071
:1008D00075F000C074F0A0DCD8926FC073F06EC0E9
:1008E00072F06DC071F06CC070F003C077F002C0A0
:1008F00076F001C075F000C074F007DD03C06FF042
:1009000002C06EF001C06DF000C06CF046C071F026
:1009100045C070F05DDC2AC073F029C072F028C0B9
:1009200071F027C070F003C077F002C076F001C00C
:1009300075F000C074F070DCD8926FC073F06EC0B8
:1009400072F06DC071F06CC070F003C077F002C03F
:1009500076F001C075F000C074F0D7DC03C032F04F
:1009600002C031F001C030F000C02FF032C06FF093
:1009700031C06EF030C06DF02FC06CF0FBDD02C0F6
:100980004AF001C049F04ABE06D04A5203E149503C
:10099000000801E282804AAE01D082904AC003F092
:1009A00049504AAE08D0000ED8804954006E000E5F
:1009B0004A54036E0050496E03C04AF04ABE09D043
:1009C0004A5203E14950050804E2E60E4926000EAA
:1009D0004A226BAF03D04AAE0AD002D04ABE0BD037
:1009E0006B514A5C08E303E149506A5D04E26BC065
:1009F0004AF06AC049F04AC002F049C001F0023230
:100A0000013202320132023201C0BBFF0232023037
:100A1000300B006EBA50CF0B0010BA6E12004B2A8A
:100A2000D8B44C2A4D2AD8B44E2A5D50FC0F33E27C
:100A3000040F52EF05F09D90CAEC00F0D9EC00F0E5
:100A40002AD0D9EC00F050C069F04FC068F054C013
:100A50006BF053C06AF0AADD1ED0CAEC00F052C0A1
:100A600069F051C068F056C06BF055C06AF0C0DE46
:100A700012D050C069F04FC068F054C06BF053C042
:100A80006AF094DD52C069F051C068F056C06BF056
:100A900055C06AF0ADDEC40ECF6E6E0ECE6E9E9067
:100AA00042EF00F0E824F76AF736BF0FF66E0A0E41
:100AB000F7220A00F550FA6E0800F550F96E360A72
:100AC000420A5A0A720AEA6A6C0EE96EEF500DE0A9
:100AD000060E016E006A002EFED7012EFBD77B0E9C
:100AE000006E002EFED7EF2EF3D712006A6B68510E
:100AF0006A5D0DE2959E839E140E6C6FE4DF838E1B
:100B0000140E695D6B6F6C6FDEDF6A2BF0D712001D
:100B1000CF0E886E2B0E876E572A5750020805E1BC
:100B2000010E686F320E696FE1DF5750320805E140
:100B3000010E686F320E696FD9DF5750640805E106
:100B4000010E686F320E696FD1DF5750960805E1CC
:100B5000010E686F320E696FC9DF5750C80802E294
:100B6000576AA390A49042EF00F0180E926EE70E21
:100B7000806E9368F19E8168300E946E826A040ED6
:100B8000956EF40E836E966A8468F086F088C00EC7
:100B9000F212F18AF188F090F092F2949E90A49073
:100BA000140EB66E310E606E65686468676A666AB8
:100BB000676A666AC00ED56ED76A050ED66EA50E38
:100BC000CD6EC40ECF6E6E0ECE6E110EB76ECF0E02
:100BD000886E2B0E876E69EF0AF096949496949423
:100BE00082868494000E0509CA6EFA0ECB6E8B9431
:100BF0000C0EBD6E63C002F062C001F00232013221
:100C000002320132023201C0BEFF02320230300B2A
:100C1000006EBD50CF0B0010BD6E120096929490E6
:100C2000949284928290000E0509CA6EFA0ECB6EE1
:100C30008B920C0EBA6E63C002F062C001F00232F9
:100C4000013202320132023201C0BBFF02320230F5
:100C5000300B006EBA50CF0B0010BA6E12009D9090
:100C6000F29A166AF2BE168EF29EC80E6C6F2BDFD9
:100C700016BEF28E166AF2BE168EF29E010E686FD6
:100C8000640E696F33DF16BEF28E5E6A5E50310805
:100C900020E381BE13D080908092040E626F166AAA
:100CA000F2BE168EF29EFA0E6C6F0DDF16BEF28E3D
:100CB000622FF5D78490809A640E5E6E166AF2BE3B
:100CC000168EF29E0A0E6C6FFEDE16BEF28E5E2A45
:100CD000DDD7020E626F166AF2BE168EF29EFA0E13
:100CE0006C6FF1DE16BEF28E622FF5D781A606D0AC
:100CF000010E636FAE0E626F70DFF8D7CAEC00F0C2
:100D000081A206D0020E636F580E626F87DFF8D79C
:100D1000D9EC00F0166AF2BE168EF29E010E686FD4
:100D2000640E696FE3DE16BEF28E8084808080825E
:100D30008480808A959A959C838A838CF28A5A80D3
:100D400081AA04D0838A1E0E596EFAD7596A020E00
:100D5000626F166AF2BE168EF29E960E6C6FB3DE4E
:100D600016BEF28E622FF5D781BA04D0839A3C0E5C
:100D7000596EFAD7596A166AF2BE168EF29E010EA5
:100D8000686F640E696FB2DE16BEF28EF29A838CC3
:100D9000838A166AF2BE168EF29E010E686F640E8A
:100DA000696FA4DE16BEF28E676A666A1E6A1D6AE5
:100DB0004C6A4B6A4E6A4D6A506A4F6A526A516A6F
:100DC000040E5D6EC80E576EA3801200040E626F93
:100DD000166AF2BE168EF29EFA0E6C6F74DE16BEA6
:100DE000F28E622FF5D7166AF2BE168EF29E020EB2
:100DF000686F640E696F7ADE16BEF28E81ACFED724
:100E0000040E626F166AF2BE168EF29EFA0E6C6FB8
:100E10005ADE16BEF28E622FF5D78094020E626FF4
:100E2000166AF2BE168EF29EFA0E6C6F4CDE16BE7D
:100E3000F28E622FF5D781BCFED7040E626F166A60
:100E4000F2BE168EF29EFA0E6C6F3DDE16BEF28E6C
:100E5000622FF5D78084C80E576EA380AEEF0AF0DC
:100E600096929490949282808492000E0509CA6EA4
:100E7000FA0ECB6E8B920C0EBA6E63C002F062C09B
:100E800001F00232013202320132023201C0BBFFF4
:100E900002320230300B006EBA50CF0B0010BA6E27
:100EA000120096949496949482968494000E050968
:100EB000CA6EFA0ECB6E8B940C0EBD6E63C002F040
:100EC00062C001F00232013202320132023201C04C
:100ED000BEFF02320230300B006EBD50CF0B00104F
:100EE000BD6E88EF08F0040E626F166AF2BE168EB1
:100EF000F29EFA0E6C6FE7DD16BEF28E622FF5D70A
:100F0000166AF2BE168EF29E030E686F640E696F4B
:100F1000EDDD16BEF28E000E0509CA6EFA0ECB6E1E
:100F20008B940C0EBD6E8B92BA6E80848080808212
:100F30008480808A80908092020E5D6E526AEB0EF1
:100F4000516E9D801EBE05D01E5204E11D50EA0860
:100F5000D8B0F8D7010E5D6E506E180E4F6E67CF89
:100F600001F066CF00F067CF03F00350015C02E0B0
:100F700066CF00F00050626F03C063F06351010858
:100F800005E303E16251170801E3E9D75D6A849044
:100F9000809A81AE02D05D6AFCD78480166AF2BE68
:100FA000168EF29E010E686F640E696F9FDD16BE8D
:100FB000F28E81ACFED7040E626F166AF2BE168EF8
:100FC000F29EFA0E6C6F7FDD16BEF28E622FF5D7A1
:100FD000020E636F580E626F43DF81A406D0020ECB
:100FE000636F580E626F3CDFF8D7020E626F166AAD
:100FF000F2BE168EF29EFA0E6C6F65DD16BEF28E94
:10100000622FF5D781B403D0808AD9EC00F0166A3C
:10101000F2BE168EF29E640E6C6F55DD16BEF28E19
:10102000808AD9EC00F0040E626F166AF2BE168E4A
:10103000F29EFA0E6C6F47DD16BEF28E622FF5D768
:101040008490010E5D6E506A4F6A9D8067CF01F0FB
:1010500066CF00F067CF03F00350015C02E066CF7B
:1010600000F00050626F03C063F0635303E162510C
:10107000DC0801E2EBD7506A0A0E4F6E526A516AE1
:10108000030E5D6E67CF01F066CF00F067CF03F00F
:101090000350015C02E066CF00F00050626F03C0B5
:1010A00063F0635303E162510A0801E2EBD75D6A22
:1010B000166AF2BE168EF29E640E6C6F04DD16BECA
:1010C000F28E020E636F8A0E626F87DD606B605175
:1010D000050834E381A006D0010E636FF40E626F41
:1010E0007CDDF8D781B003D08480CAEC00F0166AAA
:1010F000F2BE168EF29E640E6C6FE5DC16BEF28EAA
:1011000081A01AD08490010E636F2C0E626FC9D635
:10111000020E626F166AF2BE168EF29EC80E6C6FD9
:10112000D2DC16BEF28E622FF5D7CAEC00F0020EAA
:10113000636F8A0E626F51DD602BC9D78480CAEC61
:1011400000F0040E626F166AF2BE168EF29EFA0E60
:101150006C6FB9DC16BEF28E622FF5D7809A020E44
:101160005D6E526A780E516E9D801EBE05D01E5275
:1011700004E11D503108D8B0F8D7010E506E180E9A
:101180004F6E010E526E0E0E516E030E5D6E1EBE40
:1011900007D01E50010805E303E11D500D08D8B02B
:1011A000F6D75D6A020E636F580E626F59DE606B90
:1011B0006051050834E381A406D0020E636F580E17
:1011C000626F4EDEF8D781B403D0808AD9EC00F08C
:1011D000166AF2BE168EF29E640E6C6F74DC16BE3A
:1011E000F28E81A41AD0809A010E636F2C0E626F6A
:1011F00015DD020E626F166AF2BE168EF29EC80EE2
:101200006C6F61DC16BEF28E622FF5D7D9EC00F060
:10121000020E636F580E626F23DE602BC9D7808A7F
:10122000D9EC00F0040E626F166AF2BE168EF29EC2
:10123000FA0E6C6F48DC16BEF28E622FF5D78490E2
:10124000010E5D6E506A4F6A9D80808267CF01F00B
:1012500066CF00F067CF03F00350015C02E066CF79
:1012600000F00050626F03C063F0635303E162510A
:10127000F00801E2EBD75D6A809281BCFED781BEA7
:10128000FED7809A040E626F166AF2BE168EF29E28
:10129000FA0E6C6F18DC16BEF28E622FF5D781BE87
:1012A000FED7DDDCC80E576EA380C1EF0AF0020E38
:1012B000636F166AF2BE168EF29EFA0E6C6F03DC36
:1012C00016BEF28E632FF5D7166AF2BE168EF29E08
:1012D000040E686F640E696F09DC16BEF28E959A73
:1012E000959C838A838C81ACFED7040E636F166A4B
:1012F000F2BE168EF29EFA0E6C6F63EC05F016BE0F
:10130000F28E632FF4D75A80F28A809481A804D099
:10131000839A500E596EFAD7838A596A166AF2BEBA
:10132000168EF29E010E686F640E696F76EC05F002
:1013300016BEF28E626B625102082AE381AA04D0C3
:10134000838A500E596EFAD7839A596A166AF2BE8A
:10135000168EF29E010E686F640E696F76EC05F0D2
:1013600016BEF28E81A804D0839A550E596EFAD714
:10137000838A596A166AF2BE168EF29E010E686F53
:10138000640E696F76EC05F016BEF28E622BD3D731
:1013900081AA04D0838A500E596EFAD7839A596A6B
:1013A000166AF2BE168EF29E010E686F640E696FA9
:1013B00076EC05F016BEF28E81A804D0839A550E05
:1013C000596EFAD7838A596A166AF2BE168EF29E51
:1013D000010E686F640E696F76EC05F016BEF28E32
:1013E00081AA04D0838A500E596EFAD7839A596A1B
:1013F000166AF2BE168EF29E010E686F640E696F59
:1014000076EC05F016BEF28E81BA04D0839A3C0EBB
:10141000596EFAD7596A166AF2BE168EF29E010EFE
:10142000686F640E696F76EC05F016BEF28E8084EC
:10143000838C838A5A900A0E596E81BCFED7F29A29
:10144000C80E576EA380D4EF0AF0F86AD09E078EBC
:10145000226A216A206A800E1F6ECD0E266ECC0E87
:10146000256E4C0E246E7C0E236E330E2A6E296E72
:10147000286E7E0E276E366A356A386A376A3A6A8F
:10148000396A3C6A3B6A426A416A446A436A466A0C
:10149000456A486A476A030E546E840E536E030E03
:1014A000566E840E556E576A586A640E596E5A907D
:1014B0005C6A5B6A040E5D6E5E6A5F6A606B616B9C
:1014C000B990C19CC19E000EB86E176A186AB5EF3C
:1014D00005F01E6A1D6A4C6A4B6A4E6A4D6A506A74
:1014E0004F6A526A516A166AF2BE168EF29E020E58
:1014F000686F640E696F76EC05F016BEF28E81BEE1
:1015000010D0A380576A010E616F166AF2BE168E64
:10151000F29E0A0E6C6F63EC05F016BEF28E81AE81
:10152000FED7612D42D05750310805E3A390616B7F
:10153000576A2FEC06F05750320802E3000E01D034
:10154000010E626F5750630802E2000E01D0010ED7
:10155000621504E0A390616B576A38D45750640851
:1015600002E3000E01D0010E626F5750950802E2AF
:10157000000E01D0010E621504E0A390616B576A62
:10158000B2D45750960802E3000E01D0010E626FEC
:101590005750C70802E2000E01D0010E621504E0A8
:0E15A000A390616B576A83D6BCD7A9D703000E
:020000040030CA
:0E00000000C20C3E3C9D81000FC00FE00F407F
:00000001FF
;PIC18F4431
;CRC=F79B  CREATED="03-Apr-14 23:16"
