:100000000AEF01F0EA6A260EE96EEF500EE00C0EE0
:10001000016E006A002EFED7012EFBD7F70E006E90
:10002000002EFED700D0EF2EF2D7000C246A22500B
:10003000245C0DE2959E839E140E266EE3DF838E74
:10004000140E235C256E266EDDDF242AF0D7000C0B
:10005000236A0A6A8184236A2350070842E322C084
:1000600000F02350016E04E0D8900032012EFCD73E
:1000700000A002D0818201D08192210E006E002E5C
:10008000FED78194210E006E002EFED781A026D0CF
:10009000235202E1010E0A6E232C02D0020E0A2620
:1000A0002350020802E1040E0A262350030802E14D
:1000B000080E0A262350040802E1100E0A262350D7
:1000C000050802E1200E0A262350060802E1400E30
:1000D0000A262350070802E1800E0A268184232A7B
:1000E000BBD7000CFF0E816E800E936E8196010EC1
:1000F000226EAEDF420E226EABDF0AC00BF0226A28
:10010000A7DF226AA5DF0AC00CF0226AA1DF0AC0BD
:100110000DF0226A9DDF0AC00EF0226A99DF0AC044
:100120000FF0226A95DF0AC010F0226A91DF0AC040
:1001300011F081860C50010B126E0C50020B006EF8
:10014000D8900030186E0C50040B006E0030196E01
:1001500019323F0E19160C50080B006E0030136E4A
:10016000133213321F0E13160C50100B006E003892
:10017000146E0F0E14160C50200B006E0038176E04
:100180001732070E17160C50400B006E0038156E14
:1001900015321532030E15160C50800B166AE8BE88
:1001A00016800D50010B1C6E0D50020B006ED89086
:1001B00000301D6E0D50040B006E00301A6E1A32A6
:1001C0003F0E1A160D50080B006E00301B6E1B32CE
:1001D0001B321F0E1B160D50100B006E00381E6ECA
:1001E0000F0E1E160D50200B006E00381F6E1F32B2
:1001F000070E1F160D50400B006E0038206E203287
:100200002032030E20160D50800B216AE8BE21809B
:100210001BEF01F0F86AD09EEA6AE96AB990C19CC6
:10022000C19E000EB86E046A056A030E226E640E4B
:10023000236EFCDE57D7145205E1010E226E640EC8
:10024000236EF4DE155205E1010E226E640E236E5C
:10025000EDDE165205E1010E226E640E236EE6DE1F
:10026000175205E1010E226E640E236EDFDE12527C
:1002700005E1010E226E640E236ED8DE135205E1F5
:0E028000010E226E640E236ED1DED4D7030071
:020000040030CA
:0E00000000C60E3E3C9D81000FC00FE00F4079
:00000001FF
;PIC18F4431
;CRC=B9C9  CREATED="24-Mar-14 12:41"
