:0400000024EF09F0F0
:08000800046ED8CF05F0E0CF33
:1000100006F00001E9CF0CF0EACF07F0E1CF08F0DD
:10002000E2CF09F0D9CF0AF0DACF0BF0F3CF12F01C
:10003000F4CF13F0FACF14F000C00EF001C00FF0AF
:1000400002C010F003C011F0F2AA2AEF00F0F2B4DF
:10005000A7EF00F09DA030EF00F09EB00FEF05F08D
:10006000F0A636EF00F0F0B063EF00F0F0A83CEF40
:1000700000F0F0B285EF00F0A3A042EF00F0A4B0D2
:1000800063EF05F00EC000F00FC001F010C002F0E9
:1000900011C003F00CC0E9FF07C0EAFF078E08C0DB
:1000A000E1FF09C0E2FF0AC0D9FF0BC0DAFF12C0AE
:1000B000F3FF13C0F4FF14C0FAFF045006C0E0FFC2
:1000C00005C0D8FF1000006AF1BA002A010E001A1C
:1000D000F19A00B0F18AF1AA0BD082AA05D01D5086
:1000E000D8B41E061D0603D01D2AD8B41E2A0AD075
:1000F00082AA04D01D2AD8B41E2A04D01D50D8B418
:100100001E061D06F09042EF00F0006AF1B8002ACA
:10011000010E001AF19800B0F188F1A80BD082A866
:1001200004D01D2AD8B41E2A04D01D50D8B41E06EF
:100130001D060AD082A805D01D50D8B41E061D0683
:1001400003D01D2AD8B41E2AF09242EF00F05B2A99
:10015000D8B45C2A5AA00ED0D76A050ED66E582A9B
:100160005850640802E2586A839C5950585C01E375
:10017000838C0DD0D76A050ED66E582A5850C70802
:1001800002E2586A8B8E5950585C01E38B9EF294C0
:1001900042EF00F0969494969494000E0509CA6E6E
:1001A000FA0ECB6E8B940C0EBD6EBE6A8484829662
:1001B000120096929490949284828290000E050987
:1001C000CA6EFA0ECB6E8B920C0EBA6EBB6A120020
:1001D0008E0E006E71C001F070C002F0036A71AF44
:1001E00005D0011E021E022A01E1012A015209E185
:1001F00002C001F0026A080E005E015202E1006ACC
:100200000AD0D89001BE04D0023601360006F9D7D4
:1002100071BF01D0019E12007051D8B471D0006E30
:100220007451D8B46DD0002604E3810E002668E234
:1002300004D07F0E005E64E363E071C078F0755116
:10024000781B718F758F73517703F4CF7AF07251E9
:100250007603F4CF03F0F3CF79F07703F3507A27E6
:10026000F4507923000E032273517603F3507A275A
:10027000F4507923000E026A03220222715177039F
:10028000F3507927F4500322000E022271517603B5
:10029000F3500326F4500222000E016A012273512A
:1002A0007503F3507927F4500322000E0222012235
:1002B00072517503F3500326F4500222000E0122FE
:1002C00071517503F3500226F4500122002A01BE39
:1002D00005D079370336023601360006000E79AFB5
:1002E0000AD0032A02220122015005E1025003E153
:1002F000035001E1002A78BF018E78AF019E04D03F
:10030000006A016A026A036A1200800ED8B2751B85
:100310007A6B7B6B71C079F07551791B7051D8B4D1
:10032000DCD0786F006E7451D8B4E0D0785FD8B468
:1003300081D03DE375C07EF07E8F76C07DF077C0C2
:100340007CF07B6BD8907E337D337C337B33782F8E
:10035000F8D779AF03D07A81DDD07A9178917A8914
:10036000EA6A730EE96EE9D07A9979BF0AD078A16A
:1003700013D07E337D337C337B33002AD8B4C5D091
:100380000BD07EBF0CD0D8907B377C377D377E3743
:100390000006D8B4BAD0F5D77A8D6BD07A9D71C0EB
:1003A00079F071AF02D07E8FA9D07E9FA7D074C0A4
:1003B00078F074C000F07051785F71C07EF07E8F6D
:1003C00072C07DF073C07CF07B6BD8907E337D3340
:1003D0007C337B33782FF8D779AF03D07A839AD0E8
:1003E0007A9378917A8BEA6A770EE96EA6D07A9B37
:1003F00079BF0AD078A113D07E337D337C337B3331
:10040000002AD8B482D00BD07EBF0CD0D8907B37D6
:100410007C377D377E370006D8B477D0F5D77A8F12
:1004200028D07A9F75C079F075AF02D07E8F66D0E4
:100430007E9F64D075C07EF07E8F76C07DF077C0E1
:100440007CF079AF04D07E9F7A8564D07A957B6BFF
:100450007891EA6A730EE96E70D079BF1CD071C0D2
:1004600079F078A106D07E337D337C337B33002A4C
:100470004CE07BAF0BD07C2B09E17D2B07E17E2B81
:1004800005E17E337D337C33002A3FE07ABD86D799
:100490007ABFC7D71CD0800E7E1B7EAF04D03AD067
:1004A00075C079F00AD071C079F07E5306E17D53B2
:1004B00004E17C5302E1006A21D07EBF08D0D890CD
:1004C0007B377C377D377E37002EF7D71ED079AF4C
:1004D00002D07E8F13D07E9F11D074C000F075C003
:1004E0007EF076C07DF077C07CF008D070C000F060
:1004F00071C07EF072C07DF073C07CF07EC001F0F0
:100500007DC002F07CC003F034D0006A016A026A48
:10051000036A2FD07B6B7C1F7D1F7E1F7B1F7B2B75
:1005200005E17C2B03E17D2B01E17E2B7AB115D710
:100530007AB356D77AB58AD7B3D7EF507C2705E37D
:100540007D2B03E17E2BD8B47881ED52EF507D27CF
:1005500003E37E2BD8B47881ED52EF50EFBE01D08B
:10056000800A7E27D8B078817AB9FED67ABB3FD789
:1005700074D712008E0E006E6C51005E6DC002F0DA
:100580006EC001F0028E005209E0D890025202E1E2
:10059000015204E002320132002EF7D76DAF05D0D0
:1005A000011E021E012AD8B4022A1200849467CFC9
:1005B00001F066CF00F067CF03F00350015C02E06A
:1005C00066CF00F00050336E03C034F03350685DE6
:1005D000376E34506959386E4C5203E14B50010864
:1005E00030E23B50375C396E3C5038583A6E4C6ABA
:1005F0004B6A3AAE08D03A50FE0809E2FF0A03E11E
:100600003950F60804E2375035263850362236BEC7
:1006100008D0365203E13550C80803E2366AC80EE6
:10062000356E36AE0AD03650FF0807E303E1355089
:10063000370803E33668380E356E38C03CF037C0F3
:100640003BF038C071F037C070F0C2DD22C073F0EB
:1006500021C072F020C071F01FC070F003C077F0AD
:1006600002C076F001C075F000C074F0D5DD03C0A3
:100670006FF002C06EF001C06DF000C06CF036C0CB
:1006800071F035C070F0A4DD26C073F025C072F0A3
:1006900024C071F023C070F003C077F002C076F080
:1006A00001C075F000C074F0B7DDD8926FC073F070
:1006B0006EC072F06DC071F06CC070F003C077F066
:1006C00002C076F001C075F000C074F01EDE03C0F9
:1006D0006FF002C06EF001C06DF000C06CF03AC067
:1006E00071F039C070F074DD2AC073F029C072F067
:1006F00028C071F027C070F003C077F002C076F018
:1007000001C075F000C074F087DDD8926FC073F03F
:100710006EC072F06DC071F06CC070F003C077F005
:1007200002C076F001C075F000C074F0EEDD03C0C9
:100730002EF002C02DF001C02CF000C02BF02EC016
:100740006FF02DC06EF02CC06DF02BC06CF012DF7E
:1007500002C03EF001C03DF03EBE06D03E5203E175
:100760003D50000801E282963EAE01D082863EC036
:1007700003F03D503EAE08D0000ED8803D54006ED0
:10078000000E3E54036E00503D6E03C03EF03EBE70
:1007900009D03E5203E13D50050804E2E60E3D2635
:1007A000000E3E226BAF03D03EAE0AD002D03EBE5A
:1007B0000BD06B513E5C08E303E13D506A5D04E2FF
:1007C0006BC03EF06AC03DF03EC002F03DC001F09B
:1007D0000232013202320132023201C0BEFF023265
:1007E0000230300B006EBD50CF0B0010BD6E1200FA
:1007F00084921EC040F01DC03FF03F50685D436EC4
:1008000040506959446E4E5203E14D50010830E2A8
:100810004750435C456E48504458466E4E6A4D6A98
:1008200046AE08D04650FE0809E2FF0A03E14550F3
:10083000F60804E2435041264450422242BE08D00A
:10084000425203E14150C80803E2426AC80E416EB9
:1008500042AE0AD04250FF0807E303E14150370897
:1008600003E34268380E416E44C048F043C047F08D
:1008700044C071F043C070F0ABDC22C073F021C003
:1008800072F020C071F01FC070F003C077F002C09A
:1008900076F001C075F000C074F0BEDC03C06FF0EC
:1008A00002C06EF001C06DF000C06CF042C071F08B
:1008B00041C070F08DDC26C073F025C072F024C0FA
:1008C00071F023C070F003C077F002C076F001C071
:1008D00075F000C074F0A0DCD8926FC073F06EC0E9
:1008E00072F06DC071F06CC070F003C077F002C0A0
:1008F00076F001C075F000C074F007DD03C06FF042
:1009000002C06EF001C06DF000C06CF046C071F026
:1009100045C070F05DDC2AC073F029C072F028C0B9
:1009200071F027C070F003C077F002C076F001C00C
:1009300075F000C074F070DCD8926FC073F06EC0B8
:1009400072F06DC071F06CC070F003C077F002C03F
:1009500076F001C075F000C074F0D7DC03C032F04F
:1009600002C031F001C030F000C02FF032C06FF093
:1009700031C06EF030C06DF02FC06CF0FBDD02C0F6
:100980004AF001C049F04ABE06D04A5203E149503C
:10099000000801E282804AAE01D082904AC003F092
:1009A00049504AAE08D0000ED8804954006E000E5F
:1009B0004A54036E0050496E03C04AF04ABE09D043
:1009C0004A5203E14950050804E2E60E4926000EAA
:1009D0004A226BAF03D04AAE0AD002D04ABE0BD037
:1009E0006B514A5C08E303E149506A5D04E26BC065
:1009F0004AF06AC049F04AC002F049C001F0023230
:100A0000013202320132023201C0BBFF0232023037
:100A1000300B006EBA50CF0B0010BA6E12004B2A8A
:100A2000D8B44C2A4D2AD8B44E2A5D50FC0F33E27C
:100A3000040F52EF05F09D90CAEC00F0D9EC00F0E5
:100A40002AD0D9EC00F050C069F04FC068F054C013
:100A50006BF053C06AF0AADD1ED0CAEC00F052C0A1
:100A600069F051C068F056C06BF055C06AF0C0DE46
:100A700012D050C069F04FC068F054C06BF053C042
:100A80006AF094DD52C069F051C068F056C06BF056
:100A900055C06AF0ADDEC40ECF6E6E0ECE6E9E9067
:100AA00042EF00F0E824F76AF736BF0FF66E0A0E41
:100AB000F7220A00F550FA6E0800F550F96E360A72
:100AC000420A5A0A720ACF0E886E2B0E876E572A78
:100AD0005750C80802E2576AA390A49042EF00F072
:100AE000180E926EE70E806E9368F19E8168300E4C
:100AF000946E826A040E956EF00E836E966A846818
:100B0000F086F088C00EF212F18AF188F090F0922F
:100B1000F2949E90A490140EB66E310E606E6568CD
:100B20006468676A666A676A666AC00ED56ED76A65
:100B3000050ED66EA50ECD6EC40ECF6E6E0ECE6EA9
:100B4000110EB76ECF0E886E2B0E876E67EF09F011
:100B5000EA6A670EE96EEF500DE0060E016E006A5C
:100B6000002EFED7012EFBD77B0E006E002EFED787
:100B7000EF2EF3D71200656B6351655D0DE2959E14
:100B8000839E140E676FE4DF838E140E645D666FC0
:100B9000676FDEDF652BF0D71200969494969494DD
:100BA00082868494000E0509CA6EFA0ECB6E8B9471
:100BB0000C0EBD6E63C002F062C001F00232013261
:100BC00002320132023201C0BEFF02320230300B6B
:100BD000006EBD50CF0B0010BD6E12009692949027
:100BE000949284928290000E0509CA6EFA0ECB6E22
:100BF0008B920C0EBA6E63C002F062C001F002323A
:100C0000013202320132023201C0BBFF0232023035
:100C1000300B006EBA50CF0B0010BA6E12009D90D0
:100C2000F29A020E626FFA0E676F92DF622FFBD7A5
:100C3000010E636F640E646F9EDF5E6A5E50310862
:100C400014E381BE0DD080908092040E626FFA0E84
:100C5000676F7EDF622FFBD78490809A640E5E6E92
:100C60000A0E676F75DF5E2AE9D7020E626FFA0E11
:100C7000676F6EDF622FFBD781A606D0010E636F10
:100C8000AE0E626F8ADFF8D7CAEC00F081A206D000
:100C9000020E636F580E626FA1DFF8D7D9EC00F037
:100CA000010E636F640E646F66DF808480808082D3
:100CB0008480808A959A959C838A838CF28A5A8054
:100CC00081AA04D0838A1E0E596EFAD7596A020E81
:100CD000626F960E676F3CDF622FFBD781BA04D03C
:100CE000839A3C0E596EFAD7596A010E636F640EEF
:100CF000646F41DFF29A838C838A010E636F640E06
:100D0000646F39DF676A666A1E6A1D6A4C6A4B6ADD
:100D10004E6A4D6A506A4F6A526A516A040E5D6E9D
:100D2000C80E576EA3801200040E626FFA0E676F32
:100D30000FDF622FFBD7020E636F640E646F1BDF41
:100D400081ACFED7040E626FFA0E676F01DF622F6F
:100D5000FBD78094020E626FFA0E676FF9DE622F86
:100D6000FBD781BCFED7040E626FFA0E676FF0DE10
:100D7000622FFBD78084C80E576EA3809DEF09F0C9
:100D800096949496949482968494000E0509CA6E63
:100D9000FA0ECB6E8B940C0EBD6E63C002F062C077
:100DA00001F00232013202320132023201C0BEFFD2
:100DB00002320230300B006EBD50CF0B0010BD6E02
:100DC000120096929490949282808492000E05096B
:100DD000CA6EFA0ECB6E8B920C0EBA6E63C002F026
:100DE00062C001F00232013202320132023201C02D
:100DF000BBFF02320230300B006EBA50CF0B001036
:100E0000BA6EE3EF07F0040E626FFA0E676FA0DEB2
:100E1000622FFBD7030E636F640E646FACDE000EAF
:100E20000509CA6EFA0ECB6E8B940C0EBD6E8B92BA
:100E3000BA6E8084808080828480808A8090809254
:100E4000020E5D6E010E526E180E516E9D801EBE1A
:100E500007D01E50010805E303E11D501708D8B064
:100E6000F6D7010E5D6E506AE30E4F6E67CF01F04C
:100E700066CF00F067CF03F00350015C02E066CF5D
:100E800000F00050626F03C063F0635304E16251ED
:100E9000E20801E3EBD78490809A81BEFED781BE41
:100EA0000DD0808A010E636F640E646F64DE020EE3
:100EB000626FFA0E676F4CDE622FFBD781AEFED7F2
:100EC00081ACFED70A0E626FFA0E676F41DE622FA9
:100ED000FBD75D6A020E636F580E626F51DF5F6A67
:100EE0005F50050826E381A006D0020E636F580EFE
:100EF000626F46DFF8D781B003D08480CAEC00F07F
:100F0000640E676F25DE81A012D08490010E636F9E
:100F10002C0E626F42DE020E626FC80E676F18DE23
:100F2000622FFBD7020E636F580E626F29DF5F2AB4
:100F3000D7D78480CAEC00F0040E626FFA0E676F98
:100F400007DE622FFBD7809A020E5D6E526A640E36
:100F5000516E9D801EBE06D01E5203E11D50FA0840
:100F6000D8A0F8D7526A0A0E516E506A4F6A030E23
:100F70005D6E1EBE06D01E5203E11D500A08D8A0A9
:100F8000F8D75D6A020E636F580E626F27DE5F6AE4
:100F90005F50050826E381A406D0020E636F580E49
:100FA000626F1CDEF8D781B403D0808AD9EC00F0E0
:100FB000640E676FCDDD81A412D0809A010E636F3D
:100FC0002C0E626FFED6020E626FC80E676FC0DD18
:100FD000622FFBD7020E636F580E626FFFDD5F2A30
:100FE000D7D7808AD9EC00F0040E626FC80E676F05
:100FF000AFDD622FFBD78490C80E676FA9DD010EAD
:101000005D6E506AC80E4F6E9D8067CF01F066CF4F
:1010100000F067CF03F00350015C02E066CF00F000
:101020000050626F03C063F0635304E162511D0816
:1010300001E3EBD7010E506E0E0E4F6E010E526E95
:10104000130E516E030E5D6E67CF01F066CF00F098
:1010500067CF03F00350015C02E066CF00F0005060
:10106000626F03C063F06351010805E303E162515D
:101070000D0801E3E9D75D6A020E636F580E626FD7
:101080007FDE5F6A5F50050828E381A006D0020E6C
:10109000636F580E626F74DEF8D781B003D084801E
:1010A000CAEC00F0640E676F53DD81A014D0849009
:1010B000010E636F2C0E626F70DD020E626FC80E40
:1010C000676F46DD622FFBD7CAEC00F0020E636F3C
:1010D000580E626F55DE5F2AD5D78480CAEC00F0C7
:1010E000040E626FFA0E676F33DD622FFBD7809AB2
:1010F000020E5D6E526A516A9D8080901EBE06D0BF
:101100001E5203E11D50F008D8A0F8D75D6A809008
:1011100081BCFED781BEFED7809A81AEFED7030E7A
:10112000626FC80E676F14DD622FFBD781BEFED7DA
:1011300076DDC80E576EA380B0EF09F0040E636F22
:10114000FA0E676F05DD632FFBD7040E636F640E25
:10115000646F11DD959A959C838A838C81BCFED740
:10116000640E676FF5DC5A80F28A809481A804D0FF
:10117000839A500E596EFAD7838A596A010E636FAB
:10118000640E646FF8DC626B625102081CE381AA92
:1011900004D0838A500E596EFAD7839A596A010E89
:1011A000636F640E646FE7DC81A804D0839A550EE8
:1011B000596EFAD7838A596A010E636F640E646FA1
:1011C000DADC622BE1D781AA04D0838A500E596EF3
:1011D000FAD7839A596A010E636F640E646FCBDC91
:1011E00081A804D0839A550E596EFAD7838A596A1A
:1011F000010E636F640E646FBEDC81AA04D0838A23
:10120000500E596EFAD7839A596A010E636F640EB5
:10121000646FB1DC81BA04D0839A3C0E596EFAD760
:10122000596A010E636F640E646FA5DC8084838C41
:10123000838A5A900A0E596E81BCFED7F29AC80E64
:10124000576EA380C3EF09F0F86AD09E078E226A1A
:10125000216A206A800E1F6ECD0E266ECC0E256E82
:101260004C0E246E7C0E236E330E2A6E296E286E71
:101270007E0E276E366A356A386A376A3A6A396A84
:101280003C6A3B6A426A416A446A436A466A456A02
:10129000486A476A030E546E840E536E030E566EF0
:1012A000840E556E576A586A640E596E5A905C6A7D
:1012B0005B6A040E5D6E5E6A5F6A606B616BB9901B
:1012C000C19CC19E000EB86E176A186A09D41E6AC6
:1012D0001D6A4C6A4B6A4E6A4D6A506A4F6A526A7E
:1012E000516A020E636F640E646F45DC81BE09D0E3
:1012F000A380576A010E616F0A0E676F29DC81AE09
:10130000FED7612D41D05750310804E3A390616BA3
:10131000576A85DC5750320802E3000E01D0010EF7
:10132000626F5750630802E2000E01D0010E621591
:1013300004E0A390616B576AF7D45750640802E346
:10134000000E01D0010E626F5750950802E2000EA8
:1013500001D0010E621504E0A390616B576A53D56A
:101360005750960802E3000E01D0010E626F5750ED
:10137000C70802E2000E01D0010E621504E0A3903E
:0C138000616B576ADBD6BDD7B1D7030004
:020000040030CA
:0E00000000C20C3E3C9D81000FC00FE00F407F
:00000001FF
;PIC18F4431
;CRC=748C  CREATED="02-Apr-14 01:04"
