:0400000075EF06F0A2
:08000800046ED8CF05F0E0CF33
:1000100006F00001E9CF0CF0EACF07F0E1CF08F0DD
:10002000E2CF09F0D9CF0AF0DACF0BF0F3CF12F01C
:10003000F4CF13F0FACF14F0F5CF15F0F6CF16F099
:10004000F7CF17F000C00EF001C00FF002C010F0A3
:1000500003C011F0F2AA30EF00F0F2B4AFEF00F0FD
:100060009DA036EF00F09EB0D8EF04F0F0A63CEF74
:1000700000F0F0B06FEF00F0F0A842EF00F0F0B247
:100080008FEF00F0A3A048EF00F0A4B0EBEF04F076
:100090000EC000F00FC001F010C002F011C003F05C
:1000A0000CC0E9FF07C0EAFF078E08C0E1FF09C0E6
:1000B000E2FF0AC0D9FF0BC0DAFF12C0F3FF13C082
:1000C000F4FF14C0FAFF15C0F5FF16C0F6FF17C005
:1000D000F7FF045006C0E0FF05C0D8FF1000000E77
:1000E000F1AA010EF19AE8B0F18AF1AA0BD082AA26
:1000F00005D01F50D8B420061F0603D01F2AD8B43D
:10010000202A0AD082AA04D01F2AD8B4202A04D0D8
:100110001F50D8B420061F06F09048EF00F0000EE4
:10012000F1A8010EF198E8B0F188F1A80BD082A8EF
:1001300004D01F2AD8B4202A04D01F50D8B42006D7
:100140001F060AD082A805D01F50D8B420061F066B
:1001500003D01F2AD8B4202AF09248EF00F0D76AC3
:10016000050ED66E572A5750C70802E2576A8C848C
:100170005850575CD8B08C94F29448EF00F08E0E33
:10018000006E67C001F066C002F0036A67AF05D079
:10019000011E021E022A01E1012A015209E102C0E8
:1001A00001F0026A080E005E015202E1006A0AD004
:1001B000D89001BE04D0023601360006F9D767BFD9
:1001C00001D0019E000C6651D8B471D0006E6A5106
:1001D000D8B46DD0002604E3810E002668E204D076
:1001E0007F0E005E64E363E067C06EF06B516E1BD0
:1001F000678F6B8F69516D03F4CF70F068516C039A
:10020000F4CF03F0F3CF6FF06D03F3507027F45089
:100210006F23000E032269516C03F3507027F450D2
:100220006F23000E026A0322022267516D03F3500E
:100230006F27F4500322000E022267516C03F35023
:100240000326F4500222000E016A012269516B0359
:10025000F3506F27F4500322000E0222012268514E
:100260006B03F3500326F4500222000E0122675163
:100270006B03F3500226F4500122002A01BE05D080
:100280006F370336023601360006000E6FAF0AD014
:10029000032A02220122015005E1025003E103502A
:1002A00001E1002A6EBF018E6EAF019E04D0006A8C
:1002B000016A026A036A000C800ED8B26B1B706B75
:1002C000716B67C06FF06B516F1B6651D8B4DCD097
:1002D0006E6F006E6A51D8B4E0D06E5FD8B481D032
:1002E0003DE36BC074F0748F6CC073F06DC072F03E
:1002F000716BD89074337333723371336E2FF8D7B8
:100300006FAF03D07081DDD070916E917089EA6A11
:10031000690EE96EE9D070996FBF0AD06EA113D053
:100320007433733372337133002AD8B4C5D00BD011
:1003300074BF0CD0D890713772377337743700069A
:10034000D8B4BAD0F5D7708D6BD0709D67C06FF000
:1003500067AF02D0748FA9D0749FA7D06AC06EF027
:100360006AC000F066516E5F67C074F0748F68C039
:1003700073F069C072F0716BD89074337333723359
:1003800071336E2FF8D76FAF03D070839AD070930C
:100390006E91708BEA6A6D0EE96EA6D0709B6FBF8E
:1003A0000AD06EA113D07433733372337133002AC1
:1003B000D8B482D00BD074BF0CD0D89071377237BC
:1003C000733774370006D8B477D0F5D7708F28D03C
:1003D000709F6BC06FF06BAF02D0748F66D0749F4C
:1003E00064D06BC074F0748F6CC073F06DC072F029
:1003F0006FAF04D0749F708564D07095716B6E91EF
:10040000EA6A690EE96E70D06FBF1CD067C06FF0EA
:100410006EA106D07433733372337133002A4CE00B
:1004200071AF0BD0722B09E1732B07E1742B05E13F
:10043000743373337233002A3FE070BD86D770BFC8
:10044000C7D71CD0800E741B74AF04D03AD06BC0D9
:100450006FF00AD067C06FF0745306E1735304E184
:10046000725302E1006A21D074BF08D0D89071376E
:10047000723773377437002EF7D71ED06FAF02D0A4
:10048000748F13D0749F11D06AC000F06BC074F0E9
:100490006CC073F06DC072F008D066C000F067C029
:1004A00074F068C073F069C072F074C001F073C07A
:1004B00002F072C003F034D0006A016A026A036A73
:1004C0002FD0716B721F731F741F711F712B05E189
:1004D000722B03E1732B01E1742B70B115D770B34C
:1004E00056D770B58AD7B3D7EF50722705E3732B71
:1004F00003E1742BD8B46E81ED52EF50732703E300
:10050000742BD8B46E81ED52EF50EFBE01D0800A4B
:100510007427D8B06E8170B9FED670BB3FD774D740
:10052000000C8E0E006E6251005E63C002F064C06B
:1005300001F0028E005209E0D890025202E101520D
:1005400004E002320132002EF7D763AF05D0011E5E
:10055000021E012AD8B4022A000C839866CF31F01B
:1005600067CF32F03150605D356E32506159366E72
:100570003D50010830E23950355C376E3A503658FC
:10058000386E3D6A38AE08D03850FE0809E2FF0ADE
:1005900003E13750F60804E2355033263650342252
:1005A00034BE08D0345203E13350C80803E2346A41
:1005B000C80E336E34AE0BD03450FF0808E303E1AD
:1005C0003350370804E3FF0E346E380E336E36C0F6
:1005D0003AF035C039F036C067F035C066F0CFDD8F
:1005E00024C069F023C068F022C067F021C066F023
:1005F00003C06DF002C06CF001C06BF000C06AF087
:10060000E2DD00C062F001C063F002C064F003C02C
:1006100065F034C067F033C066F0B1DD28C069F022
:1006200027C068F026C067F025C066F003C06DF0F3
:1006300002C06CF001C06BF000C06AF0C4DDD8925B
:1006400065C069F064C068F063C067F062C066F0BE
:1006500003C06DF002C06CF001C06BF000C06AF026
:100660002BDE00C062F001C063F002C064F003C082
:1006700065F038C067F037C066F081DD2CC069F0E6
:100680002BC068F02AC067F029C066F003C06DF087
:1006900002C06CF001C06BF000C06AF094DDD8922B
:1006A00065C069F064C068F063C067F062C066F05E
:1006B00003C06DF002C06CF001C06BF000C06AF0C6
:1006C000FBDD03C030F002C02FF001C02EF000C0EF
:1006D0002DF030C065F02FC064F02EC063F02DC047
:1006E00062F01FDF02C03CF001C03BF03CBE06D010
:1006F0003C5203E13B500008D8A082963CAE01D0AA
:1007000082863CC003F03B503CAE08D0000ED8803F
:100710003B54006E000E3C54036E00503B6E03C011
:100720003CF03CBE09D03C5203E13B50050804E2DA
:10073000C80E3B26000E3C223CBE0CD03C500008AC
:1007400009E2FF0A03E13B50F40804E2010E3C6EAB
:10075000F40E3B6E3CC002F03BC001F002320132AD
:1007600002320132023201C0BEFF02320230300BCF
:10077000006EBD50CF0B0010BD6EE3EF04F0839A06
:1007800020C044F01FC043F04350605D476E4450AA
:100790006159486E3E50010837E23E6A48AE08D0C3
:1007A0004850FE0810E2FF0A03E14750EC080BE254
:1007B00048BE05D0485207E14750130804E34750AC
:1007C00045264850462246BE08D0465203E14550D1
:1007D000C80803E2466AC80E456E46AE0BD04650C6
:1007E000FF0808E303E14550370804E3FF0E466EB7
:1007F000380E456E4B50475C496E4C5048584A6E17
:1008000048C04CF047C04BF048C067F047C066F0A6
:10081000B6DC24C069F023C068F022C067F021C0B4
:1008200066F003C06DF002C06CF001C06BF000C058
:100830006AF0C9DC00C062F001C063F002C064F07D
:1008400003C065F046C067F045C066F098DC28C07C
:1008500069F027C068F026C067F025C066F003C0C5
:100860006DF002C06CF001C06BF000C06AF0ABDC50
:10087000D89265C069F064C068F063C067F062C078
:1008800066F003C06DF002C06CF001C06BF000C0F8
:100890006AF012DD00C062F001C063F002C064F0D3
:1008A00003C065F04AC067F049C066F068DC2CC040
:1008B00069F02BC068F02AC067F029C066F003C059
:1008C0006DF002C06CF001C06BF000C06AF07BDC20
:1008D000D89265C069F064C068F063C067F062C018
:1008E00066F003C06DF002C06CF001C06BF000C098
:1008F0006AF0E2DC03C052F002C051F001C050F0D7
:1009000000C04FF052C065F051C064F050C063F0B9
:100910004FC062F006DE02C04EF001C04DF04EBE88
:1009200006D04E5203E14D500008D8A082804EAE52
:1009300001D082904EC003F04D504EAE08D0000E54
:10094000D8804D54006E000E4E54036E00504D6E14
:1009500003C04EF04EBE09D04E5203E14D50050883
:1009600004E2C80E4D26000E4E224EBE0CD04E5054
:10097000000809E2FF0A03E14D50900804E2010E6D
:100980004E6E900E4D6E4EC002F04DC001F0023220
:10099000013202320132023201C0BBFF02320230A8
:1009A000300B006EBA50CF0B0010BA6EE8EF04F0B7
:1009B000E70ECF6E960ECE6E3D2A3E2A40C061F005
:1009C0003FC060F0CAD542C061F041C060F0D7D6E8
:1009D0009E9048EF00F0E70E886E960E876E532AC1
:1009E000D8B4542AA49048EF00F0180E926EFF0E6F
:1009F000936EF19E816E300E946E826A956A836A60
:100A0000966AF086F088A380C00EF212F18AF1880F
:100A1000F090F0929E90A490140EB66E310E606E1F
:100A2000FF0E656E646E676A666A676A666AC10E03
:100A3000D56ED76A050ED66EB50ECD6EE70ECF6EAB
:100A4000960ECE6E190EB76EE70E886E960E876EF6
:100A5000000E0409CA6EF90ECB6E8B940C0EBD6E9F
:100A6000A7EF06F095989496949482868398000E4A
:100A70000409CA6EF90ECB6E8B940C0EBD6E5CC071
:100A800002F05BC001F00232013202320132023266
:100A900001C0BEFF02320230300B006EBD50CF0BE2
:100AA0000010BD6E000C959A94909492839A829057
:100AB000000E0409CA6EF90ECB6E8B920C0EBA6E44
:100AC0005CC002F05BC001F002320132023201323E
:100AD000023201C0BBFF02320230300B006EBA504E
:100AE000CF0B0010BA6EBDEF05F0959A94909492DA
:100AF000838A8290000E0409CA6EF90ECB6E8B9227
:100B00000C0EBA6EBB6ABFEF05F0EA6A5F0EE96EC3
:100B1000EF500EE00C0E016E006A002EFED7012E83
:100B2000FBD7F70E006E002EFED700D0EF2EF2D7C7
:100B3000000C5D6A5B505D5C0DE2959E839E1E0E0F
:100B40005F6EE3DF838E1E0E5C5C5E6E5F6EDDDFCC
:100B50005D2AF0D7000C9D90A390566A556A3D6AB5
:100B60003E6A030E5C6EE80E5B6E7CDF81A406D0ED
:100B7000010E5C6E720E5B6E96D7F8D7B6D7010E7B
:100B80005B6E640E5C6ED5DF676A666A206A1F6AF8
:100B9000406A3F6A426A416A808A8080808280849B
:100BA00084808482A380A490E70E886E960E876E60
:100BB000000C9D90A390020E5B6E640E5C6EB9DF1C
:100BC000566A556A81AC04D0320E5F6E9EDFFAD74A
:100BD00081BC06D0140E5F6E98DF81BC01D0809A74
:100BE00081BC04D0320E5F6E90DFFAD7A380A49050
:100BF000E70E886E960E876ED3EF06F0A3909D8069
:100C0000030E5B6E640E5C6E94DF566A556A676A0B
:100C1000666A206A1F6A3D6A3E6AA380A490E70E56
:100C2000886E960E876ED9EF06F0959894969494F8
:100C300082968398000E0409CA6EF90ECB6E8B94CF
:100C40000C0EBD6E5CC002F05BC001F002320132DE
:100C500002320132023201C0BEFF02320230300BDA
:100C6000006EBD50CF0B0010BD6E000C9D90A39088
:100C7000040E5B6E640E5C6E5CDF566A556A81AA78
:100C80000BD0020E5C6E580E5B6ECFDF010E5B6EFA
:100C9000640E5C6E4EDFF3D7030E5C6EE80E5B6E87
:100CA000E1DE596A81AC01D0FDD75950040812E346
:100CB00081A806D0010E5C6E2C0E5B6ED3DEF8D7D9
:100CC00081AA06D0010E5C6E2C0E5B6EAEDFF8D7EB
:100CD000592AEBD7030E5C6EE80E5B6EC3DEF28A18
:100CE000F2940A0E586EDFEF06F0F86AD09E078E77
:100CF000EA6AE96A246A236A226A800E216ECD0EAE
:100D0000286ECC0E276E4C0E266E7C0E256E330E92
:100D10002C6E2B6E2A6E7E0E296E346A336A386A08
:100D2000376A3A6A396A466A456A4A6A496A4C6A5F
:100D30004B6A546A536A566A556A596A5A6AB99034
:100D4000C19CC19E000EB86E196A1A6A4ED603DFA6
:100D5000566A556A010E5B6E640E5C6EEADE81BEF9
:100D60003ED0546A536A5A6A010E5B6E640E5C6E22
:100D7000E0DE5A5208E181AE05D0320E5F6EC5DE6C
:100D8000010E5A6EF6D7545203E15350320818E25E
:100D9000552C03D0565201E1DEDE5550020803E126
:100DA000565201E106D75550030803E1565201E1BE
:100DB00025D75550040803E1565201E157D70FD00B
:100DC000552AD8B4562A565203E15550040807E272
:100DD000566A556A0A0E5B6E640E5C6EAADEBFD759
:020DE00003000E
:020000040030CA
:0E00000000C60C3E3C9D81000FC00FE00F407B
:00000001FF
;PIC18F4431
;CRC=1340  CREATED="19-Mar-14 20:01"
