:040000002FEF0AF0E4
:08000800046ED8CF05F0E0CF33
:1000100006F00001E9CF0CF0EACF07F0E1CF08F0DD
:10002000E2CF09F0D9CF0AF0DACF0BF0F3CF12F01C
:10003000F4CF13F0FACF14F0F5CF15F0F6CF16F099
:10004000F7CF17F000C00EF001C00FF002C010F0A3
:1000500003C011F0F2AA30EF00F0F2B4B1EF00F0FB
:100060009DA036EF00F09EB019EF05F0F0A63CEF32
:1000700000F0F0B06FEF00F0F0A842EF00F0F0B247
:1000800090EF00F0A3A048EF00F0A4B092EF05F0CD
:100090000EC000F00FC001F010C002F011C003F05C
:1000A0000CC0E9FF07C0EAFF078E08C0E1FF09C0E6
:1000B000E2FF0AC0D9FF0BC0DAFF12C0F3FF13C082
:1000C000F4FF14C0FAFF15C0F5FF16C0F6FF17C005
:1000D000F7FF045006C0E0FF05C0D8FF1000000E77
:1000E000F1BA010E010AF19AE8B0F18AF1AA0BD037
:1000F00082AA05D02050D8B42106200603D0202A99
:10010000D8B4212A0AD082AA04D0202AD8B4212A1D
:1001100004D02050D8B421062006F09048EF00F01B
:10012000000EF1B8010E010AF198E8B0F188F1A8CB
:100130000BD082A804D0202AD8B4212A04D0205081
:10014000D8B4210620060AD082A805D02050D8B401
:100150002106200603D0202AD8B4212AF09248EFA5
:1001600000F05E2AD8B45F2A5DA00ED0D76A050ED3
:10017000D66E5B2A5B50640802E25B6A839C5C502B
:100180005B5C01E3838C0DD0D76A050ED66E5B2ACB
:100190005B50C70802E25B6A8B8E5C505B5C01E3DC
:1001A0008B9EF29448EF00F0969494969494000EEF
:1001B0000509CA6EFA0ECB6E8B940C0EBD6EBE6A2C
:1001C0008484829612009692949094928482829073
:1001D000000E0509CA6EFA0ECB6E8B920C0EBA6E2B
:1001E000BB6A12008E0E006E74C001F073C002F084
:1001F000036A74AF05D0011E021E022A01E1012A22
:10020000015209E102C001F0026A080E005E0152CB
:1002100002E1006A0AD0D89001BE04D0023601364D
:100220000006F9D774BF01D0019E12007351D8B4F3
:1002300071D0006E7751D8B46DD0002604E3810EE2
:10024000002668E204D07F0E005E64E363E074C0C1
:100250007BF078517B1B748F788F76517A03F4CFC3
:100260007DF075517903F4CF03F0F3CF7CF07A037E
:10027000F3507D27F4507C23000E0322765179033E
:10028000F3507D27F4507C23000E026A03220222E1
:1002900074517A03F3507C27F4500322000E02229B
:1002A00074517903F3500326F4500222000E016AC0
:1002B000012276517803F3507C27F4500322000E7C
:1002C0000222012275517803F3500326F4500222D2
:1002D000000E012274517803F3500226F4500122DB
:1002E000002A01BE05D07C370336023601360006EF
:1002F000000E7CAF0AD0032A02220122015005E140
:10030000025003E1035001E1002A7BBF018E7BAF65
:10031000019E04D0006A016A026A036A1200800E1C
:10032000D8B2781B7D6B7E6B74C07CF078517C1BDF
:100330007351D8B4DCD07B6F006E7751D8B4E0D065
:100340007B5FD8B481D03DE378C081F0818F79C0E4
:1003500080F07AC07FF07E6BD890813380337F331A
:100360007E337B2FF8D77CAF03D07D81DDD07D91AC
:100370007B917D89EA6A760EE96EE9D07D997CBF32
:100380000AD07BA113D0813380337F337E33002AA0
:10039000D8B4C5D00BD081BF0CD0D8907E377F3772
:1003A000803781370006D8B4BAD0F5D77D8D6BD0B1
:1003B0007D9D74C07CF074AF02D0818FA9D0819FE5
:1003C000A7D077C07BF077C000F073517B5F74C01B
:1003D00081F0818F75C080F076C07FF07E6BD89001
:1003E000813380337F337E337B2FF8D77CAF03D0CC
:1003F0007D839AD07D937B917D8BEA6A7A0EE96E3C
:10040000A6D07D9B7CBF0AD07BA113D081338033E3
:100410007F337E33002AD8B482D00BD081BF0CD07A
:10042000D8907E377F37803781370006D8B477D0B1
:10043000F5D77D8F28D07D9F78C07CF078AF02D033
:10044000818F66D0819F64D078C081F0818F79C020
:1004500080F07AC07FF07CAF04D0819F7D8564D02E
:100460007D957E6B7B91EA6A760EE96E70D07CBFDB
:100470001CD074C07CF07BA106D0813380337F33E5
:100480007E33002A4CE07EAF0BD07F2B09E1802B1E
:1004900007E1812B05E1813380337F33002A3FE080
:1004A0007DBD86D77DBFC7D71CD0800E811B81AF95
:1004B00004D03AD078C07CF00AD074C07CF081536C
:1004C00006E1805304E17F5302E1006A21D081BF3D
:1004D00008D0D8907E377F3780378137002EF7D706
:1004E0001ED07CAF02D0818F13D0819F11D077C0F6
:1004F00000F078C081F079C080F07AC07FF008D039
:1005000073C000F074C081F075C080F076C07FF0D9
:1005100081C001F080C002F07FC003F034D0006AD7
:10052000016A026A036A2FD07E6B7F1F801F811FC2
:100530007E1F7E2B05E17F2B03E1802B01E1812BC8
:100540007DB115D77DB356D77DB58AD7B3D7EF50D8
:100550007F2705E3802B03E1812BD8B47B81ED520B
:10056000EF50802703E3812BD8B47B81ED52EF500D
:10057000EFBE01D0800A8127D8B07B817DB9FED63D
:100580007DBB3FD774D712008E0E006E6F51005E98
:1005900070C002F071C001F0028E005209E0D890E4
:1005A000025202E1015204E002320132002EF7D77A
:1005B00070AF05D0011E021E012AD8B4022A120013
:1005C000849467CF01F066CF00F067CF03F003504B
:1005D000015C02E066CF00F00050366E03C037F0D9
:1005E00036506B5D3A6E37506C593B6E4F5203E19B
:1005F0004E50010830E23E503A5C3C6E3F503B5852
:100600003D6E4F6A4E6A3DAE08D03D50FE0809E28D
:10061000FF0A03E13C50F60804E23A5038263B500A
:10062000392239BE08D0395203E13850C80803E2F4
:10063000396AC80E386E39AE0AD03950FF0807E360
:1006400003E13850370803E33968380E386E3BC091
:100650003FF03AC03EF03BC074F03AC073F0C2DDE8
:1006600025C076F024C075F023C074F022C073F06A
:1006700003C07AF002C079F001C078F000C077F0D2
:10068000D5DD03C072F002C071F001C070F000C08F
:100690006FF039C074F038C073F0A4DD29C076F073
:1006A00028C075F027C074F026C073F003C07AF03C
:1006B00002C079F001C078F000C077F0B7DDD892C1
:1006C00072C076F071C075F070C074F06FC073F0D6
:1006D00003C07AF002C079F001C078F000C077F072
:1006E0001EDE03C072F002C071F001C070F000C0E5
:1006F0006FF03DC074F03CC073F074DD2DC076F037
:100700002CC075F02BC074F02AC073F003C07AF0CF
:1007100002C079F001C078F000C077F087DDD89290
:1007200072C076F071C075F070C074F06FC073F075
:1007300003C07AF002C079F001C078F000C077F011
:10074000EEDD03C031F002C030F001C02FF000C078
:100750002EF031C072F030C071F02FC070F02EC09A
:100760006FF012DF02C041F001C040F041BE06D080
:10077000415203E14050000801E2829641AE01D0AF
:10078000828641C003F0405041AE08D0000ED880B0
:100790004054006E000E4154036E0050406E03C082
:1007A00041F041BE09D0415203E14050050804E246
:1007B000FA0E4026000E41226EAF03D041AE0AD0A1
:1007C00002D041BE0BD06E51415C08E303E14050C2
:1007D0006D5D04E26EC041F06DC040F041C002F0BA
:1007E00040C001F00232013202320132023201C055
:1007F000BEFF02320230300B006EBD50CF0B001036
:10080000BD6E1200849221C043F020C042F04250DD
:100810006B5D466E43506C59476E515203E1505028
:10082000010830E24A50465C486E4B504758496ECA
:10083000516A506A49AE08D04950FE0809E2FF0AE1
:1008400003E14850F60804E246504426475045224A
:1008500045BE08D0455203E14450C80803E2456A4A
:10086000C80E446E45AE0AD04550FF0807E303E1C9
:100870004450370803E34568380E446E47C04BF0D8
:1008800046C04AF047C074F046C073F0ABDC25C0E8
:1008900076F024C075F023C074F022C073F003C05A
:1008A0007AF002C079F001C078F000C077F0BEDCC9
:1008B00003C072F002C071F001C070F000C06FF0B0
:1008C00045C074F044C073F08DDC29C076F028C0B8
:1008D00075F027C074F026C073F003C07AF002C030
:1008E00079F001C078F000C077F0A0DCD89272C037
:1008F00076F071C075F070C074F06FC073F003C013
:100900007AF002C079F001C078F000C077F007DD1E
:1009100003C072F002C071F001C070F000C06FF04F
:1009200049C074F048C073F05DDC2DC076F02CC077
:1009300075F02BC074F02AC073F003C07AF002C0C7
:1009400079F001C078F000C077F070DCD89272C006
:1009500076F071C075F070C074F06FC073F003C0B2
:100960007AF002C079F001C078F000C077F0D7DCEF
:1009700003C035F002C034F001C033F000C032F0E3
:1009800035C072F034C071F033C070F032C06FF017
:10099000FBDD02C04DF001C04CF04DBE06D04D5203
:1009A00003E14C50000801E282804DAE01D08290FC
:1009B0004DC003F04C504DAE08D0000ED8804C54C2
:1009C000006E000E4D54036E00504C6E03C04DF08F
:1009D0004DBE09D04D5203E14C50050804E2FA0E19
:1009E0004C26000E4D226EAF03D04DAE0AD002D081
:1009F0004DBE0BD06E514D5C08E303E14C506D5D74
:100A000004E26EC04DF06DC04CF04DC002F04CC021
:100A100001F00232013202320132023201C0BBFF68
:100A200002320230300B006EBA50CF0B0010BA6E9B
:100A300012004E2AD8B44F2A502AD8B4512A6051F5
:100A4000FC0F33E2040F5CEF05F09D90D4EC00F056
:100A5000E3EC00F02AD0E3EC00F053C06CF052C09D
:100A60006BF057C06EF056C06DF0AADD1ED0D4EC0E
:100A700000F055C06CF054C06BF059C06EF058C017
:100A80006DF0C0DE12D053C06CF052C06BF057C096
:100A90006EF056C06DF094DD55C06CF054C06BF034
:100AA00059C06EF058C06DF0ADDEC40ECF6E6E0E44
:100AB000CE6E9E9048EF00F0E824F76AF736D30F29
:100AC000F66E0A0EF7220A00F550FA6E0800F5508D
:100AD000F96E4A0A560A6E0A860AEA6A6F0EE96ECB
:100AE000EF500DE0060E016E006A002EFED7012EBB
:100AF000FBD77B0E006E002EFED7EF2EF3D7120031
:100B00006D6B6B516D5D0DE2959E839E140E6F6F44
:100B1000E4DF838E140E6C5D6E6F6F6FDEDF6D2B06
:100B2000F0D71200CF0E886E2B0E876E5A2A5A50BD
:100B3000020805E1010E6B6F320E6C6FE1DF5A5057
:100B4000320805E1010E6B6F320E6C6FD9DF5A501F
:100B5000640805E1010E6B6F320E6C6FD1DF5A50E5
:100B6000960805E1010E6B6F320E6C6FC9DF5A50AB
:100B7000C80802E25A6AA390A49048EF00F0180E49
:100B8000926EE70E806E9368F19E8168300E946ECF
:100B9000826A040E956EF40E836E966A8468F086FF
:100BA000F088C00EF212F18AF188F090F092F2947F
:100BB0009E90A490140EB66E310E606E65686468E7
:100BC000676A666A676A666AC00ED56ED76A050E7E
:100BD000D66EA50ECD6EC40ECF6E6E0ECE6E110EFD
:100BE000B76ECF0E886E2B0E876E73EF0AF0969459
:100BF0009496949482868494000E0509CA6EFA0E27
:100C0000CB6E8B940C0EBD6E66C002F065C001F019
:100C10000232013202320132023201C0BEFF023220
:100C20000230300B006EBD50CF0B0010BD6E1200B5
:100C300096929490949284928290000E0509CA6EC6
:100C4000FA0ECB6E8B920C0EBA6E66C002F065C0C7
:100C500001F00232013202320132023201C0BBFF26
:100C600002320230300B006EBA50CF0B0010BA6E59
:100C700012009D90F29A020E656F196AF2BE198EEB
:100C8000F29EFA0E6F6F29DF19BEF28E652FF5D72F
:100C9000196AF2BE198EF29E010E6B6F640E6C6FB4
:100CA0002FDF19BEF28E616B6151310820E381BEE6
:100CB00013D080908092040E656F196AF2BE198E6F
:100CC000F29EFA0E6F6F09DF19BEF28E652FF5D70F
:100CD0008490809A640E616F196AF2BE198EF29E3A
:100CE0000A0E6F6FFADE19BEF28E612BDDD7020E8F
:100CF000656F196AF2BE198EF29EFA0E6F6FEDDE05
:100D000019BEF28E652FF5D781A606D0010E666F4B
:100D1000C20E656F6CDFF8D7D4EC00F081A206D06C
:100D2000010E666FF40E656F83DFF8D7E3EC00F019
:100D3000196AF2BE198EF29E010E6B6F640E6C6F13
:100D4000DFDE19BEF28E8084808080828480808A7B
:100D5000959A959C838A838CF28A5D8081AA04D0BF
:100D6000838A1E0E5C6EFAD75C6A020E656F196A82
:100D7000F2BE198EF29E960E6F6FAFDE19BEF28E26
:100D8000652FF5D781BA04D0839A3C0E5C6EFAD7F2
:100D90005C6A196AF2BE198EF29E010E6B6F640EC8
:100DA0006C6FAEDE19BEF28EF29A838C838A196A5A
:100DB000F2BE198EF29E010E6B6F640E6C6FA0DE98
:100DC00019BEF28E676A666A216A206A4F6A4E6AA5
:100DD000516A506A536A526A556A546A040E606FC7
:100DE000C80E5A6EA3801200040E656F196AF2BE17
:100DF000198EF29EFA0E6F6F70DE19BEF28E652F9D
:100E0000F5D7196AF2BE198EF29E020E6B6F640E50
:100E10006C6F76DE19BEF28E81ACFED7040E656F64
:100E2000196AF2BE198EF29EFA0E6F6F56DE19BE67
:100E3000F28E652FF5D78094020E656F196AF2BEA7
:100E4000198EF29EFA0E6F6F48DE19BEF28E652F74
:100E5000F5D781BCFED7040E656F196AF2BE198EF4
:100E6000F29EFA0E6F6F39DE19BEF28E652FF5D73E
:100E70008084C80E5A6EA380B8EF0AF096929490C0
:100E8000949282808492000E0509CA6EFA0ECB6E8F
:100E90008B920C0EBA6E66C002F065C001F0023291
:100EA000013202320132023201C0BBFF0232023093
:100EB000300B006EBA50CF0B0010BA6E1200969431
:100EC0009496949482968494000E0509CA6EFA0E44
:100ED000CB6E8B940C0EBD6E66C002F065C001F047
:100EE0000232013202320132023201C0BEFF02324E
:100EF0000230300B006EBD50CF0B0010BD6E1200E3
:100F0000020E656F196AF2BE198EF29EFA0E6F6FAD
:100F1000E4DD19BEF28E652FF5D7196AF2BE198E7F
:100F2000F29E030E6B6F640E6C6FEADD19BEF28EDB
:100F3000000E0509CA6EFA0ECB6E8B940C0EBD6EB8
:100F40008B92BA6E8084808080828480808A809038
:100F50008092010E666FF40E656F90DF21BE07D0A0
:100F6000215001080AE303E12050120806E3010EB4
:100F7000666FF40E656F82DFF1D7E3EC00F0196A5B
:100F8000F2BE198EF29E640E6F6FA7DD19BEF28E4F
:100F9000010E666FC20E656F92DF67CF01F066CFFC
:100FA00000F067CF03F00350015C02E066CF00F071
:100FB0000050656F03C066F0665309E16551EF08A4
:100FC00006E3010E666FC20E656F79DFE6D7D4ECDB
:100FD00000F08490809A81AE02D0606BFCD781BE15
:100FE00019D0808A196AF2BE198EF29E010E6B6FBB
:100FF000640E6C6F85DD19BEF28E020E656F196A84
:10100000F2BE198EF29EFA0E6F6F67DD19BEF28E78
:10101000652FF5D781AEFED781ACFED7040E656F84
:10102000196AF2BE198EF29EFA0E6F6F56DD19BE66
:10103000F28E652FF5D7606B010E666FF40E656F4B
:101040003EDF626B6251050832E381A006D0020EDA
:10105000666F8A0E656F33DFF8D781B003D0848066
:10106000D4EC00F0196AF2BE198EF29E640E6F6F16
:1010700034DD19BEF28E81A018D08490010E666F07
:101080002C0E656FB4DD020E656F196AF2BE198E03
:10109000F29EC80E6F6F21DD19BEF28E652FF5D757
:1010A000020E666F580E656F0ADF622BCBD7848005
:1010B000D4EC00F0040E656F196AF2BE198EF29E30
:1010C000FA0E6F6F0ADD19BEF28E652FF5D7809A82
:1010D000020E606F556A640E546E9D8021BE06D06C
:1010E000215203E12050FA08D8A0F8D7556A0A0E19
:1010F000546E536A526A030E606F21BE0DD02152A6
:1011000003E120500A0808E2556A0A0E546E536A39
:10111000526A030E606FF1D7606B020E666F580E55
:10112000656F86DD626B625105080FE381A406D00E
:10113000010E666FF40E656F7BDDF8D781B403D0C6
:10114000808AE3EC00F0622BEED7808AE3EC00F0BB
:10115000040E656F196AF2BE198EF29EC80E6F6F8B
:10116000BCDC19BEF28E652FF5D78490196AF2BEE9
:10117000198EF29EC80E6F6FB0DC19BEF28E010E92
:10118000606F536AFA0E526E9D8067CF01F066CF92
:1011900000F067CF03F00350015C02E066CF00F07F
:1011A0000050656F03C066F0665304E165511D0889
:1011B00001E3EBD7010E536E0E0E526E010E556E0B
:1011C000160E546E030E606F67CF01F066CF00F00D
:1011D00067CF03F00350015C02E066CF00F00050DF
:1011E000656F03C066F0665101080FE303E16551C6
:1011F0000D080BE3010E536E0E0E526E010E556E6E
:10120000160E546E030E606FDFD7606B020E666FB2
:101210008A0E656F54DE81A007D0606B020E666F88
:101220008A0E656F4CDEF7D781B003D08480D4EC92
:1012300000F08480D4EC00F0040E656F196AF2BEF1
:10124000198EF29EFA0E6F6F48DC19BEF28E652F72
:10125000F5D7809A020E606F556A546A9D8080802F
:1012600021BE06D0215203E12050E608D8A0F8D7CD
:10127000606B809081BCFED781BEFED7040E656F87
:10128000196AF2BE198EF29EAF0E6F6F26DC19BE80
:10129000F28E652FF5D78490020E656F196AF2BE43
:1012A000198EF29E960E6F6F18DC19BEF28E652FA6
:1012B000F5D781BEFED7DDDCC80E5A6EA380CBEF1A
:1012C0000AF0020E666F196AF2BE198EF29EFA0ECD
:1012D0006F6F03DC19BEF28E662FF5D7196AF2BE66
:1012E000198EF29E040E6B6F640E6C6F09DC19BED2
:1012F000F28E959A959C838A838C81ACFED7040EDE
:10130000666F196AF2BE198EF29EFA0E6F6F6DEC5F
:1013100005F019BEF28E662FF4D75D80F28A8094B4
:1013200081A804D0839A500E5C6EFAD7838A5C6AD7
:10133000196AF2BE198EF29E010E6B6F640E6C6F0D
:1013400080EC05F019BEF28E656B655102082AE348
:1013500081AA04D0838A500E5C6EFAD7839A5C6AA5
:10136000196AF2BE198EF29E010E6B6F640E6C6FDD
:1013700080EC05F019BEF28E81A804D0839A550E38
:101380005C6EFAD7838A5C6A196AF2BE198EF29E85
:10139000010E6B6F640E6C6F80EC05F019BEF28E5F
:1013A000652BD3D781AA04D0838A500E5C6EFAD7FE
:1013B000839A5C6A196AF2BE198EF29E010E6B6FF7
:1013C000640E6C6F80EC05F019BEF28E81A804D01B
:1013D000839A550E5C6EFAD7838A5C6A196AF2BEEC
:1013E000198EF29E010E6B6F640E6C6F80EC05F02F
:1013F00019BEF28E81AA04D0838A500E5C6EFAD791
:10140000839A5C6A196AF2BE198EF29E010E6B6FA6
:10141000640E6C6F80EC05F019BEF28E81BA04D0B8
:10142000839A3C0E5C6EFAD75C6A196AF2BE198E1A
:10143000F29E010E6B6F640E6C6F80EC05F019BEAE
:10144000F28E8084838C838A5D900A0E5C6E81BCF0
:10145000FED7F29AC80E5A6EA380DEEF0AF0F86A41
:10146000D09E078E256A246A236A800E226ECD0ED6
:10147000296ECC0E286E4C0E276E7C0E266E330E17
:101480002D6E2C6E2B6E7E0E2A6E396A386A3B6A80
:101490003A6A3D6A3C6A3F6A3E6A456A446A476AFC
:1014A000466A496A486A4B6A4A6A030E576EE80EF2
:1014B000566E030E596EE80E586E5A6A5B6A640ED9
:1014C0005C6E5D905F6A5E6A040E606F616B626B5A
:1014D000636B646BB990C19CC19E000EB86E1A6AB2
:1014E0001B6ABFEF05F0216A206A4F6A4E6A516A93
:1014F000506A536A526A556A546A196AF2BE198E62
:10150000F29E020E6B6F640E6C6F80EC05F019BEDC
:10151000F28E81BE10D0A3805A6A010E646F196AE0
:10152000F2BE198EF29E0A0E6F6F6DEC05F019BEB9
:10153000F28E81AEFED7642D42D05A50310805E3B9
:10154000A390646B5A6A39EC06F05A50320802E3F1
:10155000000E01D0010E656F5A50630802E2000EC2
:1015600001D0010E651504E0A390646B5A6A3CD467
:101570005A50640802E3000E01D0010E656F5A5004
:10158000950802E2000E01D0010E651504E0A3905B
:10159000646B5A6AB5D45A50960802E3000E01D023
:1015A000010E656F5A50C70802E2000E01D0010E0D
:1015B000651504E0A390646B5A6A83D6BCD7A9D79B
:0215C000030026
:020000040030CA
:0E00000000C20C3E3C9D81000FC00FE00F407F
:00000001FF
;PIC18F4431
;CRC=0EFB  CREATED="19-Jul-22 10:40"
