:0400000074EF05F0A4
:08000800046ED8CF05F0E0CF33
:1000100006F00001E9CF0CF0EACF07F0E1CF08F0DD
:10002000E2CF09F0D9CF0AF0DACF0BF0F3CF12F01C
:10003000F4CF13F0FACF14F0F5CF15F0F6CF16F099
:10004000F7CF17F000C00EF001C00FF002C010F0A3
:1000500003C011F0F0A630EF00F0F0B067EF00F051
:10006000F0A836EF00F0F0B274EF00F00EC000F030
:100070000FC001F010C002F011C003F00CC0E9FF86
:1000800007C0EAFF078E08C0E1FF09C0E2FF0AC00F
:10009000D9FF0BC0DAFF12C0F3FF13C0F4FF14C086
:1000A000FAFF15C0F5FF16C0F6FF17C0F7FF0450A2
:1000B00006C0E0FF05C0D8FF1000F76ACA0FF66E51
:1000C000000EF7220900F5501200280C0106948C4E
:1000D00082BC04D0192AD8B41A2A03D01B2AD8B457
:1000E0001C2AF09036EF00F0948E82BE04D01D2AB8
:1000F000D8B41E2A03D01F2AD8B4202AF09236EF93
:1001000000F052656164792E2E2E00002052656148
:100110006479312E2E2E0000205265616479352ECF
:100120002E2E0000205265616479362E2E2E00009E
:1001300020526561647931382E2E2E00EA6A580EFD
:10014000E96EEF500DE0060E016E006A002EFED73C
:10015000012EFBD77B0E006E002EFED7EF2EF3D7BD
:10016000000C5FB002D08C9001D08C8095905FB273
:1001700002D08C9201D08C8295925FB402D08C9484
:1001800001D08C8495945FB602D08C9601D08C8679
:10019000959600008A8A939A030E006E002EFED771
:1001A0008A9A939A000C606B9580000E83B0010EC2
:1001B00060139582000E83B2010E006ED890003657
:1001C000005060139584000E83B4010E006E00365B
:1001D0000036FC0E0016005060139586000E83B6A4
:1001E000010E006E003600360036F80E0016005084
:1001F000601360C001F0000C95809582958495860F
:100200008A8C939C00008A8A939A0000CCDF01C0FC
:100210005FF08A9A939A00008A8A939A00D000D05D
:100220000000C1DF01C05EF08A9A939A9590959282
:10023000959495965F38006EF00E001600505E1093
:10024000016E29EF01F0939A939E939C8A9E939E50
:10025000D3D701C05EF001BEFBD75C5202E18A9E9B
:1002600001D08A8E939E00008A9C939C00008A9AFB
:10027000939A5D385E6E0F0E5E165EC05FF071DFA2
:100280005D500F0B5E6E5F6E6CDF000C959095926B
:1002900095949596939A939E939C8A9E939E8A9CFE
:1002A000939C8A9A939A0F0E586E48DF010E396E0E
:1002B000395003080AE3030E5F6E53DF5F6A51DFB4
:1002C000050E586E3BDF392AF3D7020E5F6E49DF09
:1002D0005F6A47DF050E586E31DF396A395003080F
:1002E00009E3036A3950E9DE3A6E5C6A5D6EABDFA2
:1002F000392AF4D788EF05F0592C01D003D0400EED
:100300005A6E01D05A6A010E585C5A265A5080091A
:100310005B6E5C6A5D6E97DF000C5750070A07E062
:100320000B0A0AE0060A10E0020A14E018D0010ED7
:10033000586E596EE1DF19D05C6A010E5D6E83DF85
:10034000020E586EFBDE11D0010E586E020E596E71
:10035000D3DF0BD05C6A100E5D6E75DF06D0010E28
:100360005C6E57C05DF06FDF00D0000C0900F552E5
:100370000CE0F6CF39F0F7CF3AF0F5CF57F0CDDFFC
:1003800039C0F6FF3AC0F7FFF1D7000CC00EF212E9
:10039000F086F19AF088F1989BEF05F03A6A216AAD
:1003A00081843A6A3A50070844E339C000F03A5071
:1003B000016E04E0D8900032012EFCD700A002D0DC
:1003C000818201D08192100E006E002EFED70000B7
:1003D0008194100E006E002EFED7000081A026D062
:1003E0003A5202E1010E216E3A2C02D0020E212671
:1003F0003A50020802E1040E21263A50030802E1B5
:10040000080E21263A50040802E1100E21263A5027
:10041000050802E1200E21263A50060802E1400EAE
:1004200021263A50070802E1800E212681843A2ACB
:10043000B9D7000C818681848182818093809396D4
:10044000939493928196010E396EA8DF420E396E15
:10045000A5DF21C022F0396AA1DF396A9FDF21C000
:1004600023F0396A9BDF21C024F0396A97DF21C06D
:1004700025F0396A93DF21C026F0396A8FDF21C069
:1004800027F0396A8BDF21C028F081862350010BC9
:10049000296E2350020B006ED89000302F6E23502F
:1004A000040B006E0030306E30323F0E3016235099
:1004B000080B006E00302A6E2A322A321F0E2A16CE
:1004C0002350100B006E00382B6E0F0E2B1623508E
:1004D000200B006E00382E6E2E32070E2E16235083
:1004E000400B006E00382C6E2C322C32030E2C1672
:1004F0002350800B2D6AE8BE2D802450010B336EF3
:100500002450020B006ED8900030346E2450040B3F
:10051000006E0030316E31323F0E31162450080B20
:10052000006E0030326E323232321F0E32162450DC
:10053000100B006E0038356E0F0E35162450200B50
:10054000006E0038366E3632070E36162450400BD9
:10055000006E0038376E37323732030E37162450AC
:10056000800B386AE8BE3880000C92989496949478
:1005700082968098000E0509CA6EFF0ECB6E949489
:100580008B940C0EBD6E3AC002F039C001F00232FD
:10059000013202320132023201C0BEFF02320230A9
:1005A000300B006EBD50CF0B0010BD6E000C92984A
:1005B00094969494000E0509CA6EFF0ECB6E949427
:1005C0008B940C0EBD6EBE6A80888296000C929A47
:1005D000949094928280809A000E0509CA6EFF0E54
:1005E000CB6E94928B920C0EBA6E3AC002F039C068
:1005F00001F00232013202320132023201C0BBFF8D
:1006000002320230300B006EBA50CF0B0010BA6EBF
:10061000000C929A94909492808A8290000E050920
:10062000CA6EFF0ECB6E94928B920C0EBA6EBB6AA2
:10063000000C929A94909492809A8290000E0509F0
:10064000CA6EFF0ECB6E94928B920C0EBA6E3AC0AD
:1006500002F039C001F002320132023201320232BC
:1006600001C0BBFF02320230300B006EBA50CF0B1C
:100670000010BA6E000C929894969494828680989A
:10068000000E0509CA6EFF0ECB6E94948B940C0E6F
:10069000BD6E3AC002F039C001F0023201320232BE
:1006A0000132023201C0BEFF02320230300B006E56
:1006B000BD50CF0B0010BD6E000CD8B203D0EA6A5B
:1006C0005F0EE96E006A016A026A036A5F6A606B24
:1006D000616B626B5E505D105C105B102CE0200E55
:1006E000636FD8905736583659365A365F3660376A
:1006F000613762375E50625D08E15D50615D05E122
:100700005C50605D02E15B505F5C0FE35B505F5EDD
:100710005C50D8A05C3C605F5D50D8A05D3C615FE0
:100720005E50D8A05E3C625FD8800036013602364B
:100730000336632FD6D75FC0EFFF60C0ECFF61C008
:10074000ECFF62C0ECFF000C5F6A606B010E616F32
:10075000DA6AD96A646B570E636FEA6A5B0EE96EF8
:1007600064C0E2FF63C0E1FF61C062F0D890E55071
:10077000EE02F3505F22F4506023622FF7D75FC080
:10078000DEFF60C05FF0606BD8B0602B632BD8B425
:10079000642B612B61510508E0E1000CD8923CC04C
:1007A0005AF03BC059F03AC058F039C057F05E6A71
:1007B0005D6A270E5C6E100E5B6E7FDF03C042F039
:1007C00002C041F001C040F000C03FF05A6A596ACF
:1007D000270E586E100E576E42C05EF041C05DF09D
:1007E00040C05CF03FC05BF0AFDF0050395C536E3F
:1007F00001503A58546E02503B58556E03503C58C5
:10080000566ED8925A6E55C059F054C058F053C025
:1008100057F05E6A5D6A030E5C6EE80E5B6E4DDF3C
:1008200003C046F002C045F001C044F000C043F0F0
:100830005A6A596A270E586E100E576E42C05EF003
:1008400041C05DF040C05CF03FC05BF07DDF005018
:10085000395C536E01503A58546E02503B58556EF5
:1008600003503C58566E5A6A596A030E586EE80E89
:10087000576E46C05EF045C05DF044C05CF043C0BA
:100880005BF062DF0050535E0150545A0250555ADB
:100890000350565AD89256C05AF055C059F054C019
:1008A00058F053C057F05E6A5D6A5C6A640E5B6E16
:1008B00004DF03C04AF002C049F001C048F000C0A4
:1008C00047F05A6A596A270E586E100E576E42C08A
:1008D0005EF041C05DF040C05CF03FC05BF034DFD3
:1008E0000050395C536E01503A58546E02503B58D8
:1008F000556E03503C58566E5A6A596A030E586E2C
:10090000E80E576E46C05EF045C05DF044C05CF036
:1009100043C05BF019DF0050535E0150545A02503F
:10092000555A0350565A5A6A596A586A640E576E95
:100930004AC05EF049C05DF048C05CF047C05BF063
:1009400003DF0050535E0150545A0250555A035071
:10095000565AD89256C05AF055C059F054C058F063
:1009600053C057F05E6A5D6A5C6A0A0E5B6EA5DE74
:1009700003C04EF002C04DF001C04CF000C04BF07F
:100980005A6A596A270E586E100E576E42C05EF0B2
:1009900041C05DF040C05CF03FC05BF0D5DE005070
:1009A000395C536E01503A58546E02503B58556EA4
:1009B00003503C58566E5A6A596A030E586EE80E38
:1009C000576E46C05EF045C05DF044C05CF043C069
:1009D0005BF0BADE0050535E0150545A0250555A33
:1009E0000350565A5A6A596A586A640E576E4AC07A
:1009F0005EF049C05DF048C05CF047C05BF0A4DE2B
:100A00000050535E0150545A0250555A0350565AE2
:100A10005A6A596A586A0A0E576E4EC05EF04DC047
:100A20005DF04CC05CF04BC05BF08EDE0050535C60
:100A30004F6E01505458506E02505558516E03502D
:100A40005658526E3DC058F03EC059F055DC300E3D
:100A50003F24536E000E4020546E000E4120556E10
:100A6000000E4220566E53C057F057DC300E432420
:100A7000536E000E4420546E000E4520556E000E3D
:100A80004620566E53C057F048DC300E4724536E54
:100A9000000E4820546E000E4920556E000E4A206C
:100AA000566E53C057F039DC300E4B24536E000E97
:100AB0004C20546E000E4D20556E000E4E20566E8A
:100AC00053C057F02ADC300E4F24536E000E5020D6
:100AD000546E000E5120556E000E5220566E53C0BB
:100AE00057F01BDC68EF07F0F86AD09E078EEA6AC1
:100AF000E96A1A6A196A1C6A1B6A1E6A1D6A206AF8
:100B00001F6AB990C19CC19E000EB86E46EF01F0FD
:100B1000020EF66E010EF76E29DC020E396EFA0E29
:100B2000586E9EEC00F0392EFAD70C0E576E8DECF5
:100B300001F0F19E2BD4010E2A6E2A2C12D07ADC01
:100B4000586A010E596E7CEC01F00C0EF66E010E27
:100B5000F76E0CDC295204E1929680969294809470
:100B6000ECD70C0E576E8DEC01F02A5215E1958CE6
:100B7000838C83AC06D0020E3A6E580E396EF5DCCB
:100B8000F8D715DD010E2A6E020E396EFA0E586E78
:100B90009EEC00F0392EFAD7040E396EFA0E586E1C
:100BA0009EEC00F0392EFAD72A5217E1958E838EEB
:100BB00083AE06D0020E3A6E580E396E08DDF8D7B5
:100BC00028DD010E2A6E206A1F6A020E396EFA0EA7
:100BD000586E9EEC00F0392EFAD7040E396EFA0EDC
:100BE000586E9EEC00F0392EFAD72A521AE1206A8C
:100BF0001F6A20BE05D0205209E11F501D0806E3E0
:100C0000020E3A6E580E396E14DDF3D702DD010E76
:100C10002A6E020E396EFA0E586E9EEC00F0392ED6
:100C2000FAD7040E396EFA0E586E9EEC00F0392E8B
:100C3000FAD72A520CE192948094010E2A6E020E89
:100C4000396EFA0E586E9EEC00F0392EFAD72A2C27
:100C500014D01AEC02F0586A010E596E7CEC01F0C7
:100C6000180EF66E010EF76EB6EC01F0295204E193
:100C70009296809692948094EAD70C0E576E8DECE3
:100C800001F02A520CE192948084010E2A6E020E29
:100C9000396EFA0E586E9EEC00F0392EFAD72A2CD7
:100CA00014D01AEC02F0586A010E596E7CEC01F077
:100CB000240EF66E010EF76EB6EC01F0295204E137
:100CC0009296809692948094EAD70C0E576E8DEC93
:100CD00001F02A520CE192968096010E2A6E020EC5
:100CE000396EFA0E586E9EEC00F0392EFAD7040ECB
:100CF000396EFA0E586E9EEC00F0392EFAD72A5251
:100D000023E1958883881E6A1D6A83A80FD0020E8E
:100D10003A6E580E396E5BDC1EBE07D01E5203E1E0
:100D20001D503C0802E275DCFFD7EFD772DC010EE4
:100D30002A6E929680862A6E020E396EFA0E586ED0
:100D40009EEC00F0392EFAD7040E396EFA0E586E6A
:100D50009EEC00F0392EFAD72A520CE1929480943E
:100D6000010E2A6E020E396EFA0E586E9EEC00F0DD
:100D7000392EFAD7040E396EFA0E586E9EEC00F03A
:100D8000392EFAD72A521AE11A6A196A1ABE05D000
:100D90001A5209E11950630806E3020E3A6E580E22
:100DA000396E69DCF3D703DC010E2A6E020E396E50
:100DB000FA0E586E9EEC00F0392EFAD7040E396EFA
:100DC000FA0E586E9EEC00F0392EFAD72A521AE12C
:100DD000206A1F6A20BE05D0205209E11F50B308C7
:100DE00006E3020E3A6E580E396E23DCF3D711DC9F
:100DF000010E2A6E020E396EFA0E586E9EEC00F04D
:100E0000392EFAD7040E396EFA0E586E9EEC00F0A9
:100E1000392EFAD72A5224E1958A838A1A6A196AE6
:100E200083AA10D0020E3A6E580E396E24DC1ABE18
:100E300008D01A5203E11950640803E2D7EC02F01B
:100E4000FFD7EED7D7EC02F0010E2A6E9294808481
:100E5000020E396EFA0E586E9EEC00F0392EFAD75B
:100E6000040E396EFA0E586E9EEC00F0392EFAD749
:100E70002A520CE192968096010E2A6E020E396E6D
:100E8000FA0E586E9EEC00F0392EFAD7040E396E29
:100E9000FA0E586E9EEC00F0392EFAD72A5225E150
:100EA0001E6A1D6A1EBE05D01E5213E11D50630846
:100EB00010E3020E3A6E580E396EE7EC02F03C6A0F
:100EC0003B6A1EC03AF01DC039F03D6A3E6A66D4E6
:100ED000E9D709EC03F0010E2A6E020E396EFA0E04
:100EE000586E9EEC00F0392EFAD7040E396EFA0EC9
:100EF000586E9EEC00F0392EFAD72A5217E1958CE5
:100F0000838C83AC07D0020E3A6E580E396EB5EC66
:100F100002F0F7D7D7EC02F0010E2A6E020E396EFE
:100F2000FA0E586E9EEC00F0392EFAD7040E396E88
:100F3000FA0E586E9EEC00F0392EFAD72A5225E1AF
:100F4000958883881E6A1D6A83A811D0020E3A6EA6
:100F5000580E396EE7EC02F01EBE08D01E5203E1B7
:100F60001D50640803E209EC03F0FFD7EDD709EC4C
:100F700003F0010E2A6E92968086020E396EFA0EEA
:100F8000586E9EEC00F0392EFAD7040E396EFA0E28
:100F9000586E9EEC00F0392EFAD72A520CE192944A
:100FA0008094010E2A6E020E396EFA0E586E9EEC77
:100FB00000F0392EFAD7040E396EFA0E586E9EECF8
:100FC00000F0392EFAD72A521CE11A6A196A1ABEA1
:100FD00005D01A520AE11950130807E3020E3A6EBF
:100FE000580E396E3BEC03F0F2D7D7EC02F0010E4D
:100FF0002A6E020E396EFA0E586E9EEC00F0392EF3
:10100000FAD72A2C14D01AEC02F0586A010E596E45
:101010007CEC01F0300EF66E010EF76EB6EC01F0CE
:10102000295204E19296809692948094EAD70C0E0D
:10103000576E8DEC01F02A52D8B4FFD77CD503004F
:020000040030CA
:0E00000000C20C3E3C9D810000C00FE00F408E
:00000001FF
;PIC18F4431
;CRC=53FD  CREATED="10-Jan-14 17:42"
