:040000005CEF03F0BE
:08000800046ED8CF05F0E0CF33
:1000100006F00001E9CF0CF0EACF07F0E1CF08F0DD
:10002000E2CF09F0D9CF0AF0DACF0BF0F3CF12F01C
:10003000F4CF13F0FACF14F0F5CF15F0F6CF16F099
:10004000F7CF17F000C00EF001C00FF002C010F0A3
:1000500003C011F0F0A630EF00F0F0B067EF00F051
:10006000F0A836EF00F0F0B274EF00F00EC000F030
:100070000FC001F010C002F011C003F00CC0E9FF86
:1000800007C0EAFF078E08C0E1FF09C0E2FF0AC00F
:10009000D9FF0BC0DAFF12C0F3FF13C0F4FF14C086
:1000A000FAFF15C0F5FF16C0F6FF17C0F7FF0450A2
:1000B00006C0E0FF05C0D8FF1000F76ACA0FF66E51
:1000C000000EF7220900F5501200280C0106948C4E
:1000D00082BC04D0192AD8B41A2A03D01B2AD8B457
:1000E0001C2AF09036EF00F0948E82BE04D01D2AB8
:1000F000D8B41E2A03D01F2AD8B4202AF09236EF93
:1001000000F052656164792E2E2E00002052656148
:100110006479312E2E2E0000205265616479322ED2
:100120002E2E0000205265616479332E2E2E0000A1
:10013000205265616479342E2E2E000020526561B4
:100140006479352E2E2E0000205265616479362E9A
:100150002E2E0000205265616479372E2E2E00006D
:10016000205265616479382E2E2E00002052656180
:100170006479392E2E2E0000EA6A3C0EE96EEF50AB
:100180000DE0060E016E006A002EFED7012EFBD791
:100190007B0E006E002EFED7EF2EF3D7000C43B07F
:1001A00002D08C9001D08C80959043B202D08C927A
:1001B00001D08C82959243B402D08C9401D08C846F
:1001C000959443B602D08C9601D08C86959600000B
:1001D0008A8A939A030E006E002EFED78A9A939A0B
:1001E000000C446A9580000E83B0010E4412958283
:1001F000000E83B2010E006ED890003600504412FB
:100200009584000E83B4010E006E00360036FC0E9D
:100210000016005044129586000E83B6010E006E43
:10022000003600360036F80E00160050441244C066
:1002300001F0000C95809582958495868A8C939C1C
:1002400000008A8A939A0000CCDF01C043F08A9AAA
:10025000939A00008A8A939A00D000D00000C1DFF0
:1002600001C042F08A9A939A9590959295949596AA
:100270004338006EF00E001600504210016E47EF3A
:1002800001F0939A939E939C8A9E939ED3D701C02C
:1002900042F001BEFBD7405202E18A9E01D08A8E15
:1002A000939E00008A9C939C00008A9A939A4138FE
:1002B000426E0F0E421642C043F071DF41500F0BE9
:1002C000426E436E6CDF000C9590959295949596D6
:1002D000939A939E939C8A9E939E8A9C939C8A9ABF
:1002E000939A0F0E3C6E48DF010E396E39500308A9
:1002F0000AE3030E436E53DF436A51DF050E3C6E83
:100300003BDF392AF3D7020E436E49DF436A47DFEA
:10031000050E3C6E31DF396A3950030809E3036A80
:100320003950CBDE3A6E406A416EABDF392AF4D7E2
:100330006FEF03F03D2C01D003D0400E3E6E01D094
:100340003E6A010E3C5C3E263E5080093F6E406A8C
:10035000416E97DF000C3B50070A07E00B0A0AE0EA
:10036000060A10E0020A14E018D0010E3C6E3D6E41
:10037000E1DF19D0406A010E416E83DF020E3C6E50
:10038000FBDE11D0010E3C6E020E3D6ED3DF0BD0B2
:10039000406A100E416E75DF06D0010E406E3BC004
:1003A00041F06FDF00D0000C0900F5520CE0F6CFF1
:1003B00039F0F7CF3AF0F5CF3BF0CDDF39C0F6FF9B
:1003C0003AC0F7FFF1D7000CC00EF212F086F19A96
:1003D000F088F19880EF03F03A6A216A81843A6AE2
:1003E0003A50070844E339C000F03A50016E04E087
:1003F000D8900032012EFCD700A002D0818201D01B
:100400008192100E006E002EFED700008194100E17
:10041000006E002EFED7000081A026D03A5202E1E5
:10042000010E216E3A2C02D0020E21263A5002080B
:1004300002E1040E21263A50030802E1080E2126AB
:100440003A50040802E1100E21263A50050802E154
:10045000200E21263A50060802E1400E21263A508D
:10046000070802E1800E212681843A2AB9D7000CC0
:1004700081868184818281809380939693949392E4
:100480008196010E396EA8DF420E396EA5DF21C0BC
:1004900022F0396AA1DF396A9FDF21C023F0396A6F
:1004A0009BDF21C024F0396A97DF21C025F0396A2B
:1004B00093DF21C026F0396A8FDF21C027F0396A27
:1004C0008BDF21C028F081862350010B296E235039
:1004D000020B006ED89000302F6E2350040B006E7C
:1004E0000030306E30323F0E30162350080B006E55
:1004F00000302A6E2A322A321F0E2A162350100B81
:10050000006E00382B6E0F0E2B162350200B006E42
:1005100000382E6E2E32070E2E162350400B006E22
:1005200000382C6E2C322C32030E2C162350800BEC
:100530002D6AE8BE2D802450010B336E2450020B2F
:10054000006ED8900030346E2450040B006E0030E2
:10055000316E31323F0E31162450080B006E0030E0
:10056000326E323232321F0E32162450100B006EB1
:100570000038356E0F0E35162450200B006E0038F3
:10058000366E3632070E36162450400B006E003899
:10059000376E37323732030E37162450800B386AE5
:1005A000E8BE3880000C9298949694948296809835
:1005B000000E0509CA6EFF0ECB6E94948B940C0E40
:1005C000BD6E3AC002F039C001F00232013202328F
:1005D0000132023201C0BEFF02320230300B006E27
:1005E000BD50CF0B0010BD6EA3EF03F09298949610
:1005F0009494000E0509CA6EFF0ECB6E94948B94F2
:100600000C0EBD6EBE6A80888296A5EF03F0929AAA
:10061000949094928280809A000E0509CA6EFF0E13
:10062000CB6E94928B920C0EBA6E3AC002F039C027
:1006300001F00232013202320132023201C0BBFF4C
:1006400002320230300B006EBA50CF0B0010BA6E7F
:10065000000C929A94909492808A8290000E0509E0
:10066000CA6EFF0ECB6E94928B920C0EBA6EBB6A62
:10067000000C929A94909492809A8290000E0509B0
:10068000CA6EFF0ECB6E94928B920C0EBA6E3AC06D
:1006900002F039C001F0023201320232013202327C
:1006A00001C0BBFF02320230300B006EBA50CF0BDC
:1006B0000010BA6E02EF04F0F86AD09E078EEA6A64
:1006C000E96A1A6A196A1C6A1B6A1E6A1D6A206A2C
:1006D0001F6AB990C19CC19E000EB86EF5D5020E7E
:1006E000F66E010EF76E60DE020E396EFA0E3C6E8B
:1006F00043DD392EFBD70C0E3B6E2DDEF19E64D60A
:10070000010E2A6E2A2C11D0B3DE3C6A010E3D6E1A
:1007100011DE0C0EF66E010EF76E46DE295204E174
:100720009296809692948094EDD70C0E3B6E13DED9
:100730002A5214E1958C838C83AC06D0010E3A6E5C
:10074000900E396E30D7F8D751D7010E2A6E020EAF
:10075000396EFA0E3C6E10DD392EFBD72A2C11D0E3
:1007600087DE3C6A010E3D6EE5DD180EF66E010E69
:10077000F76E1ADE295204E1929680969294809444
:10078000EDD70C0E3B6EE7DD2A5216E1958E838E77
:1007900083AE06D0010E3A6E900E396E38DFF8D770
:1007A00058DF010E2A6E206A1F6A020E396EFA0E99
:1007B0003C6EE2DC392EFBD72A2C11D059DE3C6A84
:1007C000010E3D6EB7DD240EF66E010EF76EECDD08
:1007D000295204E19296809692948094EDD70C0E63
:1007E0003B6EB9DD2A5219E1206A1F6A20BE05D08E
:1007F000205209E11F50310806E3010E3A6E900EB7
:10080000396E37D7F3D725DF010E2A6E020E396E07
:10081000FA0E3C6EB1DC392EFBD72A2C11D028DE23
:100820003C6A010E3D6E86DD300EF66E010EF76EEF
:10083000BBDD295204E19296809692948094EDD784
:100840000C0E3B6E88DD2A520BE192948094010ECF
:100850002A6E020E396EFA0E3C6E8EDC392EFBD7F4
:100860002A2C11D005DE3C6A010E3D6E63DD3C0E84
:10087000F66E010EF76E98DD295204E1929680968D
:1008800092948094EDD70C0E3B6E65DD2A520BE1FD
:1008900092948084010E2A6E020E396EFA0E3C6E1E
:1008A0006BDC392EFBD72A2C11D0E2DD3C6A010E1D
:1008B0003D6E40DD480EF66E010EF76E75DD295275
:1008C00004E19296809692948094EDD70C0E3B6E44
:1008D00042DD2A520BE192968096010E2A6E020E9C
:1008E000396EFA0E3C6E48DC392EFBD72A2C11D01B
:1008F000BFDD3C6A010E3D6E1DDD540EF66E010E2D
:10090000F76E52DD295204E192968096929480947B
:10091000EDD70C0E3B6E1FDD2A5214E1958E838EAF
:1009200083AE06D0010E3A6E900E396E70DEF8D7A7
:1009300090DE010E2A6E020E396EFA0E3C6E1CDC41
:10094000392EFBD72A2C11D093DD3C6A010E3D6E67
:10095000F1DC600EF66E010EF76E26DD295204E121
:100960009296809692948094EDD70C0E3B6EF3DCB9
:100970002A520CE192968086010E2A6E020E396E82
:10098000FA0E3C6EBCEC00F0392EFAD72A2C11D0AE
:100990006FDD3C6A010E3D6ECDDC6C0EF66E010E15
:1009A000F76E02DD295204E192968096929480942B
:1009B000EDD70C0E3B6ECFDC2A52D8B4FFD7A0D6B1
:0209C000030032
:020000040030CA
:0E00000000C20C3E3C9D810000C00FE00F408E
:00000001FF
;PIC18F4431
;CRC=BFA4  CREATED="10-Jan-14 14:01"
