:040000001FEF0CF0F2
:08000800046ED8CF05F0E0CF33
:1000100006F00001E9CF0CF0EACF07F0E1CF08F0DD
:10002000E2CF09F0D9CF0AF0DACF0BF0F3CF12F01C
:10003000F4CF13F0FACF14F000C00EF001C00FF0AF
:1000400002C010F003C011F0F2AA2AEF00F0F2B4DF
:10005000A7EF00F09DA030EF00F09EB00FEF05F08D
:10006000F0A636EF00F0F0B063EF00F0F0A83CEF40
:1000700000F0F0B285EF00F0A3A042EF00F0A4B0D2
:1000800089EF05F00EC000F00FC001F010C002F0C3
:1000900011C003F00CC0E9FF07C0EAFF078E08C0DB
:1000A000E1FF09C0E2FF0AC0D9FF0BC0DAFF12C0AE
:1000B000F3FF13C0F4FF14C0FAFF045006C0E0FFC2
:1000C00005C0D8FF1000006AF1BA002A010E001A1C
:1000D000F19A00B0F18AF1AA0BD082AA05D01D5086
:1000E000D8B41E061D0603D01D2AD8B41E2A0AD075
:1000F00082AA04D01D2AD8B41E2A04D01D50D8B418
:100100001E061D06F09042EF00F0006AF1B8002ACA
:10011000010E001AF19800B0F188F1A80BD082A866
:1001200004D01D2AD8B41E2A04D01D50D8B41E06EF
:100130001D060AD082A805D01D50D8B41E061D0683
:1001400003D01D2AD8B41E2AF09242EF00F05B2A99
:10015000D8B45C2A5AA00ED0D76A050ED66E582A9B
:100160005850640802E2586A839C5950585C01E375
:10017000838C0DD0D76A050ED66E582A5850C70802
:1001800002E2586A8B8E5950585C01E38B9EF294C0
:1001900042EF00F0969494969494000E0609CA6E6D
:1001A000FA0ECB6E8B940C0EBD6EBE6A8484829662
:1001B000120096929490949284828290000E060986
:1001C000CA6EFA0ECB6E8B920C0EBA6EBB6A120020
:1001D0008E0E006E71C001F070C002F0036A71AF44
:1001E00005D0011E021E022A01E1012A015209E185
:1001F00002C001F0026A080E005E015202E1006ACC
:100200000AD0D89001BE04D0023601360006F9D7D4
:1002100071BF01D0019E12007051D8B471D0006E30
:100220007451D8B46DD0002604E3810E002668E234
:1002300004D07F0E005E64E363E071C078F0755116
:10024000781B718F758F73517703F4CF7AF07251E9
:100250007603F4CF03F0F3CF79F07703F3507A27E6
:10026000F4507923000E032273517603F3507A275A
:10027000F4507923000E026A03220222715177039F
:10028000F3507927F4500322000E022271517603B5
:10029000F3500326F4500222000E016A012273512A
:1002A0007503F3507927F4500322000E0222012235
:1002B00072517503F3500326F4500222000E0122FE
:1002C00071517503F3500226F4500122002A01BE39
:1002D00005D079370336023601360006000E79AFB5
:1002E0000AD0032A02220122015005E1025003E153
:1002F000035001E1002A78BF018E78AF019E04D03F
:10030000006A016A026A036A1200800ED8B2751B85
:100310007A6B7B6B71C079F07551791B7051D8B4D1
:10032000DCD0786F006E7451D8B4E0D0785FD8B468
:1003300081D03DE375C07EF07E8F76C07DF077C0C2
:100340007CF07B6BD8907E337D337C337B33782F8E
:10035000F8D779AF03D07A81DDD07A9178917A8914
:10036000EA6A730EE96EE9D07A9979BF0AD078A16A
:1003700013D07E337D337C337B33002AD8B4C5D091
:100380000BD07EBF0CD0D8907B377C377D377E3743
:100390000006D8B4BAD0F5D77A8D6BD07A9D71C0EB
:1003A00079F071AF02D07E8FA9D07E9FA7D074C0A4
:1003B00078F074C000F07051785F71C07EF07E8F6D
:1003C00072C07DF073C07CF07B6BD8907E337D3340
:1003D0007C337B33782FF8D779AF03D07A839AD0E8
:1003E0007A9378917A8BEA6A770EE96EA6D07A9B37
:1003F00079BF0AD078A113D07E337D337C337B3331
:10040000002AD8B482D00BD07EBF0CD0D8907B37D6
:100410007C377D377E370006D8B477D0F5D77A8F12
:1004200028D07A9F75C079F075AF02D07E8F66D0E4
:100430007E9F64D075C07EF07E8F76C07DF077C0E1
:100440007CF079AF04D07E9F7A8564D07A957B6BFF
:100450007891EA6A730EE96E70D079BF1CD071C0D2
:1004600079F078A106D07E337D337C337B33002A4C
:100470004CE07BAF0BD07C2B09E17D2B07E17E2B81
:1004800005E17E337D337C33002A3FE07ABD86D799
:100490007ABFC7D71CD0800E7E1B7EAF04D03AD067
:1004A00075C079F00AD071C079F07E5306E17D53B2
:1004B00004E17C5302E1006A21D07EBF08D0D890CD
:1004C0007B377C377D377E37002EF7D71ED079AF4C
:1004D00002D07E8F13D07E9F11D074C000F075C003
:1004E0007EF076C07DF077C07CF008D070C000F060
:1004F00071C07EF072C07DF073C07CF07EC001F0F0
:100500007DC002F07CC003F034D0006A016A026A48
:10051000036A2FD07B6B7C1F7D1F7E1F7B1F7B2B75
:1005200005E17C2B03E17D2B01E17E2B7AB115D710
:100530007AB356D77AB58AD7B3D7EF507C2705E37D
:100540007D2B03E17E2BD8B47881ED52EF507D27CF
:1005500003E37E2BD8B47881ED52EF50EFBE01D08B
:10056000800A7E27D8B078817AB9FED67ABB3FD789
:1005700074D712008E0E006E6C51005E6DC002F0DA
:100580006EC001F0028E005209E0D890025202E1E2
:10059000015204E002320132002EF7D76DAF05D0D0
:1005A000011E021E012AD8B4022A1200849467CFC9
:1005B00001F066CF00F067CF03F00350015C02E06A
:1005C00066CF00F00050336E03C034F03350685DE6
:1005D000376E34506959386E4C5203E14B50010864
:1005E00030E23B50375C396E3C5038583A6E4C6ABA
:1005F0004B6A3AAE08D03A50FE0809E2FF0A03E11E
:100600003950F60804E2375035263850362236BEC7
:1006100008D0365203E13550C80803E2366AC80EE6
:10062000356E36AE0AD03650FF0807E303E1355089
:10063000370803E33668380E356E38C03CF037C0F3
:100640003BF038C071F037C070F0C2DD22C073F0EB
:1006500021C072F020C071F01FC070F003C077F0AD
:1006600002C076F001C075F000C074F0D5DD03C0A3
:100670006FF002C06EF001C06DF000C06CF036C0CB
:1006800071F035C070F0A4DD26C073F025C072F0A3
:1006900024C071F023C070F003C077F002C076F080
:1006A00001C075F000C074F0B7DDD8926FC073F070
:1006B0006EC072F06DC071F06CC070F003C077F066
:1006C00002C076F001C075F000C074F01EDE03C0F9
:1006D0006FF002C06EF001C06DF000C06CF03AC067
:1006E00071F039C070F074DD2AC073F029C072F067
:1006F00028C071F027C070F003C077F002C076F018
:1007000001C075F000C074F087DDD8926FC073F03F
:100710006EC072F06DC071F06CC070F003C077F005
:1007200002C076F001C075F000C074F0EEDD03C0C9
:100730002EF002C02DF001C02CF000C02BF02EC016
:100740006FF02DC06EF02CC06DF02BC06CF012DF7E
:1007500002C03EF001C03DF03EBE06D03E5203E175
:100760003D50000801E282963EAE01D082863EC036
:1007700003F03D503EAE08D0000ED8803D54006ED0
:10078000000E3E54036E00503D6E03C03EF03EBE70
:1007900009D03E5203E13D50050804E2E60E3D2635
:1007A000000E3E226BAF03D03EAE0AD002D03EBE5A
:1007B0000BD06B513E5C08E303E13D506A5D04E2FF
:1007C0006BC03EF06AC03DF03EC002F03DC001F09B
:1007D0000232013202320132023201C0BEFF023265
:1007E0000230300B006EBD50CF0B0010BD6E1200FA
:1007F00084921EC040F01DC03FF03F50685D436EC4
:1008000040506959446E4E5203E14D50010830E2A8
:100810004750435C456E48504458466E4E6A4D6A98
:1008200046AE08D04650FE0809E2FF0A03E14550F3
:10083000F60804E2435041264450422242BE08D00A
:10084000425203E14150C80803E2426AC80E416EB9
:1008500042AE0AD04250FF0807E303E14150370897
:1008600003E34268380E416E44C048F043C047F08D
:1008700044C071F043C070F0ABDC22C073F021C003
:1008800072F020C071F01FC070F003C077F002C09A
:1008900076F001C075F000C074F0BEDC03C06FF0EC
:1008A00002C06EF001C06DF000C06CF042C071F08B
:1008B00041C070F08DDC26C073F025C072F024C0FA
:1008C00071F023C070F003C077F002C076F001C071
:1008D00075F000C074F0A0DCD8926FC073F06EC0E9
:1008E00072F06DC071F06CC070F003C077F002C0A0
:1008F00076F001C075F000C074F007DD03C06FF042
:1009000002C06EF001C06DF000C06CF046C071F026
:1009100045C070F05DDC2AC073F029C072F028C0B9
:1009200071F027C070F003C077F002C076F001C00C
:1009300075F000C074F070DCD8926FC073F06EC0B8
:1009400072F06DC071F06CC070F003C077F002C03F
:1009500076F001C075F000C074F0D7DC03C032F04F
:1009600002C031F001C030F000C02FF032C06FF093
:1009700031C06EF030C06DF02FC06CF0FBDD02C0F6
:100980004AF001C049F04ABE06D04A5203E149503C
:10099000000801E282804AAE01D082904AC003F092
:1009A00049504AAE08D0000ED8804954006E000E5F
:1009B0004A54036E0050496E03C04AF04ABE09D043
:1009C0004A5203E14950050804E2E60E4926000EAA
:1009D0004A226BAF03D04AAE0AD002D04ABE0BD037
:1009E0006B514A5C08E303E149506A5D04E26BC065
:1009F0004AF06AC049F04AC002F049C001F0023230
:100A0000013202320132023201C0BBFF0232023037
:100A1000300B006EBA50CF0B0010BA6E12004B2A8A
:100A2000D8B44C2A4D2AD8B44E2A5D50FC0F33E27C
:100A3000040F52EF05F09D90CAEC00F0D9EC00F0E5
:100A40002AD0D9EC00F050C069F04FC068F054C013
:100A50006BF053C06AF0AADD1ED0CAEC00F052C0A1
:100A600069F051C068F056C06BF055C06AF0C0DE46
:100A700012D050C069F04FC068F054C06BF053C042
:100A80006AF094DD52C069F051C068F056C06BF056
:100A900055C06AF0ADDEC40ECF6E6E0ECE6E9E9067
:100AA00042EF00F0E824F76AF736BF0FF66E0A0E41
:100AB000F7220A00F550FA6E0800F550F96E360A72
:100AC000420A5A0A720AEA6A6C0EE96EEF500EE0A8
:100AD0000C0E016E006A002EFED7012EFBD7F70E1A
:100AE000006E002EFED700D0EF2EF2D712006A6BF8
:100AF00068516A5D0DE2959E839E140E6C6FE3DF74
:100B0000838E140E695D6B6F6C6FDDDF6A2BF0D71F
:100B10001200C30E886E730E876E572A5750020854
:100B200005E1010E686F320E696FE1DF5750320840
:100B300005E1010E686F320E696FD9DF5750640806
:100B400005E1010E686F320E696FD1DF57509608CC
:100B500005E1010E686F320E696FC9DF5750C80892
:100B600002E2576AA390A49042EF00F0180E926E32
:100B7000E70E806E9368F19E8168300E946E826AF3
:100B8000956AF00E836E966A8468F086F088C00ECF
:100B9000F212F18AF188F090F092F2949E90A49073
:100BA000140EB66E310E606E65686468676A666AB8
:100BB000676A666AC10ED56ED76A050ED66EB50E27
:100BC000CD6EC40ECF6E6E0ECE6E190EB76ECF0EFA
:100BD000886E2B0E876E63EF0CF096949496949427
:100BE00082868494000E0609CA6EFA0ECB6E8B9430
:100BF0000C0EBD6E63C002F062C001F00232013221
:100C000002320132023201C0BEFF02320230300B2A
:100C1000006EBD50CF0B0010BD6E120096929490E6
:100C2000949284928290000E0609CA6EFA0ECB6EE0
:100C30008B920C0EBA6E63C002F062C001F00232F9
:100C4000013202320132023201C0BBFF02320230F5
:100C5000300B006EBA50CF0B0010BA6E12009D9090
:100C6000F29A020E626F166AF2BE168EF29EFA0EAB
:100C70006C6F29DF16BEF28E622FF5D7166AF2BEB0
:100C8000168EF29E010E686F640E696F30DF16BE1D
:100C9000F28E5E6A5E50310820E381BE13D08090F0
:100CA0008092040E626F166AF2BE168EF29EFA0EE3
:100CB0006C6F09DF16BEF28E622FF5D78490809A92
:100CC000640E5E6E166AF2BE168EF29E0A0E6C6F8F
:100CD000FADE16BEF28E5E2ADDD7020E626F166A4B
:100CE000F2BE168EF29EFA0E6C6FEDDE16BEF28E1E
:100CF000622FF5D781A606D0010E636FAE0E626F2C
:100D00006CDFF8D7CAEC00F081A206D0020E636F48
:100D1000580E626F83DFF8D7D9EC00F0166AF2BE86
:100D2000168EF29E010E686F640E696FE0DE16BECD
:100D3000F28E8084808080828480808A959A959CBF
:100D4000838A838CF28A5A8081AA04D0838A1E0EF9
:100D5000596EFAD7596A020E626F166AF2BE168E83
:100D6000F29E960E6C6FAFDE16BEF28E622FF5D736
:100D700081BA04D0839A3C0E596EFAD7596A166A22
:100D8000F2BE168EF29E010E686F640E696FAFDEC2
:100D900016BEF28EF29A838C838A166AF2BE168E83
:100DA000F29E010E686F640E696FA1DE16BEF28EB0
:100DB000676A666A1E6A1D6A4C6A4B6A4E6A4D6AA9
:100DC000506A4F6A526A516A040E5D6EC80E576EC1
:100DD000A380120096949496949482968494000E24
:100DE0000609CA6EFA0ECB6E8B940C0EBD6E63C0F4
:100DF00002F062C001F002320132023201320232EC
:100E000001C0BEFF02320230300B006EBD50CF0B6E
:100E10000010BD6E120096929490949282808492FB
:100E2000000E0609CA6EFA0ECB6E8B920C0EBA6ECD
:100E300063C002F062C001F00232013202320132BC
:100E4000023201C0BBFF02320230300B006EBA50DA
:100E5000CF0B0010BA6E1200040E626F166AF2BE5B
:100E6000168EF29EFA0E6C6F2EDE16BEF28E622F7A
:100E7000F5D7166AF2BE168EF29E030E686F640EE8
:100E8000696F35DE16BEF28E000E0609CA6EFA0EC6
:100E9000CB6E8B940C0EBD6E8B92BA6E808480806C
:100EA00080828480808A80908092020E5D6E010E26
:100EB000526E180E516E9D801EBE07D01E50010846
:100EC00005E303E11D501708D8B0F6D7010E5D6E9B
:100ED000506AEB0E4F6E67CF01F066CF00F067CF20
:100EE00003F00350015C02E066CF00F00050626F37
:100EF00003C063F0635304E16251EA0801E3EBD7F6
:100F00008490809A81BEFED781BE0CD0808A166AFA
:100F1000F2BE168EF29E010E686F640E696FE7DDF9
:100F200016BEF28E81BCFED7010E5D6E81BC04D070
:100F3000010E506E0E0E4F6E67CF01F066CF00F0BF
:100F400067CF03F00350015C02E066CF00F0005071
:100F5000626F03C063F06351010805E303E162516E
:100F60000D0801E3E9D75D6A020E636FBC0E626F84
:100F700031DF5F6A5F5005082EE381B0FED781B094
:100F80000ED08480CAEC00F0166AF2BE168EF29E75
:100F9000010E686F640E696FAADD16BEF28E81A025
:100FA00018D08490010E636F2C0E626F16DE020E55
:100FB000626F166AF2BE168EF29EC80E6C6F83DDEB
:100FC00016BEF28E622FF5D7020E636F580E626F57
:100FD00001DF5F2ACFD78480CAEC00F0040E626F75
:100FE000166AF2BE168EF29EFA0E6C6F6CDD16BE9D
:100FF000F28E622FF5D7809A020E5D6E526AFA0E5B
:10100000516E9D801EBE06D01E5203E11D50FA088F
:10101000D8A0F8D7526A0A0E516E506A4F6A030E72
:101020005D6E1EBE06D01E5203E11D500B08D8A0F7
:10103000F8D75D6A020E636FBC0E626FEFDD5F6A08
:101040005F5003082EE381B4FED781B40ED0808AAE
:10105000D9EC00F0166AF2BE168EF29E010E686F91
:10106000640E696F44DD16BEF28E81A418D0809A9A
:10107000010E636F2C0E626FCEDE020E626F166A77
:10108000F2BE168EF29EC80E6C6F1DDD16BEF28E7D
:10109000622FF5D7020E636F580E626FBFDD5F2AB5
:1010A000CFD7808ACAEC00F0040E626F166AF2BED7
:1010B000168EF29EFA0E6C6F06DD16BEF28E622F51
:1010C000F5D78490010E5D6E506A1E0E4F6E9D80A6
:1010D00067CF01F066CF00F067CF03F00350015CEB
:1010E00002E066CF00F00050626F03C063F063530C
:1010F00004E162511D0801E3EBD7010E506E0E0EA4
:101100004F6E010E526E180E516E030E5D6E67CF5C
:1011100001F066CF00F067CF03F00350015C02E0FE
:1011200066CF00F00050626F03C063F063510108A6
:1011300005E303E162510D0801E3E9D75D6A020EA0
:10114000636FBC0E626F46DE5F6A5F5003083DE36B
:1011500081B4FED781B40ED08480CAEC00F0166A48
:10116000F2BE168EF29E010E686F640E696FBFDCD0
:1011700016BEF28E81A427D08490010E636F2C0ED0
:10118000626F2BDD020E626F166AF2BE168EF29E41
:10119000960E6C6F98DC16BEF28E622FF5D7CAECF5
:1011A00000F0020E626F166AF2BE168EF29E960E66
:1011B0006C6F89DC16BEF28E622FF5D7020E636F5C
:1011C000BC0E626F07DE5F2AC0D78480D9EC00F0C6
:1011D000040E626F166AF2BE168EF29EFA0E6C6FE5
:1011E00072DC16BEF28E622FF5D78490020E5D6E11
:1011F000526ADC0E516E9D801EBE06D01E5203E167
:101200001D50DC08D8A0F8D75D6A81BCFED781BC30
:1012100009D0166AF2BE168EF29E640E6C6F53DC15
:1012200016BEF28E81BCFED781BEFED781BE0ED027
:10123000809A020E626F166AF2BE168EF29EC80E79
:101240006C6F41DC16BEF28E622FF5D781BEFED7E1
:1012500081BE0ED0020E626F166AF2BE168EF29E2C
:10126000C80E6C6F30DC16BEF28E622FF5D7F7DC3D
:10127000A380A9EF0CF0040E626F166AF2BE168E00
:10128000F29EFA0E6C6F1FDC16BEF28E622FF5D73F
:10129000166AF2BE168EF29E030E686F640E696FB8
:1012A00026DC16BEF28E000E0609CA6EFA0ECB6E52
:1012B0008B940C0EBD6E8B92BA6E8084808080827F
:1012C0008480808A80908092020E5D6E526AE60E63
:1012D000516E9D801EBE05D01E5204E11D50E508D2
:1012E000D8B0F8D7010E5D6E506E180E4F6E67CFF6
:1012F00001F066CF00F067CF03F00350015C02E01D
:1013000066CF00F00050626F03C063F063510108C4
:1013100005E303E16251170801E3E9D78490809A5D
:1013200081BEFED78480166AF2BE168EF29E010E32
:10133000686F640E696F77EC05F016BEF28E81BCA3
:10134000FED7020E5D6E010E526E0E0E516E1EBE67
:1013500007D01E50010805E303E11D500D08D8B069
:10136000F6D75D6A166AF2BE168EF29E640E6C6F38
:1013700063EC05F016BEF28E020E636F580E626FBC
:101380004ADD606B6051050830E381B4FED781B45B
:1013900003D0808AD9EC00F0166AF2BE168EF29E57
:1013A000640E6C6F63EC05F016BEF28E81A41BD048
:1013B000809A010E636F2C0E626F30DC020E626F3A
:1013C000166AF2BE168EF29EC80E6C6F63EC05F0C4
:1013D00016BEF28E622FF4D7D9EC00F0020E636FC6
:1013E000580E626F18DD602BCDD7808AD9EC00F0E3
:1013F000040E626F166AF2BE168EF29EFA0E6C6FC3
:1014000063EC05F016BEF28E622FF4D78490010EC5
:101410005D6E506A4F6A9D8067CF01F066CF00F025
:1014200067CF03F00350015C02E066CF00F000508C
:10143000626F03C063F0635303E16251DC0801E2B1
:10144000EBD7506A0A0E4F6E526A516A030E5D6EF8
:1014500067CF01F066CF00F067CF03F00350015C67
:1014600002E066CF00F00050626F03C063F0635388
:1014700003E162510A0801E2EBD75D6A166AF2BE27
:10148000168EF29E640E6C6F63EC05F016BEF28E43
:10149000020E636F580E626FEDEC05F0606B6051E9
:1014A000050831E381B0FED781B003D08480CAEC57
:1014B00000F0166AF2BE168EF29E640E6C6F63EC3C
:1014C00005F016BEF28E81A01CD08490010E636FD1
:1014D0002C0E626F7FDC020E626F166AF2BE168EF1
:1014E000F29EC80E6C6F63EC05F016BEF28E622F92
:1014F000F4D7CAEC00F0020E636F580E626FEDEC89
:1015000005F0602BCCD78480CAEC00F0040E626F2B
:10151000166AF2BE168EF29EFA0E6C6F63EC05F040
:1015200016BEF28E622FF4D7809A020E5D6E010E07
:10153000526E180E516E9D801EBE05D01E5204E1E3
:101540001D503108D8B0F8D7010E506E180E4F6EEE
:10155000010E526E0E0E516E030E5D6E1EBE07D052
:101560001E50010805E303E11D500D08D8B0F6D761
:101570005D6A166AF2BE168EF29E640E6C6F63ECA4
:1015800005F016BEF28E020E636F580E626F43DCDA
:10159000606B605105083DE381B4FED781B40FD084
:1015A000808AD9EC00F0166AF2BE168EF29E010E09
:1015B000686F640E696F77EC05F016BEF28E166ADE
:1015C000F2BE168EF29E1E0E6C6F63EC05F016BE18
:1015D000F28E81A41CD0809A010E636F2C0E626F74
:1015E0000EEC06F0020E626F166AF2BE168EF29EC6
:1015F000C80E6C6F63EC05F016BEF28E622FF4D746
:10160000D9EC00F0020E636F580E626F04DC602BA1
:10161000C0D7808AD9EC00F0040E626F166AF2BE61
:10162000168EF29EFA0E6C6F63EC05F016BEF28E0B
:10163000622FF4D78490010E5D6E506AF00E4F6EEB
:101640009D8067CF01F066CF00F067CF03F00350B5
:10165000015C02E066CF00F00050626F03C063F0EF
:10166000635303E16251F00801E2EBD75D6A81BC8C
:10167000FED781BEFED7809A020E626F166AF2BE56
:10168000168EF29EFA0E6C6F63EC05F016BEF28EAB
:10169000622FF4D781BEFED72FEC06F0C80E576E2E
:1016A000A380BCEF0CF0040E636F166AF2BE168EB8
:1016B000F29EFA0E6C6F63EC05F016BEF28E632F8D
:1016C000F4D7166AF2BE168EF29E040E686F640E90
:1016D000696F77EC05F016BEF28E959A959C838A19
:1016E000838C81BCFED7166AF2BE168EF29E640E03
:1016F0006C6F63EC05F016BEF28E5A80F28A80940D
:1017000081A804D0839A500E596EFAD7838A596AF9
:10171000166AF2BE168EF29E010E686F640E696F35
:1017200077EC05F016BEF28E626B625102082AE376
:1017300081AA04D0838A500E596EFAD7839A596AC7
:10174000166AF2BE168EF29E010E686F640E696F05
:1017500077EC05F016BEF28E81A804D0839A550E60
:10176000596EFAD7838A596A166AF2BE168EF29EAD
:10177000010E686F640E696F77EC05F016BEF28E8D
:10178000622BD3D781AA04D0838A500E596EFAD720
:10179000839A596A166AF2BE168EF29E010E686F1F
:1017A000640E696F77EC05F016BEF28E81A804D046
:1017B000839A550E596EFAD7838A596A166AF2BE11
:1017C000168EF29E010E686F640E696F77EC05F05D
:1017D00016BEF28E81AA04D0838A500E596EFAD7B3
:1017E000839A596A166AF2BE168EF29E010E686FCF
:1017F000640E696F77EC05F016BEF28E81BA04D0E4
:10180000839A3C0E596EFAD7596A166AF2BE168E42
:10181000F29E010E686F640E696F77EC05F016BEDC
:10182000F28E8084838C838A5A900A0E596E81BC12
:10183000FED7F29AC80E576EA380CFEF0CF0F86A6D
:10184000D09E078E226A216A206A800E1F6ECD0EFE
:10185000266ECC0E256E4C0E246E7C0E236E330E3F
:101860002A6E296E286E7E0E276E366A356A386AB1
:10187000376A3A6A396A3C6A3B6A426A416A446A30
:10188000436A466A456A486A476A030E546E840E84
:10189000536E030E566E840E556E576A586A640E68
:1018A000596E5A905C6A5B6A040E5D6E5E6A5F6A8E
:1018B000606B616BB990C19CC19E000EB86E176AD7
:1018C000186AB6EF05F01E6A1D6A4C6A4B6A4E6ACA
:1018D0004D6A506A4F6A526A516A166AF2BE168E93
:1018E000F29E020E686F640E696F77EC05F016BE0B
:1018F000F28E81BE10D0A380576A010E616F166A06
:10190000F2BE168EF29E0A0E6C6F63EC05F016BEE8
:10191000F28E81AEFED7612D43D05750310805E3DA
:10192000A390616B576A2FEC06F05750320802E320
:10193000000E01D0010E626F5750630802E2000EE4
:1019400001D0010E621505E0A390616B576A2CEF80
:1019500007F05750640802E3000E01D0010E626FD9
:101960005750950802E2000E01D0010E621504E006
:10197000A390616B576A7FD45750960802E3000E1C
:1019800001D0010E626F5750C70802E2000E01D06D
:10199000010E621504E0A390616B576A84D6BBD731
:0419A000A8D70300C1
:020000040030CA
:0E00000000C60C3E3C9D81000FC00FE00F407B
:00000001FF
;PIC18F4431
;CRC=5D33  CREATED="30-Mar-14 22:01"
